:020000040800F2
:10000000A013002061020008793C0008E72F0008D7
:1000100000000000000000000000000000000000E0
:10002000000000000000000000000000AB3D0008E0
:1000300000000000000000007B3C0008AD3D00080F
:100040007302000800000000730200087302000839
:10005000730200087302000873020008D51A000832
:100060000000000073020008730200087302000819
:100070007302000873020008730200080000000009
:10008000293E00080000000000000000193E0008A2
:10009000000000007302000873020008E92F000846
:1000A0000000000073020008000000007302000856
:1000B00073020008000000000000000000000000C3
:1000C00000F002F800F0BDF80CA030C80838241881
:1000D0002D18A246671EAB4654465D46AC4201D180
:1000E00000F0AFF87E460F3E0FCCB64601263342F5
:1000F00000D0FB1AA246AB4633431847E44A00003F
:10010000044B0000103A02D378C878C1FAD85207DD
:1001100001D330C830C101D504680C6070470000BD
:100120000023002400250026103A01D378C1FBD813
:10013000520700D330C100D50B60704710B56E294F
:1001400002D100F077FB10BD702902D100F0B1FCA4
:1001500010BD662902D104F093FC10BD652902D1BF
:1001600004F08EFC10BD672902D104F089FC10BD9B
:10017000612902D104F08CFC10BD03681B0A01D375
:1001800080231943692902D100F0AEF810BD64291B
:1001900002D100F0A9F810BD752902D100F0A4F831
:1001A00010BD6F2902D100F02FFC10BD782902D1BB
:1001B00000F06CFC10BDE92902D100F0CBFB10BDB2
:1001C000E42902D100F0C6FB10BDF52902D100F0F0
:1001D000C1FB10BDEF2902D100F022FC10BDF829AF
:1001E00002D100F061FC10BD0368DB0901D380235C
:1001F0001943632902D101F03AF810BD732902D1E5
:1002000001F03DF810BDE32902D101F047F810BD1F
:10021000F32902D101F04AF810BD002010BD1FB52E
:1002200001F090F804000020002104F013FC401CB1
:1002300060600020002104F0F7FBE0601FBD10B5F6
:1002400010BD01F057F81146FFF7E9FF04F004FA7A
:1002500001F078FB03B4FFF7F2FF03BC01F0C0FB31
:100260000748804707480047FEE7FEE7FEE7FEE74E
:10027000FEE7FEE704480549054A064B70470000C3
:10028000093E0008C1000008A00D0020A0130020B6
:10029000A00F0020A00F00201CB50C46064B7B448D
:1002A00069460090204600F0DEFA044600206946C8
:1002B00000F0ECFA20461CBDEB0500000FB41CB5A5
:1002C000084B06AA7B4469460090059800F0CBFADB
:1002D00004460020694600F0D9FA20461CBC08BC40
:1002E00004B01847C5050000F7B50025752910684A
:1002F000009914A611D000F00AFA002802DA404250
:1003000011A608E0009909688A0701D50FA602E046
:10031000490704D50EA6012501E000F001FA009F6F
:100320000024243704E000F0D1FB30313955641C3F
:100330000028F8D12B4632462146009800F022FAD8
:10034000FEBD0000000000002D0000002B0000009A
:1003500020000000F3B50446002081B02062204652
:10036000E1688847002872D0252802D06268A16819
:10037000ABE0594F00267F442046E168884720289B
:10038000054608DB312D06D2781920380078002880
:1003900001D00643F0E7B00701D5042086430020D2
:1003A000E0610746A0612A2D0AD0284603F07CFEB2
:1003B000002827D0B8000019303D0090856119E071
:1003C0000298BA00121902C8916102902046E168B1
:1003D0008847012F054617D1E06900281FDA202041
:1003E00086431CE000980A2180694843009940191F
:1003F000303888612046E1688847054603F054FE9E
:100400000028EFD1012F0AD02E2D08D12046E16817
:1004100088470546202006437F1C022FC3DBA069C6
:10042000002803DA4042A06101200643F00701D012
:10043000102086436C2D0BD0682D09D04C2D3CD05C
:100440006A2D38D0742D38D07A2D36D016E040E0A1
:10045000E1682F4620468847B842054609D16C2FEF
:1004600029D001208002E1680643204688470546DE
:1004700004E06C2F1DD0FF2001300643002D28D052
:1004800028464138192803D80120C00206432035E8
:10049000204626602946029A1646FFF74FFE00289E
:1004A00010D001280BD0F61DF008C00008300290D3
:1004B00055E74020E1E78020D5E70020D3E7361D4F
:1004C00002964CE762682846A1689047206A401C63
:1004D00044E7206AFEBD00006647000030B5441CBA
:1004E00003E00178401C00290DD08107F9D10B4BA6
:1004F000DD0104C8D11A91432940FAD0001B0A0635
:1005000003D0C01E30BD001B30BD0A0401D0801EC8
:1005100030BD0902FCD0401E30BD000001010101C8
:1005200001E004C0091F0429FBD28B0701D502801A
:10053000801CC90700D00270704700290BD0C30788
:1005400002D00270401C491E022904D3830702D541
:100550000280801C891EE3E70022EEE70022DFE72D
:10056000002203098B422CD3030A8B4211D30023B0
:100570009C464EE003460B433CD4002243088B428A
:1005800031D303098B421CD3030A8B4201D3944617
:100590003FE0C3098B4201D3CB01C01A524183090A
:1005A0008B4201D38B01C01A524143098B4201D3C4
:1005B0004B01C01A524103098B4201D30B01C01AEF
:1005C0005241C3088B4201D3CB00C01A5241830869
:1005D0008B4201D38B00C01A524143088B4201D396
:1005E0004B00C01A5241411A00D2014652411046F6
:1005F00070475DE0CA0F00D04942031000D340426B
:10060000534000229C4603098B422DD3030A8B42A0
:1006100012D3FC22890112BA030A8B420CD389013E
:1006200092118B4208D3890192118B4204D3890124
:100630003AD0921100E08909C3098B4201D3CB0162
:10064000C01A524183098B4201D38B01C01A524117
:1006500043098B4201D34B01C01A524103098B421B
:1006600001D30B01C01A5241C3088B4201D3CB0006
:10067000C01A524183088B4201D38B00C01A5241E9
:10068000D9D243088B4201D34B00C01A5241411AC0
:1006900000D20146634652415B10104601D34042EE
:1006A000002B00D54942704763465B1000D340429F
:1006B00001B50020C046C04602BD70477047704774
:1006C00070B5044685690068C10601D5302600E092
:1006D0002026C00707D070BD62683046A1689047E9
:1006E000206A401C20626D1EF6D570BD70B50446B0
:1006F00085690078C00707D170BD6268A1682020B5
:100700009047206A401C20626D1EF6D570BD0968B6
:100710004A0501D540B27047C905FCD500B2704703
:1007200009684A0501D5C0B27047C905FCD580B239
:10073000704770B50C460546012A05D0287880061A
:1007400000D5EA69002302E0012305E05B1C934227
:1007500002D2E05C0028F9D1A869E618C01AA861A5
:10076000286AC01828622846FFF7AAFF04E06A68D2
:100770002078A968641C9047B442F8D32846FFF754
:10078000B5FF70BDFFB504460D4681B02430009022
:100790002168880604D51022E0699143216000E0B9
:1007A0000120A84201DD471B00E000270498A16951
:1007B0007A191018081AA0612078C00602D42046C1
:1007C000FFF77EFF002608E003986268A168805D5D
:1007D0009047206A401C761C206204988642F3DB16
:1007E0002078C0060AD52046FFF76AFF06E0626857
:1007F000A16830209047206A401C206238467F1E46
:100800000028F4DC07E000986268A168405D90472A
:10081000206A401C206228466D1E0028F3DC20461A
:10082000FFF764FF2078000602D5022005B0F0BD76
:100830000120FBE711680268006A530501D50870C2
:1008400009E0D30501D5088005E0130602D5C217DB
:1008500005C100E0086001207047000001694A1CE2
:1008600002610878704700B58FB0029100210591B0
:100870000549019379440391114604906846FFF7B6
:1008800069FD0FB000BD0000E5FFFFFF0A681070B2
:10089000521C0A6070470000F7B50446154686B042
:1008A0002B487844002703C83E460090019111E090
:1008B00007986A467100415A02A800F0FBFC411CEF
:1008C00007D02178890603D5E269391891420ED8FC
:1008D0003F18761C2078800602D5E069B84206DD14
:1008E000AE42E5DB07987100405A0028E0D1A069CC
:1008F000C01BA0612046FFF7E3FE154878445A3834
:1009000003C800900020019116E041006A46079854
:10091000415A02A800F0CEFC0590401C0AD00025E8
:1009200005E0626802A8A168405D90476D1C0598CB
:100930008542F6D30498401CB0420490E5DB206A5F
:10094000C01920622046FFF7D1FE09B0F0BD0000BB
:100950004E420000F7B5D21D0025D20815A6D200E0
:10096000F52905CA11D0002A05DA0021404291413B
:1009700011A60A4608E0009909688B0701D50FA661
:1009800002E0490701D50EA601251146009F00246B
:10099000243704E000F0AEF830323A55641C0246C9
:1009A0000A43F7D12B46324621460098FFF7EAFE6C
:1009B000FEBD0000000000002D0000002B00000024
:1009C0002000000070B504460021243408E05507DB
:1009D000D2086D0F303565545D072A43DB08491C8A
:1009E00015461D43F3D10468002310A2250708D53E
:1009F00020252C400C4304D0C46901230CA2641EA2
:100A0000C461FFF7BFFE70BD10B5044621461068F3
:100A1000FFF786FE002302462046FFF7D3FF10BDF6
:100A2000D21DD108C9000CC9CCE7000000000000AD
:100A300030000000F8B50F460188090502D5224CA8
:100A40007C4402E0204C7C440E34054600212435D1
:100A500008E016071209360FA65D6E541E073243D2
:100A60001B09491C16461E43F3D122460478002375
:100A7000240705D5702F06D0002901D0022311329A
:100A8000FFF780FEF8BD01231032F9E770B5044688
:100A90000D4621461068FFF743FE00230246294613
:100AA0002046FFF7C7FF70BDD21DD308DB000CCB7B
:100AB000C0E730B40368202412682343036008238E
:100AC000C36130BC0023B5E7B84000000146800890
:100AD000081A02091018020A1018020C1018C0088F
:100AE000820012185200891A01E0401C0A390A29B2
:100AF000FBD270470B4670B5024689078008084351
:100B000019469D08141AA941250908070543080933
:100B10002C194841250A01060D43010A2C194141AF
:100B2000200C0D0428430D0C00194D4100214019E3
:100B30004D41C00869070843E908840F8D0025432B
:100B4000840024184D4124196D41121BAB4107E06C
:100B50000925ED432C11521963410024401C6141C9
:100B60001C460A250026551BB441F1D270BD000079
:100B70007047FFB50C461E468FB003CA0890099116
:100B80004F007D0D00D16D1E002108460020C0469B
:100B90000321099A89050840002A03DA8200801897
:100BA00040080840800D01280A9002DD0020C04363
:100BB0000A90089807430DD0EF48F0492818484399
:100BC0000714189800281DD07542291E1DDD0A98AB
:100BD00042421BE01898012802D00020302104E096
:100BE0000020F24305E02154401CB042FBDB3046BC
:100BF0000022189B002121540F998B600A604860E5
:100C000013B0F0BDBD1B6D1CDFE70A9A002900DAA6
:100C100069420BA800F0DEFB0BAB07CB03AB07C3AD
:100C20000899099800F03AFC6B4607C30146D4487E
:100C30000918002D00910ADDD14903980A9A49420A
:100C4000401803A90390684600F04DFE07E00399A1
:100C50000A9A081803A90390684600F01AFE6B462A
:100C600007C30004000C03D00020C043410800E08B
:100C70001046189A002A03D00022009215461EE062
:100C8000751E05D4FFF736FF303262556D1EF9D55B
:100C900001220843079602D000227F1C04E020783E
:100CA000302801D100227F1E002A069789D01EE03D
:100CB000112D07DAFFF71EFF303262556D1C024618
:100CC0000A43F5D1084303D00098002819D00EE05C
:100CD0000021681E05E0235C625C63542254401EC0
:100CE000491C8142F7DBA81B401E07950690079A16
:100CF00018990020A0540F98079B069A81600CC099
:100D00007EE71126002018905BE7D21DF0B50D4656
:100D10000446D10893B0C90003C90C900D9103F0AB
:100D20008BF902460D98C00F01D02D2007E02068F6
:100D3000810701D52B2002E04007C00F4001032AA4
:100D40000F9001D0072A05DB03462946204600F014
:100D5000FDFA0EE12078800601D5E76900E006275C
:100D60002846652D04D0662814D0672D69D12DE062
:100D70000020112F009001DB112300E07B1C0CAA46
:100D800003A910A8FFF7F5FE1199002610987D1C05
:100D90000E9142E001203B460CAAC0070B900120B7
:100DA000009003A910A8FFF7E4FE119D1298109976
:100DB000002600280E9501D1781C0D18781B02D44E
:100DC00046427D1C761EE81B00903AE0012F00DAB7
:100DD00001270020112F009001DD112300E03B4688
:100DE0000CAA03A910A8FFF7C4FE11993D4610985C
:100DF00000260E91217809070BD40E99A94200DA3A
:100E00000D4603A9012D04DD4A19203AD27F302A6C
:100E100006D0B84201DA011D04DA012100910FE089
:100E20006D1EEFE7002802DC86192D1A03E0411C35
:100E3000A94200DD0D46801B401C00900120C00728
:100E40000B902078000705D40098A84202DB002010
:100E5000C043009069460020C8720B98012102AF80
:100E60000337C907884225D0022010902B2011900B
:100E70000B9800280BDA40420B902D20119006E0D1
:100E80000B98FFF723FE30317F1E0B9039701099BD
:100E9000481E00291090F3DC0B980028F0D111981F
:100EA0007F1E38702088000501D5452000E06520B0
:100EB0007F1E387001A8C01BC01D0B900F98002822
:100EC00000D0012041190098C01709180B98081884
:100ED000A169081A401EA0612078C00602D42046ED
:100EE000FFF7EEFB0F98002805D06268A1689047D5
:100EF000206A401C20622078C00625D52046FFF7D6
:100F0000DFFB21E0002E07DB0E98B04204DD03A8D2
:100F10006268805DA16802E06268A1683020904745
:100F2000206A761C401C20620098401E0028009019
:100F30000AD100F007FAC06862680168405CA168E5
:100F40009047206A401C206228466D1E0028D9DC8C
:100F500007E062683878A1687F1C9047206A401CCF
:100F600020620B99481E00290B90F2DC2046FFF707
:100F7000BDFB032044E6000001FCFFFF104D000014
:100F8000E1DFFFFFD21DF0B504460D46D0088DB05D
:100F9000C000466807683146384603F04DF80246FF
:100FA000F00F01D02D2307E02068810701D52B2306
:100FB00002E04007C00F43016846002B037001D0D8
:100FC000012000E00020032A0A9001D0072A04DB58
:100FD0002946204600F0BAF92BE12078800601D49A
:100FE0000D2500E0E5697000400D0D2D01904BDAF4
:100FF000300D00210B9008460020C04603218905D2
:101000000840002E05DA82008018C20F1018401028
:1010100008408015012801DD0020C043A9000023FD
:10102000182906D39C460A460123183A1B07D340C9
:1010300003E001221205CA4094460C31202902D354
:101040003A46203900E032468A40002802DD002A74
:1010500006D119E0002817D10121C9078A4213D30C
:10106000194663467F185E41002806D10120C0075B
:10107000824202D1084687439E430B98310D81423C
:1010800002D00198401C01902088000502D57049CB
:10109000794402E06E49794419396B460A98302246
:1010A0001A540A980A7C401C1A54401C0A90019851
:1010B000002801DC302000E031201872019A012064
:1010C000002A02D0634BD21804E072003A4302D0E7
:1010D000604A521C0192002D02DC2278120703D5CF
:1010E0006A462E20507202200022864694460CE06A
:1010F00032033601120F6D1E8B5C02AA1354624636
:10110000521C401C9446052A01DA002DF0DC002216
:1011100002AE08E03B0F3F01CB5C521C6D1E335406
:10112000401C082A01DA002DF4DC2278920601D551
:101130000FE0401E704504DD3218203AD27F302A7D
:10114000F7D0002805DD3218203AD27F2E2A00D1B0
:10115000401E002D03DD3E223254401C6D1E497C92
:1011600031540199401C002906DA2D21471C3154C5
:1011700001984042019003E02B21471C3154019813
:101180007D21C900884206DBFFF7F4F93030F055C5
:101190007F1C019101E0642808DB01986421FFF7BE
:1011A000E9F93030F0557F1C019101E00A2806DB97
:1011B00001980A21FFF7DEF93030F0557F1C0198C5
:1011C0000A21FFF7D7F93031F1550A98A1697F1C40
:1011D0007A191018081AA0612078C00602D4204697
:1011E000FFF76EFA216A6E460A980818206204E03A
:1011F00062683078A168761C90470A98401E0A9071
:10120000401CF5D12078C00602D52046FFF758FAD9
:1012100002AE09E03078761C3E280DD06268A168E5
:101220009047206A401C20627F1EF3D22046FFF7C1
:101230005DFA0DB00320F0BD206A4019206203E082
:101240006268A168302090476D1EEDD3F8E700007A
:10125000A33A000001FCFFFF10B54369002B02D048
:10126000C046C04601E0FFF764FA012010BD1278C5
:10127000014624310A7000224A700122ECE711680D
:101280000022D243E8E710B54369002B02D0C046E4
:10129000C04601E0FFF700FB012010BD12880146A7
:1012A000243182840022C2840122ECE711680022EA
:1012B000D243E8E770B516460C46054600F03AF80A
:1012C0000368FF200230C05C012807D0FF2C0ED835
:1012D000185D00280BD001202C7070BDFF33324602
:1012E000214608331868C3182846984770BD002067
:1012F000C04370BD754600F02BFBAE460500694645
:101300005346C008C000854618B020B5FEF7B2FFAE
:1013100060BC00274908B6460026C0C5C0C5C0C588
:10132000C0C5C0C5C0C5C0C5C0C5403D49008D468B
:101330007047000010B500F005F8001D10BD00BF9B
:101340001537000000487047600D0020F8B51F46B3
:10135000044601230068DB02032601461840072AE1
:1013600005DB002801D017A506E017A504E000283A
:1013700001D016A500E016A5102081432160A069C8
:10138000C01E002FA06101D0401EA0612046FFF7C3
:1013900097F9002F09D038466268A1689047206A03
:1013A000401C2062C01C206206E0206AFAE76268E6
:1013B0002878A1686D1C9047761EF8D22046FFF76A
:1013C00095F9F8BD4E414E006E616E00494E4600E3
:1013D000696E6600F7B516468AB02F4878446C46A9
:1013E00003467C33C06F5A689B680DC42A48784412
:1013F000763003AC0DC80DC43720C0010818372162
:101400001B30FFF7B7F805460C46803D1B3C02D564
:101410006442012000E00020002709900FE0E0076F
:101420000BD00C201C497843794432464C39411882
:10143000684600F02EFA6B4607C364107F1C002C30
:10144000EDD1154F7F442C3F15E0E80711D0200166
:10145000C0190EC80691089307920068F04201D1A6
:1014600098190890324606A903A800F012FA03ABB7
:1014700007C36D10641C002DE7D1324669460998F8
:10148000002803A802D000F02EFA01E000F001FAD3
:101490000A9B07C30DB0F0BD6C3700000346400047
:1014A0000A4610B5400D0BD00121C9070F24A40234
:1014B00000191C0364082143540D2143D20207E0A4
:1014C00000210120F2E7D40F490021435200401EC1
:1014D0000029F8DADB0FDB07184310BDFFB50D4616
:1014E000144685B04868516802F081FD0091019072
:1014F000A868A16802F07BFD02910390A86861686A
:1015000002F075FD029A12188242029201D2012065
:1015100000E00020019A0B18D2180028019202D096
:101520008A4202D903E08A4201D2012000E0002071
:101530000099081800906868A16802F058FD029AA6
:1015400012188242029201D2012000E00020019A8A
:101550000B18D2180028019202D08A4202D903E067
:101560008A4201D2012000E0002000990818009072
:101570002868216840004900400849084018EE49A1
:10158000471814E001994000C90F084300900198E2
:1015900002994000C90F0843019002980399400046
:1015A000C90F08430290039840007F1E03900098E3
:1015B0000028E7DA0898002801D0E04E00E0002675
:1015C000B74228DAF71BF806C00E15D0029B20217F
:1015D000091A039A8B401A430392029A019BC24054
:1015E0008B401A430292019A009BC2408B400099A3
:1015F0001A430192C14000917A110BD06B4603202F
:10160000811A01D5002101E0890059588700401E48
:10161000D951F5D5374603980299002800D001200A
:10162000014308980291002808460CD0002800D0F9
:1016300001200199019A490508430121D20AC902F2
:10164000D202019200E001210E9B0122D207012B60
:1016500002D0002B03D013E0002807D116E09042FF
:1016600004D890420CD1019B0B4209D0019B591820
:10167000019105D10099491C009101D17F1C009274
:10168000002803D0102108460020C04628682168A1
:10169000019B009A4840C10F0598C90739430EC005
:1016A00009B0F0BDFFB587B0099A0898089953684A
:1016B00092684068896896460022039317469446CC
:1016C000089A12685300099A5B081268520052087F
:1016D0009A1A9B4BD4180A9A002A01D0352200E0AE
:1016E000402206920022012315460492DB0705934F
:1016F00024E0002D05D175460346039E4D1BB341E2
:1017000009D375466646039B491B049D9841059B7A
:101710007519AC465F4163463B4308D0059B049E68
:10172000DD0776082E435B080496059301E0521E00
:10173000641EC50FED0749184041521C069B9A4292
:10174000D7DB002D04D17546039A6B1A824101D272
:1017500003200CE0039A0B466B404240134303D036
:10176000014303D0012002E0022000E00020614696
:1017700001910021009702910A99002905D0614644
:10178000400201436D4B019102E08007002302906B
:101790009C423ADA1A1BD006C00E15D0029D2021B9
:1017A000019C091AC5408C402543029C8C4000D006
:1017B00001242543019C02953D46C4408D40394695
:1017C0002C43C1400194009154111DD06D4602215B
:1017D000002202290CD10320001B07E0002804DBB3
:1017E0008600AE59002E00D00122401C0328F5DBF4
:1017F000081B02D588002A5004E0800028581043B6
:101800008A00A850491EE3D51C460A980028029871
:101810000CD0002800D001200199019A4905084305
:101820000121D20AC902D202019200E00121109BDB
:101830000122D207012B02D0002B03D013E0002895
:1018400007D116E0904204D890420CD1019B0B4284
:1018500009D0019B5918019105D10099491C0091AB
:1018600001D1641C0092002803D0102108460020FA
:10187000C04608980999019A00680968484000998B
:10188000C30F0798DB0723430360826041600BB0FE
:10189000F0BD1FB5002300920A46014601A8FFF7DC
:1018A0001DFE01AB07CB04B010BD1FB50123009294
:1018B0000A46014601A8FFF711FE01AB0F2407CB32
:1018C000A402C30F4000DB074008001B002900DB17
:1018D0000020490000054908CC0A20434905184367
:1018E000D20A1143DFE71FB5002300920A460146E2
:1018F00001A8FFF7D7FE01AB07CBD4E71FB5012343
:1019000000920A46014601A8FFF7CCFE01AB0F2466
:1019100007CBA402C30F4000DB074008001B0029CF
:1019200000DB0020490000054908CC0A2043490596
:101930001843D20A1143B6E702C0FFFF013C000082
:10194000FF3F00000446C046C0462046FEF782FC2A
:1019500000487047400D0020024670B50A439207C8
:101960002AD11E4DEE0104C808C9541B94433440CB
:1019700017D0D0B2D9B2401A2106014310D190B28B
:1019800099B2401A210401430AD110021902000A37
:10199000090A401A2102014302D1100E190E401A01
:1019A00070BD9A42DFD010BA19BA884201D901201D
:1019B00070BD0020C04370BD02780B78401C491CEC
:1019C000002A09D09A4207D102780B78401C491CA2
:1019D000002A01D09A42EFD0D01A70BD0101010156
:1019E00001491820ABBEFEE726000200704710B583
:1019F0000524240700221021204600F03AFB022093
:101A000002F0B2FA01221021204600F032FB10BD94
:101A100010B50524240700221021204600F029FBE0
:101A2000032002F0A1FA01221021204600F021FB40
:101A300010BD70B505240D4606462407012210216D
:101A4000204600F016FB01222021204600F011FB69
:101A500001220421204600F00CFBFFF7D9FF2946A4
:101A6000304600F015F800F001F870BD10B50524FF
:101A7000240700221021204600F0FBFA082002F083
:101A800073FA01221021204600F0F3FA10BD000085
:101A900010B50F4A030002F0C2FA05040614161826
:101AA0000800812000E0912010705170102090708B
:101AB0000020D070064A042102F075FA02F05DF9A8
:101AC00010BDA120F0E7B120EEE70E20ECE700000A
:101AD0003D00002010B50120000300F011FA10BDF8
:101AE00072B6FEE70448006AC0B2AA2802D0CC2829
:101AF00000D0BB2070470000002002400248006A6E
:101B000002490840704700000020024000FF4F3F9C
:101B100030B5044C236AFF25284383430B4313430A
:101B2000236230BD0020024070B5064600F0A8FADE
:101B30008419114D03E000F0A3FAA04214D22869E1
:101B4000C043C003F7D529690C480140296103D07F
:101B50000B484160012070BD00F092FA841905E045
:101B600000F08EFAA04201D3032070BD2869C04363
:101B70004003F5D5002070BD00200240FAC30000EC
:101B8000280D002000B58FB0684600F07DF806985B
:101B9000C10110D5012109068843069000F084F99F
:101BA00000F06EF9684600F0BFF800F051F900F05F
:101BB00059F900F03FF90FB000BD000070B50524E1
:101BC0000D4624070821204600F04EFA0028F9D1DE
:101BD00002F092F80446002D01D1FFF708FF0748F4
:101BE000210206D501210170E0430402240A641C8D
:101BF00001E000210170204670BD00003C00002083
:101C0000F8B501460024203101230B714A79022ADC
:101C100003D00421C16301242DE0026815680E265B
:101C2000B5431560026815686D086D001560426C5B
:101C30001568FF260136B5431560104E7268056CB5
:101C40001C273D401F46AF403A437260826CC56C12
:101C50005560026D002A07D01668FF250135AE4396
:101C60001660426D856D55604B7100220A71816B63
:101C7000002900D088472046F8BD0000000002403F
:101C8000203040797047000070B50446072020607E
:101C90006068224D01283AD0286BC006C00EA060B3
:101CA000286BC002C00EE060FFF71CFF2061FFF749
:101CB00025FFA0611A486061686A01224006000C95
:101CC000D20680182062A86A164B4106090CC91872
:101CD0006162E169C00F49004908C0070143E16141
:101CE000686B4006000C8018A062A86B4006000CD0
:101CF000C018E062032001430848E16180300068B9
:101D0000D11201408006800E2163606370BDE86AD5
:101D1000C006C00EA060E86AC3E7000000200240D1
:101D200000FF4F3FFF010008F8B504463C4801782A
:101D3000012910D001210170002141602078394D26
:101D4000C0070DD06268A168E068012A05D00004D0
:101D50000843286304E00220F8BD00040843E86259
:101D600020684107890F032906D0810706D5FFF7B0
:101D7000C5FE0146226908E0226904E0400706D555
:101D8000FFF7B0FE0246A1696069FFF7C1FE207847
:101D9000000722D52448E169244F014212D0236A6A
:101DA000626AA86ACE0707D0DB195B0AD219520A09
:101DB0006B62C009C0011043002902DA0121C90782
:101DC0000843A862207F800707D5A16AE06AC91985
:101DD000490AC019400A6963A8632078C00609D57A
:101DE000104B626B8033216B1868114C2040084304
:101DF000104318607D24E4002046FFF795FE00287C
:101E00000AD1686901267604304368612046FFF7ED
:101E10008BFE6969B1436961014A00211170F8BD07
:101E2000280D00200020024001000080000000F882
:101E3000C0FFFEFF054901204A69C3071A434A61F2
:101E40004969002900DA00207047000000200240A4
:101E5000034841690122D2061143416101207047C4
:101E600000200240054901204A6983071A434A615C
:101E70004969490000D50020704700000020024059
:101E8000064901204A69520007D5054ACA60054A39
:101E9000CA604969490000D4002070470020024010
:101EA0003B2A19087F6E5D4C064900204A69002ACA
:101EB00007DA054A8A60054A8A604969002900DA1A
:101EC000012070470020024023016745AB89EFCD18
:101ED000012110B5090388420CD102F069FB0028EA
:101EE00008D105484178092904D1002141700348EF
:101EF00000F0DEFE10BD00000000002018030020EE
:101F000070B5084D0446E868204203D0EC602046D6
:101F100000F00AF82869204203D02C612046FFF720
:101F2000D7FF70BD0018024070470000F0B50022D6
:101F30008CE001249440A44623407DD04C68022CC0
:101F400001D0122C0ED1D408A40027183D6A5407E2
:101F5000E40E0F26A640B5430E7C3607360FA6408A
:101F60002E433E62066855000324AC400F79A64319
:101F7000BF07BF0FAF40374307604E68012E05D043
:101F8000022E03D0112E01D0122E0ED18668CF68FA
:101F9000A643AF403743876047686646B7430E792C
:101FA000F606F60F96403E4346604E68032E05D077
:101FB000C668A6438C68AC403443C4604C68E400F7
:101FC00043D59508244CAD002F193D6E9407E40EBF
:101FD0000F26A640B54305263607B04201D100269C
:101FE0000FE01E4EB04201D101260AE01C4EB04265
:101FF00001D1022605E01B4EB04201D1052600E0CA
:102000000626A6402E43144D3E66134E8036346895
:102010004F689C43FF0300D51C43346074684F68CD
:102020009C43BF0300D51C4374602C684E689C43DE
:10203000F60200D51C4300E007E02C606C684E6897
:102040009C43B60200D51C436C60521C0B681C46B6
:10205000D44000D06DE7F0BD0018024000040050ED
:1020600000080050001400500069084000D0012012
:102070007047002A01D0816170478162704700007B
:1020800001488068704700006800002070B5024673
:1020900040325378202B1CD11378012B19D0012406
:1020A00014702423537003681D68A5431D600368E2
:1020B0001D682603B5431D6003681D680D431D6040
:1020C00000680168214301602020507000201070DA
:1020D00070BD022070BD70B5024640325378202B8F
:1020E0001BD11378012B18D00125157024235370B0
:1020F00003681C68AC431C6003681C680F2636022A
:10210000B443090221431960006801682943016052
:10211000202050700020107070BD022070BD7047EC
:1021200010B50C4B02689A420AD101230A4A1B06D9
:10213000002906D0116AD2788918012200F0B2F97C
:1021400010BD91780029FBD003490122C91C00F081
:102150003FF910BD005400404400002070B50368F2
:102160009A691968D243D40508D4CC43240605D40F
:10217000446C01252C4344642C02DC61530509D4D2
:10218000CB431B0606D4436C082423434364E3017A
:102190000468E361920509D4C943090606D4416C79
:1021A00002221143416411020268D161416C0B2289
:1021B000114201D000F0ECFF70BD02689169126815
:1021C000436B002B00D018477047000010B5014644
:1021D00040314A78202A01D0022010BD28224A70BE
:1021E000034941630121C90300F046FF002010BDEF
:1021F000293900087047000070B5040006D0254654
:10220000403568780026002802D005E0012070BD26
:102210002E70204600F064F8242068702068016861
:102220004908490001600F21606809068843216858
:102230000861206882680121C9038A438260E068DE
:102240000128A0682FD021229202104322689060BA
:102250000122E068D20202282068436825D0934317
:10226000436020684268124B1A4342602068C2688B
:102270008A43C260616920690843A1690902084371
:102280002168C860216AE069084321680860206805
:102290000168012211430160666420206870266392
:1022A000AE70002070BD0843D0E71343D8E70000AC
:1022B0000080000210B5064A0168914206D1054926
:1022C00001228A700022CA70FFF780FF10BD000053
:1022D000005400404400002070477047704770472A
:1022E00030B58DB0044614216846FEF737F91C213D
:1022F00005A8FEF733F91A49206888422ED14020FC
:1023000000250590089505A800F098F9002801D04F
:10231000FFF7E6FB134C616B022001436163616BC5
:1023200003950140C0200090122001900C910620DE
:102330000490029569460C48FFF7F8FDE16B012017
:1023400040050143E163E16B002201400C9111461D
:10235000172000F06FF9172000F060F90DB030BDC4
:1023600000540040001002400004005010B50B4A19
:102370000168914211D10A498A78002A02D00022CC
:102380008A7002E0CA78521CCA700A6AC9780123AE
:1023900051181B06012200F01BF810BD005400402C
:1023A0004400002010B5084A016891420BD1074A49
:1023B0000123D1781B06491CC9B2D170126A511889
:1023C000362200F06FF810BD005400404400002099
:1023D000FFB505460F464035697881B0164604467C
:1023E0002820884313D1002F0ED0002E0CD02A496C
:1023F000204600F017FE287801280BD00120287015
:102400006878292808D021E001204002606401207A
:1024100005B0F0BD0220FBE70121204600F002FEDE
:1024200020680168490411D5016801229203914393
:102430000160A06B002809D018498163A06BFFF7E9
:10244000DFFB002802D0A06B816B88472A206870D0
:102450002020A87000216164206842680123DB030A
:102460009A43426067626685608D20850498E062C9
:102470000B4860632068826983691207D20FDB030F
:1024800003D4002A01D00822C261297002492046E3
:1024900000F0F2FD0020BBE70280000009300008D8
:1024A00029390008FFB505460F464035697881B0E7
:1024B000164604462820884313D1002F0ED0002E44
:1024C0000CD02B49204600F0ADFD287801280BD018
:1024D0000120287068782A2808D021E001204002D5
:1024E0006064012005B0F0BD0220FBE70221204618
:1024F00000F098FD20680168090411D502680121E7
:10250000C9038A430260E06B002809D0194981633E
:10251000E06BFFF775FB002802D0E06B816B88470A
:10252000292068702020A87000216164206842681A
:102530000123DB039A43426067626685608D2085D4
:102540000498E0620C48606320688269836912071E
:10255000D20F1B0CDB07DB0F03D0002A01D00822AF
:10256000C26129700249204600F086FD0020B9E7CB
:1025700001800000093000082939000802488168FC
:1025800002788918816070476800002010B5002427
:10259000032000F009F8002801D0012401E000F038
:1025A00027F8204610BD000070B50F4E002431788A
:1025B0000546002915D07D20C000FDF7D1FF01465A
:1025C0000A480068FDF7CCFF00F0C4FA002808D1E3
:1025D000042D06D200222946401E00F02BF875601B
:1025E00000E00124204670BD680000207400002037
:1025F00008B50948016801221143016000681040D4
:10260000009005484038C26B01040A43C263C06BA6
:102610000840009008BD000040100240002805DB83
:10262000C106C90E012088400149086070470000BA
:1026300000E100E010B501F015FD10BDFEB500256C
:10264000044600950068404E800342D5002001906A
:102650003D484038C06BC00009D43B484038C26B8D
:1026600001040A43C263C06B084001200190F06975
:102670000321090208400FD0A16981420CD0F06902
:1026800003210902F2698843012109040A43F26126
:10269000F2698A43F261F061C0074DD0FFF7F0FCA8
:1026A000074607E0FFF7ECFCC11B2848814201D92F
:1026B000032504E0F0698007F4D5002D3CD0009597
:1026C0000198002805D020484038C26B01048A4395
:1026D000C2632078C00705D07069A16880088000B7
:1026E000084370612078400606D57069032109030C
:1026F0008843E168084370612088400405D570690B
:10270000616980008008084370612088000506D553
:102710007069032189038843216908437061206837
:10272000002807DA084840380168E02291436268CF
:10273000114301600098FEBDF0690321090288433E
:10274000A1690843F061BBE7401002408813000014
:10275000F8B50D4604004BD04F4800684007400FC5
:10276000A84214D24C4F3868C008C00028433860D3
:10277000FFF786FC064605E0FFF782FC811B474811
:10278000814264D838684007400FA842F4D12068DD
:10279000434E810710D5400707D5B06807210903CC
:1027A00088430B2109020843B060B0680F21090279
:1027B0008843E1680843B0602078C00732D03068B1
:1027C0001C218843A168084330606068012808D054
:1027D000002809D03249403103280BD0C969890744
:1027E00004E03168890301E031684905002903DB11
:1027F0000120F8BD096AF2E7B168C908C9000143C0
:10280000B160FFF73DFC074605E0FFF739FCC11B4F
:10281000224881421BD8B068382108406168C9004D
:102820008842F2D11C4801684907490FA94216D9CC
:102830000168C908C90029430160FFF721FC074668
:1028400007E0FFF71DFCC11B1448814201D903209A
:10285000F8BD114800684007400FA842F1D1207828
:10286000400706D5B068072109038843216908435A
:10287000B06000F01DF8B1683C2289091140094A96
:10288000515CC906C90EC84007490860074800687E
:10289000FFF78AFEF8BD0000002002408813000008
:1028A00000100240A04A0008740000206C000020C4
:1028B00010B5134881688906490F10D081688906D0
:1028C000490F012914D081688906490F042911D0C4
:1028D00080688006400F03280FD0002010BD0068DC
:1028E00001218004400F81400648FDF739FE10BDEC
:1028F000054810BD0120C00310BD7D20000210BDA1
:1029000000100240006CDC0200127A00F8B50400EE
:1029100077D020783827C007864D002839D0A8689E
:1029200038400828606806D001210904884205D192
:102930002868084310E00028EAD02AE00523012295
:102940001B0492049842286802D110432860EFE7E4
:1029500088432860286890432860606800280CD06D
:10296000FFF78EFB064604E0FFF78AFB801B642816
:102970007AD828688003F7D50BE0FFF781FB06467D
:1029800004E0FFF77DFB801B6428F1D828688003F2
:10299000F7D42078800753D5A86868493842664F35
:1029A0001ED1E06800282CD068686269B843120222
:1029B00010436860286888432169084328602868B4
:1029C00001218004400F81405D48FDF7C9FD5D494C
:1029D00008605D480068FFF7E7FD00287FD12FE021
:1029E000FF20E2680130002A1BD02A688A4321694F
:1029F0000A432A60296801432960FFF741FB064624
:102A000005E06CE0FFF73CFB801B02282CD828680F
:102A10004005F7D568686169B843090208436860F2
:102A20000EE0296881432960FFF72AFB064604E08F
:102A3000FFF726FB801B02286ED828684005F7D4D4
:102A40002078424E00072BD5A8688006400F032847
:102A5000A0690AD00028306A13D0012108433062EF
:102A6000FFF70EFB074608E056E0002837D017E0D6
:102A7000FFF706FBC01B02284ED8306A8007F7D547
:102A80000EE0400840003062FFF7FAFA074604E023
:102A9000FFF7F6FAC01B02283ED8306A8007F7D449
:102AA0002078400744D5A86800278006400F0428F6
:102AB000A06812D0012814D004210528F06914D090
:102AC00040084000F061F0698843F061A068002888
:102AD00018D0FFF7D5FA044610E0002828D10120CD
:102AE000F8BDF06901210843EFE70843F061F8E71A
:102AF000FFF7C6FA011B164881420DD8F06980071E
:102B0000F6D50EE0FFF7BCFA044607E0FFF7B8FA87
:102B1000011B0F48814201D90320F8BDF0698007ED
:102B2000F4D4002F04D0E86B012109078843E8633F
:102B30000020F8BD00100240007F000000380000B7
:102B4000006CDC02740000206C0000204010024089
:102B500088130000094910B5401E884201D90120A0
:102B600010BD074C60610321081F01F07BFA0020B3
:102B7000A06107202061002010BD0000FFFFFF00C2
:102B800000E000E07047704770470000F0B5024673
:102B90002032137F012B23D0012313770223537795
:102BA00004686368A5680F4EB44204D10F273F053F
:102BB000BB434F683B437027BB430F681F436760AD
:102BC0000068B04202D0084B984204D18023896843
:102BD0009D43294381600120507700201077F0BD8C
:102BE0000220F0BD002C01400004004070B504003C
:102BF00005D025462035687F002802D006E0012058
:102C000070BD00202877204600F016F80220687773
:102C1000211D206801F010F9012240342272AA77A8
:102C2000EA7722706270A270E27022716271A27102
:102C3000E2716A77002070BD08B50068184A19492A
:102C4000904207D10A68C01402430A600968014033
:102C5000009108BD144A90420FD112484038C26B0F
:102C600002210A43C263C06B002208400090114653
:102C70001020FFF7DFFC10200FE00C4A9042E8D153
:102C80000A68C01302430A600968002201400091EB
:102C900011461320FFF7CEFC1320FFF7BFFC08BD41
:102CA000002C014040100240000400400020004081
:102CB000014620314A7F012A01D0012070470222BB
:102CC0004A770168CB6801221343CB600068094949
:102CD000884202D00849884207D18168074B1940D1
:102CE000062905D0DB1F994202D00168114301601B
:102CF00000207047002C0140000400400700010044
:102D00000168CA6852085200CA6001680A6A084B22
:102D10001A4207D10A6A9B101A4203D10A68520864
:102D200052000A60012120304177002070470000E6
:102D300011110000F8B5054604462035287F00260D
:102D4000012817D001272F77022068772068826832
:102D50002E4B1A40FF231B029A43826008685028BA
:102D600036D00EDC20284DD006DC00284AD01028B2
:102D70001ED147E00220F8BD302843D0402817D1AB
:102D800038E060282CD0702818D001221203801A55
:102D90000FD090420CD1CB684A688968206801F056
:102DA00089F820688168012292031143816000E064
:102DB00001266F77002028773046F8BDCB684A6837
:102DC0008968206801F076F8206881687722ECE74E
:102DD000CA684968206801F083F85021206806E03D
:102DE000CA684968206801F08CF86021206801F009
:102DF0006DF8DEE7CA684968206801F071F8402183
:102E00002068F4E7226801461046F0E788FFCEFF0D
:102E100070470000F8B504460068C66805690027D9
:102E2000A907002913DAB10711D5F91E01610120A4
:102E30002077206880698007204602D0FFF7E8FFEE
:102E400004E000F087F8204600F085F8277768074F
:102E500016D5700714D504202168C04308610220EC
:102E60002077206880698005800F204602D0FFF718
:102E7000CFFF04E000F06EF8204600F06CF82777F2
:102E8000280715D5300713D508202168C0430861ED
:102E9000042020772068C0698007204602D0FFF711
:102EA000B7FF04E000F056F8204600F054F827770A
:102EB000E80616D5F00614D510202168C043086135
:102EC000082020772068C0698005800F204602D046
:102ED000FFF79EFF04E000F03DF8204600F03BF8CD
:102EE0002777E80708D0F00706D001202168C04303
:102EF0000861204600F030F8280608D5300606D5CF
:102F000080202168C04308612046FFF73CFEE805A9
:102F100007D5300605D521680D4808612046FFF722
:102F200031FE680608D5700606D540202168C043EA
:102F30000861204600F056F8A80608D5B00606D568
:102F400020202168C04308612046FFF71DFEF8BD20
:102F5000FFFEFFFF7047704770B51C4905460068CB
:102F60000968884227D11A4C6078401CC1B2617050
:102F700009290CD001F01CFB0146012000296178D1
:102F800014D0491E884021780843207013E00F4870
:102F9000FFF7B6FE104A0F4B106821781954401CF9
:102FA0001060202801D30020106070BD491E8840A9
:102FB0002178814321700949286809688842F4D141
:102FC00007490868401C086070BD00001803002015
:102FD00000000020E80C00204C00002064030020CA
:102FE000580000207047FEE710B506480068806969
:102FF0004005400F034802D0FFF7B0F810BDFFF7BF
:10300000DCF810BD7802002010B5806A0022816BC8
:10301000002900D08A63C16B002900D08A6300F0C8
:1030200031FD10BDF0B503460022CE074033282401
:10303000B025002E05D05E7842222746B74300D047
:10304000F2228E0705D544265B7832439C4300D09C
:103050002A43CB0B01D0B8231A43102908D02029CA
:1030600007D0402905D00068016891430160F0BD98
:1030700090210A43F7E70000F0B51A4C436B002299
:10308000F225F4269027A34213D0174CA34210D068
:10309000164CA3420DD0CB0B00D0B822CB0700D0EA
:1030A0002A438B0700D53243102912D0202913D090
:1030B00013E0CB0B00D0B822CB0700D02A438B07FC
:1030C00000D53243102904D0202904D0402903D050
:1030D00003E03A4301E060210A43006801681143BC
:1030E0000160F0BDE135000815380008ED36000834
:1030F00001688A69D243920701D400228A6200687B
:103100008169C943C90703D08169012211438161E3
:103110007047F8B505460446403568782821814354
:10312000206804D00821C16100202870F8BD8169A1
:10313000C903CF0F8169FE230E0C81681E408A05EA
:10314000C168920D19408C46E168022916D106210A
:10315000D3090E400B409E420FD1A16C491CA164C3
:10316000A16C0229E2D10021A1640823C361297066
:1031700039462046FEF7D4FFF8BD66460121C90353
:103180002046FFF74FFF002028703246F0E700008E
:10319000F8B505460446403568780026AE703D4ACD
:1031A000E2626685626C0A436264282832D029286C
:1031B00030D02A282ED038492046FFF733FF20464A
:1031C000FFF796FF6878602812D020216970206888
:1031D0008269D24392060BD48269D243D20605D4C7
:1031E0001022C261606C0422104360642068C161D7
:1031F0006663206BA16B294F002903D0112812D0E0
:10320000212810D0E16B002925D0122827D02228B0
:1032100025D020E003212046FFF704FF2820687016
:103220001F486063E5E720680168490404D5016828
:103230000122920391430160A06BFEF721FD01285A
:1032400009D0A06B87632E70A06BFEF7D9FC002815
:1032500004D0A06B1AE0204600F014FCF8BD2068F2
:103260000168090404D501680122D2039143016079
:10327000E06BFEF705FD0128EDD0E06B87632E7053
:10328000E06BFEF7BDFC0028E8D0E06B816B88475F
:10329000F8BD00000000FFFF0380000009300008B7
:1032A0002939000870B504461548E06200262663F7
:1032B0002020254640356870AE70C84366634007DD
:1032C00012D42068406A616A0870606A401C6062BB
:1032D000208D002808D0401E2085608D401E60850E
:1032E000606C04210843606406492046FFF79AFE9B
:1032F00021681020C8612E702046FEF7DBFF70BDEC
:103300000000FFFF03800000F8B50546009100684B
:103310002026C6612C4640346078212803D060788E
:10332000222806D00BE001212846FFF77BFE112062
:1033300004E002212846FFF775FE12202863286862
:103340004168254A11404160002724486F63E862C4
:103350000098C043C10606D42A681021D161696C67
:103360000422114369646178602905D1400703D4C0
:103370002868406AC0B200902846FFF7B9FE686C22
:103380006178602901D0002804D0696C2846FFF7D5
:10339000FFFEF8BD607821280DD060782228F8D192
:1033A00066702F63A078A77040282770284610D039
:1033B000FEF792FFF8BD66702F63A078A7704028D3
:1033C0002770284602D0FEF788FFF8BDFEF787FF7A
:1033D000F8BDFEF783FFF8BD00E800FE0000FFFF28
:1033E00070B50026054640350446AE706978202049
:1033F000212968700BD012202063022120466663C9
:10340000FFF710FE2E702046FEF766FF70BD1120FC
:103410002063012120466663FFF704FE2E702046DC
:10342000FEF75BFF70BD0000F8B502680E46176836
:1034300004460546403568782021D161212808D00E
:10344000292806D022280AD02A2808D028280DD0DA
:1034500013E045492046FFF7E5FD21200CE04249F5
:103460002046491CFFF7DEFD222005E03E492046AC
:10347000891CFFF7D7FD00202063206841680122E6
:10348000D2031143416020684168384A11404160CD
:103490002046FFF72DFEF843410407D42068016859
:1034A0000122920391430160A06B08E000040BD459
:1034B000206801680122D20391430160E06B00287B
:1034C00002D0006840686085F0434007042100286E
:1034D0000FDB20688E43406A626A1070606A401C8D
:1034E0006062208D002804D0401E2085608D401E23
:1034F0006085608D002802D0606C084360640027FE
:10350000AF706763606C00280BD0616C2046FFF7DA
:103510003FFE6878282803D131462046FFF7C2FED7
:10352000F8BDE06A124EB0420BD0204600F022F8FF
:10353000E6622020687027632F702046FEF7BAFEEF
:10354000F8BD6878222807D02020687027632F7084
:103550002046FEF727FFF8BD2020687027632F70F4
:103560002046FEF703FFF8BD0180000000E800FEE2
:103570000000FFFF70B505460068016800262C4674
:103580004034A670C9434A0403D40168012292035F
:1035900004E0090404D401680122D20391430160CC
:1035A0006178282029290ED061782A290AD16070F3
:1035B0002220286302212846FFF734FD2670284682
:1035C000FEF7D4FE70BD60702120286301212846DB
:1035D000FFF728FD26702846FEF7E4FE70BD0000C8
:1035E000F8B50546044640352878012817D0012053
:1035F0002870CB43DE06D043002E12DBC20610D467
:1036000021681020C861606C042108436064202197
:103610002046FFF731FD2046FFF76AFD5FE00220FC
:10362000F8BD304A304E1F0637D4470635D42068DF
:103630000168402399430160608D0028206840683C
:1036400028D08105608D890DFF2803D9FF202085B2
:103650009B0408E0608D2085E06A904201D0E36A17
:1036600001E001235B0600200090208DC2B22046BD
:1036700000F0F2F9608D218D401A6085687822286B
:103680002068016802D03143016028E00122D203A2
:103690001143F9E7800117D506E05F0618D4470605
:1036A00016D4608D002804D040212046FFF770FD1D
:1036B00015E020684168890111D4E16A914203D183
:1036C0004168314341600AE02046FFF789FE06E089
:1036D0009A0604D4800602D42046FFF715FE002087
:1036E0002870F8BD0000FFFF00400000F8B5054657
:1036F000044640352878454E012818D0012028700E
:10370000C843C3060027D243002B12DBD30610D4D4
:1037100021681020C861606C042108436064202186
:103720002046FFF7A9FC2046FFF7E2FC6BE00220F1
:10373000F8BD830708D4930706D4206D21688862FA
:103740000020C04320655EE0030630D453062ED42B
:1037500001212046FFF766FC10212046FFF78CFC74
:10376000608D00281ED0608DFF2803D9FF2222859E
:10377000009732E0608D2085009736E0204600F00B
:103780006BF9608D218D401A608568782228206849
:10379000016802D00122920301E00122D203114309
:1037A000016030E040212046FFF7F2FC2BE04306A9
:1037B00022D4530620D401212046FFF733FC1021E8
:1037C0002046FFF759FC6878222800D1104E608D02
:1037D000FF2807D9FF2222850096E06C012381B2E1
:1037E0001B06CBE7608D20850096208DC2B2E06C71
:1037F000012381B25B06C1E7800604D4900602D49F
:103800002046FFF781FD2F700020F8BD00200080CA
:1038100000240080F7B5C76A82B00446002026461F
:10382000403601903078012823D001203070039871
:10383000D543C04300908006002805DBA80603D4CA
:1038400020460399FFF7F0FD0098C0065FD4E80614
:103850005DD468041021002801DA280454D4E06BF8
:1038600000280BD02A0409D400684068002803D03F
:1038700004E0022005B0F0BD01200190A06B0028FB
:1038800005D06A0403D400684068002802D001987B
:1038900000281BD07078282808D1012040068742D4
:1038A00004D120460399FFF7FDFC39E07078292800
:1038B0002AD101200004C74226D02068C1612046D9
:1038C000FFF716FC2046FFF755FE29E02068C1618E
:1038D000606C0421084360647078002F02D0890571
:1038E0008F421DD1212806D0292804D0222804D0B7
:1038F0002A2802D003E0212000E022202063616C0E
:103900002046FFF745FC0BE02068C16108E0009805
:10391000000705D4280703D420460399FFF7F9FBD5
:1039200000203070A6E70000FEB5C56A04460746D1
:10393000403701913878012828D00120387001984B
:10394000D643C04300908006002805DBB00603D4B0
:1039500020460199FFF768FD00983D493D4AC006A1
:1039600030D4F0062ED4638D1020002B10D02168A7
:10397000C861606C042108436064002D01D0954249
:1039800062D1616C2046FFF703FC5DE00220FEBDC2
:103990007A78282A08D101225206954204D120467D
:1039A0000199FFF77FFC4FE07A78292A07D18D42F1
:1039B00005D02168C8612046FFF79AFB41E02168E5
:1039C000C86141E00098400717D4700715D4608D96
:1039D00000280CD02068406A626A1070606A401C3F
:1039E0006062208D401E2085608D401E6085608D48
:1039F000002829D18D4224D126E00098000706D462
:103A0000300704D420460199FFF783FB1CE000989F
:103A1000800719D4B00717D4608D00280DD0606AD4
:103A2000216800788862606A401C6062608D401E78
:103A30006085208D401E208506E0954201D0002D36
:103A400002D12046FFF796FD00203870FEBD000031
:103A50000000FFFF0000000110B58905890D120468
:103A60001143029C194300682143490042684908F8
:103A7000630D034C23439A430A43426010BD000088
:103A8000FF63FF0310B5014640314B780022602BE5
:103A900004D002630A70FEF7ADFB10BD20234B700B
:103AA00002630A70FEF73BFB10BD000070B586B0E4
:103AB00014216846FCF752FD1D48416B0124214347
:103AC0004163416B21400591426B02210A434263ED
:103AD000406B184D08400526360705900022294600
:103AE0003046FEF7C6FA0095002501940294694617
:103AF00030460395FEF71AFA482000900195694672
:103B000002953046FEF712FA200300900A48019011
:103B1000694602943046FEF709FA00221146072052
:103B2000FEF788FD0720FEF779FD06B070BD0000A6
:103B300000100240B42900000000211010B5144804
:103B40001249016013494160082181600121C1606F
:103B50000021016141618161C1610162FEF74CFB9D
:103B6000002801D072B6FEE700210948FEF78EFA60
:103B7000002801D072B6FEE700210548FEF7ABFA37
:103B8000002801D072B6FEE710BD000000540040CE
:103B9000780200205D3E302010B588B000240094EB
:103BA00001941848029403940494059414490694CB
:103BB00001602F2184604160046144611249846185
:103BC000C160FFF713F8002801D072B6FEE70120AC
:103BD0000003009069460B48FFF7ACF8002801D0BD
:103BE00072B6FEE70494059404A906480694FEF70D
:103BF000CDFF002801D072B6FEE708B010BD00006E
:103C0000002C0140CC020020FEFF000010B588B05F
:103C1000002400940194174802940394049405949A
:103C20001349069401602F218460416004611A21C8
:103C30008461C160FEF7DAFF002801D072B6FEE7AA
:103C400001200003009069460A48FFF773F8002836
:103C500001D072B6FEE7049404A906480694FEF764
:103C600095FF002801D072B6FEE708B010BD000035
:103C70000004004018030020FEE7704770B51B4C9D
:103C800061685B2914DD012040020025814210DBC0
:103C9000174A07231B026560606881008D18ED18C4
:103CA000ED68401C555060603C28F5DB3C206060AE
:103CB00070BD0F4800F000FA61680D48233900F02C
:103CC00041FCE0613C28F3DD0146094800F0A2FA1E
:103CD0000028EDDD074A61785054491C61700121CC
:103CE000C902501A6560FCF739FC70BD4400002021
:103CF00068040020680C002070B505252D070022FF
:103D000010212846FEF7B5F9102000F02DF900F03B
:103D100011F8044600F00EF8064600F00BF82102F8
:103D200031430C020443012210212846FEF7A1F979
:103D3000204670BDF8B50526360700222021304602
:103D4000FEF797F900250127012220213046FEF7D2
:103D500090F96006040E40213046FEF785F90028F0
:103D600000D03C43002220213046FEF782F96D1C32
:103D7000EDB2082DE8D32046F8BD70B505252D0716
:103D8000002210212846FEF774F9232000F0ECF8F9
:103D90000024FFF7CFFF641CE4B2042CF9D3012206
:103DA00010212846FEF765F970BD704710B5FEF783
:103DB000E5FB10BD10B58CB01C216846FCF7CEFBAE
:103DC000142107A8FCF7CAFB02200090C001039051
:103DD00040200024059004946846FEF797FD0028D3
:103DE00001D072B6FEE707200790089409940A9460
:103DF00001210B9407A8FEF7ABFC002801D072B696
:103E0000FEE70CB010BD000001200249C00688602A
:103E10007047000000ED00E010B50248FEF7FAFF21
:103E200010BD00006403002010B50248FEF7F2FF49
:103E300010BD00001803002070B50268184C194E20
:103E4000A04201D0B04204D1134670254A68AB436A
:103E50001A43154B154DA04208D0B04206D0144E5F
:103E6000B04203D0984201D0A84204D103263602C2
:103E7000B243CE6832438026B2434E693243026079
:103E80008A68C2620A688262A04203D0984201D066
:103E9000A84201D1096901630121416170BD00009F
:103EA000002C014000040040004401400048014053
:103EB0000020004030B58468FF252D021B0213430B
:103EC000AC430B432343836030BD00008268034B47
:103ED0001A400A4307210A43826070478FFFCFFFD1
:103EE00030B5036A046A6408640004628469F025DA
:103EF000AC43120122430A24A3430B4382610362B1
:103F000030BD30B5036A046A1025AC43046284698D
:103F10000F252D031203AC432243A024A343090120
:103F200019438261016230BD0FB470B505AA0C4817
:103F30000499FCF7B1F90A48FCF7D0FA054609489C
:103F4000C1694906FCD50024054E03E0305D00F050
:103F500037FB641CAC42F9D370BC08BC04B01847F2
:103F6000B00300200044004070B50024052605463B
:103F70003607280601D5012200E000220421304640
:103F8000FEF777F86806050E012220213046FEF77D
:103F900070F8002220213046FEF76BF8641CE4B272
:103FA000082CE6D370BDF8B5052715460E46044625
:103FB0003F07002210213846FEF75BF8711EA0076C
:103FC0008907000F890F08434030FFF7CDFF002419
:103FD00005E02878FFF7C8FF641CE4B26D1CB4420A
:103FE000F7D3012210213846FEF743F8F8BDF8B5A3
:103FF000040C8BB2264682B25E43104658430D0C29
:10400000370C360400218019164679416E43370C6F
:1040100036048019264679416E438919F8BD30B4BB
:104020007446641E2578641CAB4200D21D46635D55
:104030005B00E31830BC18474900CA020243100075
:1040400000D004204A0D01D001221043044A490D3A
:10405000914201D102210843012800D10520704777
:10406000FF0700008307FF22DB0E9A408907090E35
:104070009940002808DB830809489B00181803684A
:1040800093430B43036070470007000F0838830811
:1040900004489B001818C36993430B43C3617047DE
:1040A00000E400E000ED00E030380A2801D20120F1
:1040B0007047002070470000F8B54E1E0446214F9F
:1040C0000D460020153D31467E6304E08A00A2586B
:1040D0001018491E7963A942F8DC1421FCF74AFA4A
:1040E000024631467E6308E088002058801A00D5D9
:1040F0004042022824DA491E7963A942F4DC786838
:10410000111A00D5494202291ADB3146801E7E630E
:1041100006E08B00E358834200D21846491E7963BB
:104120000029F6DC101AC10F081840107A603860B8
:104130000A2801DD0A2002E0022801DA02203860A4
:10414000F8BD000004000020F7B50B46002501462D
:104150001F2B4FDD581E00F057F880000F58581ED7
:1041600000F052F880005A1E1E460C581F3E18E000
:10417000104600F049F880000858B84204D21046B2
:1041800000F042F880000F58104600F03DF8800023
:104190000858A04204D9104600F036F880000C58A8
:1041A000521EB242E4DCE01B134AC0B2D074927CCF
:1041B000904201D8142802D9029800281AD05A1E19
:1041C00006E0104600F020F8800008584519521EFD
:1041D000B242F6DC1E212846FCF7CCF9074D044616
:1041E0002869A04203D0214605A0FFF79DFE0020CC
:1041F0002C616861FEBD00005004002044000020D6
:104200004E3A25640A000000002802DAFF30FF3031
:1042100002307047F0B50646880085B002908019DC
:104220008038C06FBE4F85B20C4600200121B860B7
:104230004902BC48FCF792F9601E009078632DD4C7
:10424000384641680068081A0190B54B586B8100E8
:104250008C46725801998A4215D819468968B14F1F
:104260008B00FA50AE4A491C91603C2902DD0020C7
:1042700005B0F0BD61467158A94AA94200D28DB27D
:10428000401E5063E1D5A64EB068052806DBA6495E
:10429000029A5218803AD26FAA4203DCA049002049
:1042A0008860E4E70022201A401E32610CE09E4D37
:1042B00081006B5849194968591A531E994202DD09
:1042C0000A46411C3161401C7063A042EFDB9448F8
:1042D0000021C16005694563002D23DB9048466BD2
:1042E0009148B70038188038C16F0191826F036F11
:1042F0008918426FD2188918C26E806E8918081802
:104300000621FCF737F98849CA5901998A4205DB29
:10431000824203DB8248416BC16003E08048761E25
:104320004663DBD521461E317D4800264161009958
:1043300018344163029424E07B48A7003818416890
:104340000191826803698918C268D2188918426984
:104350008069891808180A2148430621FCF70AF9E0
:10436000064671480199C059884207DB0A21484333
:10437000B04203DB6A48416B416107E06848641C56
:10438000446367480299446B8C42D5DB644800243F
:1043900085610099416314E063498300CA58591844
:1043A0008039CB6F671ED11AB94202DD5C4F0C46D3
:1043B000B8615B499A4202DC8A69AA4205DC401E68
:1043C00048635749486BA842E6DC554F0020F86126
:1043D0003862B8627862F8680190786301980524C1
:1043E000031B786B07E0504982008958FA698918E5
:1043F000401EF96178638342F5DBF8690A2148437E
:104400002146FCF7B7F8F86102902B1928467D6326
:1044100007E04549820089583A6A8918401C396288
:1044200078638342F5DC386A0A2148432146FCF769
:10443000A1F83862B869009078630098031B786B24
:1044400007E0394982008958BA6A8918401EB96262
:1044500078638342F5DB32480A21806A484321466B
:10446000FCF788F801462E4881624769476338198E
:104470002B498446486B07E02B4A8300D2584B6A8D
:10448000D218401C4A6248638445F5DC24480A215E
:10449000406A48432146FCF76DF801462048204A0F
:1044A000416200983C1A1E4804630198281AD062A1
:1044B00003901D4AB8001358801840680A22181843
:1044C0005043C20F10184010861B02980D1A002E80
:1044D00001DB304600E070420A21FCF74BF8071977
:1044E000281E00DA68420A21FCF744F839180398BC
:1044F0000B4F0A187A630094114C034601960295FB
:1045000020680AA11030FBF7D9FE20681030FFF7B1
:104510000BFD786BE12800DAAAE6FF207863A7E6B6
:10452000040000207800002068040020523A25642E
:104530002C25642C25642C25642C25640A0000009D
:104540006400002070B5194C2268022A2CDB8B0015
:104550001B18803B6668DD6FB21A954224D39B6FAF
:10456000934221D30F291FDBC91E0B46616319E05B
:1045700099004558954213D809188039CD6F954256
:104580000ED88D6F95420BD84D6F954208D80D6FA0
:10459000954205D8C96E914202D8A08EC0B270BDB6
:1045A0005B1E63630A2BE3DC002070BD0400002067
:1045B00010B50121052009030007FDF755FD10BDC9
:1045C00070B50546002000F01CF81A2000F028F80D
:1045D00000242846E040C107C90F10D0012000F098
:1045E00010F81A2000F01CF8641CE4B2082CF0D378
:1045F000012000F006F81A2000F012F870BD00202B
:10460000EDE70121052310B5C9021B07012804D0DD
:1046100000221846FDF72DFD10BD0122F9E700002C
:1046200011B50B4A1068416A009B89B2094CCB183E
:10463000A34205D8426A009B521A9A42FAD318BD87
:10464000002141621068416A009A9142FBD318BD73
:10465000CC020020FFFF0000FDF798FFFFF7AAFB48
:10466000FFF724FAFFF798FAFFF7D0FAFFF766FA98
:104670004548444901600026012186604160066189
:1046800042498661C160FEF7B1FA002801D072B6D6
:10469000FEE73D489838FEF70BFB3B48FEF708FB6A
:1046A0003B4DAE60EE60EE70FDF76CFA3648362199
:1046B000CC30FBF753FF344836A1CC302862FBF7EF
:1046C000FDFD314C0420EC34A074022727742E48E1
:1046D0002E61EC38AE61FDF779FD002801D072B68D
:1046E000FEE7D4210420FDF7A4F901202D4E6075CA
:1046F00001210420FDF762FA2B49627D09788A4284
:1047000000D140427D21C900FBF734FF2749411801
:1047100068688200B150401C6860607C012802D14A
:1047200023A0FFF701FC207C07280AD000F0CEF878
:1047300000F050F8207D012806D02869002803D019
:104740000BE0FFF79BFAF3E727750122154869682C
:10475000FFF7FAFC002000F009F9207C2978884254
:10476000C6D02870072807D0B4210420FDF761F9CE
:1047700011A0FFF7D9FBBBE734210420FDF759F95D
:1047800011A0F6E7002000406403002080BB000079
:104790004400002070616E64617069336476310A90
:1047A00000000000680400203C000020701700009A
:1047B00025643B0A00000000456E6473746F70202E
:1047C0006D6F64650A0000005041206D6F64650ADA
:1047D0000000000070B500252E4901200A5C3B2A2C
:1047E00004D0401C4028F9D3284670BD0A18203A4E
:1047F000D57F294C6C2D2AD0652D2ED00121642D1A
:1048000038D00023442D37D0692D37D0492D37D0EB
:104810004E2D37D06E2D3AD029463039092911D87E
:10482000C9B2A174022809DB907F0246313A082AF6
:1048300004D80A22504320300818A074A17C17A085
:10484000FFF772FB40211348FBF788FECCE717A067
:10485000FFF76AFB07202074F4E717A0FFF764FB5B
:10486000022020741848012241680B481830FFF7D5
:104870006BFCE7E76174E5E76374E3E76375E1E721
:104880006175DFE72175002000F070F8DAE7237525
:10489000D8E70000E80C002050040020544852489B
:1048A0004F4C445F5A3A2025640A00005041206D65
:1048B0006F64650A00000000656E6473746F702099
:1048C0006D6F64650A0000004400002070B5244D3F
:1048D00000240121686849022646884200DB6E6098
:1048E00020496869FBF73CFE1E48401E814205D105
:1048F0006E6100221C486968FFF726FC1A4A696845
:1049000005E00846FFF780FC80001058041968682D
:10491000491E401F8142F4DCE017800F001929690D
:104920008010401A01D4024600E042420E49183974
:10493000897C8A4202DBAA69002A0CD0002800DAAE
:1049400040424908884205DCA869012802D100F0EC
:104950000DF8002070BD012000F030F8012070BD7E
:1049600044000020C40900006804002070B5002144
:104970000E4D0A46A96105260446FF21360701317E
:104980003046FDF776FB0121002249033046FDF752
:1049900070FB002C08D068680549800040188038FA
:1049A000C16F04A0FFF7C0FA70BD000044000020F2
:1049B000680400204F25640A0000000070B5012142
:1049C000144D052604460A46A961360709023046F9
:1049D000FDF74FFB012251033046FDF74AFB002C47
:1049E00016D00D482969827C0CA0FFF79DFA0A4E6B
:1049F0006C68183607E02046FFF706FC8000315847
:104A000008A0FFF791FA6868641E0A388442F2DC55
:104A100070BD000044000020500400206E25642C6E
:104A200025640A0025642C0010B500290AD00878F6
:104A3000002807D005487844FCF78EFF002801D0F5
:104A4000002010BD0248784410BD0000CA010000DB
:104A5000C201000010B500290AD00878002807D04C
:104A600005487844FCF778FF002801D0002010BDED
:104A70000248784410BD0000BA010000B2010000F5
:104A800003B402487844844603BC604783C2FFFFF6
:104A900003B402487844844603BC6047EDC4FFFF7A
:104AA0000000000000000000000000000000000006
:104AB00000000000000000000000000000000000F6
:104AC00001000000020000000300000004000000DC
:104AD00006000000070000000800000009000000B8
:104AE00004000008000000000000000200010000B7
:104AF00010000000000000000000000030313233E0
:104B00003435363738394142434445464030580001
:104B10003031323334353637383961626364656633
:104B200040307800303132333435363738396162CD
:104B30006364656678700030313233343536373827
:104B400039414243444546585000000002400000AD
:104B5000000000A00000000005400000000000C8A8
:104B6000000000000C4000000000409C000000001D
:104B7000194000000020BCBE0000000034400000CE
:104B8000BFC91B8E00000004B5400000504BCFD0C1
:104B90006607E2CF010000006C4100003E8251AA8E
:104BA000DFEEA73401000000D9420000DCB5A0E22E
:104BB0003A301F97FFFFFFFFB4450000FD25A0C856
:104BC000E9A3C14FFFFFFFFFFF3F0000000000808F
:104BD00000000000FF3F0000000000800000000017
:104BE0002C4D00080000002078000000040100089F
:104BF000A44D0008780000202813000020010008C0
:104C00001C00000043000000F8FFFFFF0C00000044
:104C10000E0000000F0000002E0000001001000038
:104C200043000000F8FFFFFF00404040404040408C
:104C3000404041414141414040404040404040406F
:104C40004040404040404040400502020202020213
:104C50000202020202020202022020202020202062
:104C60002020200202020202020290909090909076
:104C70001010101010101010101010101010101034
:104C800010101010020202020202888888888888A8
:104C90000808080808080808080808080808080894
:104CA000080808080202020240000000000000009C
:104CB00000000000000000000000000000000000F4
:104CC00000000000000000000000000000000000E4
:104CD00000000000000000000000000000000000D4
:104CE00000000000000000000000000000000000C4
:104CF00000000000000000000000000000000000B4
:104D000000000000000000000000000000000000A3
:104D10000000000000000000000000000000000093
:104D2000000000000000000000000000000900007A
:104D30000200000000000000000000000000000071
:104D40000000000000000000000000000000000063
:104D50000000000000000000000000000000000053
:104D60000000000000000000000000000000000043
:104D70000000010000000000000000000000000032
:104D80000000000000000000000000000000000023
:104D9000000000000100000004000000000000000E
:044DA000006CDC02C5
:04000005080000C12E
:00000001FF
