:020000040800F2
:10000000E00F002061020008FB4500086F3A00087D
:1000100000000000000000000000000000000000E0
:1000200000000000000000000000000085460008FD
:100030000000000000000000FD45000887460008A1
:100040007302000800000000730200087302000839
:1000500073020008730200087302000873020008AC
:10006000000000002D1B0008730200087302000846
:100070007302000873020008730200080000000009
:10008000730200080000000000000000094700089B
:1000900000000000730200087302000873020008E9
:1000A000713A000873020008730200087302000826
:1000B000E551000800000000000000000000000002
:1000C00000F002F800F0BDF80CA030C80838241881
:1000D0002D18A246671EAB4654465D46AC4201D180
:1000E00000F0AFF87E460F3E0FCCB64601263342F5
:1000F00000D0FB1AA246AB46334318477C6200008F
:100100009C620000103A02D378C878C1FAD852072E
:1001100001D330C830C101D504680C6070470000BD
:100120000023002400250026103A01D378C1FBD813
:10013000520700D330C100D50B60704710B56E294F
:1001400002D100F0CDFB10BD702902D100F007FDF7
:1001500010BD662902D106F041F810BD652902D113
:1001600006F03CF810BD672902D106F037F810BD43
:10017000612902D106F03AF810BD03681B0A01D3C9
:1001800080231943692902D100F0AEF810BD64291B
:1001900002D100F0A9F810BD752902D100F0A4F831
:1001A00010BD6F2902D100F085FC10BD782902D165
:1001B00000F0C2FC10BDE92902D100F021FC10BD05
:1001C000E42902D100F01CFC10BDF52902D100F099
:1001D00017FC10BDEF2902D100F078FC10BDF82902
:1001E00002D100F0B7FC10BD0368DB0901D3802306
:1001F0001943632902D101F096F810BD732902D189
:1002000001F099F810BDE32902D101F0A3F810BD67
:10021000F32902D101F0A6F810BD002010BD1FB5D2
:1002200001F00AF904000020002105F0C1FF401C84
:1002300060600020002105F0A5FFE0601FBD10B543
:1002400010BD01F0D1F81146FFF7E9FF05F012FBF0
:1002500001F0F2FB03B4FFF7F2FF03BC00F080FAF9
:100260000748804707480047FEE7FEE7FEE7FEE74E
:10027000FEE7FEE704480549054A064B70470000C3
:1002800007470008C1000008E0090020E00F002037
:10029000E00B0020E00B00201CB50C46064B7B4415
:1002A00069460090204600F034FB04460020694671
:1002B00000F042FB20461CBD970600000FB41CB5A1
:1002C000084B06AA7B4469460090059800F021FB84
:1002D00004460020694600F02FFB20461CBC08BCE9
:1002E00004B0184771060000F7B50025752910689D
:1002F000009914A611D000F060FA002802DA4042FA
:1003000011A608E0009909688A0701D50FA602E046
:10031000490704D50EA6012501E000F057FA009F19
:100320000024243704E000F02DFC30313955641CE2
:100330000028F8D12B4632462146009800F078FA82
:10034000FEBD0000000000002D0000002B0000009A
:1003500020000000F3B50446002081B02062204652
:10036000E1688847002872D0252802D06268A16819
:10037000ABE0594F00267F442046E168884720289B
:10038000054608DB312D06D2781920380078002880
:1003900001D00643F0E7B00701D5042086430020D2
:1003A000E0610746A0612A2D0AD0284604F072FFBA
:1003B000002827D0B8000019303D0090856119E071
:1003C0000298BA00121902C8916102902046E168B1
:1003D0008847012F054617D1E06900281FDA202041
:1003E00086431CE000980A2180694843009940191F
:1003F000303888612046E1688847054604F04AFFA6
:100400000028EFD1012F0AD02E2D08D12046E16817
:1004100088470546202006437F1C022FC3DBA069C6
:10042000002803DA4042A06101200643F00701D012
:10043000102086436C2D0BD0682D09D04C2D3CD05C
:100440006A2D38D0742D38D07A2D36D016E040E0A1
:10045000E1682F4620468847B842054609D16C2FEF
:1004600029D001208002E1680643204688470546DE
:1004700004E06C2F1DD0FF2001300643002D28D052
:1004800028464138192803D80120C00206432035E8
:10049000204626602946029A1646FFF74FFE00289E
:1004A00010D001280BD0F61DF008C00008300290D3
:1004B00055E74020E1E78020D5E70020D3E7361D4F
:1004C00002964CE762682846A1689047206A401C63
:1004D00044E7206AFEBD0000FE5E0000002000F040
:1004E0004BFBFFF7ACFE012000F03AF930B5441C9D
:1004F00003E00178401C00290DD08107F9D10B4B96
:10050000DD0104C8D11A91432940FAD0001B0A0624
:1005100003D0C01E30BD001B30BD0A0401D0801EB8
:1005200030BD0902FCD0401E30BD000001010101B8
:1005300001E004C0091F0429FBD28B0701D502800A
:10054000801CC90700D00270704700290BD0C30778
:1005500002D00270401C491E022904D3830702D531
:100560000280801C891EE3E70022EEE70022DFE71D
:10057000002203098B4273D3030A8B4258D3030B27
:100580008B423CD3030C8B4221D312E003460B4336
:100590007FD4002243088B4274D303098B425FD37C
:1005A000030A8B4244D3030B8B4228D3030C8B42A8
:1005B0000DD3FF22090212BA030C8B4202D312128E
:1005C000090265D0030B8B4219D300E0090AC30B63
:1005D0008B4201D3CB03C01A5241830B8B4201D310
:1005E0008B03C01A5241430B8B4201D34B03C01AF9
:1005F0005241030B8B4201D30B03C01A5241C30A71
:100600008B4201D3CB02C01A5241830A8B4201D3E1
:100610008B02C01A5241430A8B4201D34B02C01ACB
:100620005241030A8B4201D30B02C01A5241CDD270
:10063000C3098B4201D3CB01C01A524183098B42BB
:1006400001D38B01C01A524143098B4201D34B01A4
:10065000C01A524103098B4201D30B01C01A524107
:10066000C3088B4201D3CB00C01A524183088B428E
:1006700001D38B00C01A524143088B4201D34B0077
:10068000C01A5241411A00D20146524110467047E9
:100690005DE0CA0F00D04942031000D340425340EE
:1006A00000229C4603098B422DD3030A8B4212D3AE
:1006B000FC22890112BA030A8B420CD389019211E0
:1006C0008B4208D3890192118B4204D389013AD01D
:1006D000921100E08909C3098B4201D3CB01C01AF2
:1006E000524183098B4201D38B01C01A5241430905
:1006F0008B4201D34B01C01A524103098B4201D3F3
:100700000B01C01A5241C3088B4201D3CB00C01A5F
:10071000524183088B4201D38B00C01A5241D9D277
:1007200043088B4201D34B00C01A5241411A00D2F8
:100730000146634652415B10104601D34042002BF4
:1007400000D54942704763465B1000D3404201B573
:100750000020C046C04602BD704770477047000089
:1007600001491820ABBEFEE72600020070B5044622
:1007700085690068C10601D5302600E02026C00743
:1007800007D070BD62683046A1689047206A401C5F
:1007900020626D1EF6D570BD70B50446856900787F
:1007A000C00707D170BD6268A16820209047206A09
:1007B000401C20626D1EF6D570BD09684A0501D542
:1007C00040B27047C905FCD500B2704709684A05B8
:1007D00001D5C0B27047C905FCD580B2704770B56D
:1007E0000C460546012A05D02878800600D5EA691E
:1007F000002302E0012305E05B1C934202D2E05C8F
:100800000028F9D1A869E618C01AA861286AC0189A
:1008100028622846FFF7AAFF04E06A682078A968E2
:10082000641C9047B442F8D32846FFF7B5FF70BD6B
:10083000FFB504460D4681B024300090216888063B
:1008400004D51022E0699143216000E00120A84214
:1008500001DD471B00E000270498A1697A191018F0
:10086000081AA0612078C00602D42046FFF77EFF58
:10087000002608E003986268A168805D9047206ABE
:10088000401C761C206204988642F3DB2078C00668
:100890000AD52046FFF76AFF06E06268A1683020AB
:1008A0009047206A401C206238467F1E0028F4DCF6
:1008B00007E000986268A168405D9047206A401C8C
:1008C000206228466D1E0028F3DC2046FFF764FFF7
:1008D0002078000602D5022005B0F0BD0120FBE71C
:1008E00011680268006A530501D5087009E0D30554
:1008F00001D5088005E0130602D5C21705C100E046
:10090000086001207047000001694A1C02610878F4
:10091000704700B58FB00291002105910549019300
:1009200079440391114604906846FFF713FD0FB018
:1009300000BD0000E5FFFFFF0A681070521C0A604E
:1009400070470000F7B50446154686B02B4878443A
:10095000002703C83E460090019111E007986A46BF
:100960007100415A02A800F001FD411C07D0217816
:10097000890603D5E269391891420ED83F18761CD2
:100980002078800602D5E069B84206DDAE42E5DB9C
:1009900007987100405A0028E0D1A069C01BA061EF
:1009A0002046FFF7E3FE154878445A3803C8009004
:1009B0000020019116E041006A460798415A02A8BA
:1009C00000F0D4FC0590401C0AD0002505E06268C8
:1009D00002A8A168405D90476D1C05988542F6D33A
:1009E0000498401CB0420490E5DB206AC0192062E4
:1009F0002046FFF7D1FE09B0F0BD00003A590000D3
:100A0000F7B5D21D0025D20815A6D200F52905CAD2
:100A100011D0002A05DA00214042914111A60A4670
:100A200008E0009909688B0701D50FA602E0490785
:100A300001D50EA601251146009F0024243704E0AD
:100A400000F0B5F830323A55641C02460A43F7D13B
:100A50002B46324621460098FFF7EAFEFEBD000015
:100A6000000000002D0000002B000000200000000E
:100A700070B504460021243408E05507D2086D0FF4
:100A8000303565545D072A43DB08491C15461D4374
:100A9000F3D10468002310A2250708D520252C4097
:100AA0000C4304D0C46901230CA2641EC461FFF787
:100AB000BFFE70BD10B5044621461068FFF786FEE4
:100AC000002302462046FFF7D3FF10BDD21DD108F8
:100AD000C9000CC9CCE70000000000003000000095
:100AE000F8B50F460188090502D5224C7C4402E086
:100AF000204C7C440E3405460021243508E01607BE
:100B00001209360FA65D6E541E0732431B09491C9D
:100B100016461E43F3D1224604780023240705D548
:100B2000702F06D0002901D002231132FFF780FE7A
:100B3000F8BD01231032F9E770B504460D46214691
:100B40001068FFF743FE0023024629462046FFF7C0
:100B5000C7FF70BDD21DD308DB000CCBC0E730B49B
:100B6000036820241268234303600823C36130BC58
:100B70000023B5E7A457000010B500F01DFC00F0FD
:100B800015FC10BD01468008081A02091018020A57
:100B90001018020C1018C008820012185200891A8E
:100BA00001E0401C0A390A29FBD2704770470B4606
:100BB00070B5024689078008084319469D08141A33
:100BC000A94125090807054308092C194841250AA8
:100BD00001060D43010A2C194141200C0D04284344
:100BE0000D0C00194D41002140194D41C008690705
:100BF0000843E908840F8D002543840024184D41E3
:100C000024196D41121BAB4107E00925ED432C115E
:100C1000521963410024401C61411C460A250026EC
:100C2000551BB441F1D270BD7047FFB50C461E464E
:100C30008FB003CA089009914F007D0D00D16D1E41
:100C4000002108460020C0460321099A8905084072
:100C5000002A03DA8200801840080840800D01282D
:100C60000A9002DD0020C0430A90089807430DD087
:100C7000EF48F049281848430714189800281DD059
:100C80007542291E1DDD0A9842421BE01898012872
:100C900002D00020302104E00020F24305E021547E
:100CA000401CB042FBDB30460022189B002121543F
:100CB0000F998B600A60486013B0F0BDBD1B6D1CBE
:100CC000DFE70A9A002900DA69420BA800F0FCFB72
:100CD0000BAB07CB03AB07C30899099800F058FC8E
:100CE0006B4607C30146D4480918002D00910ADD60
:100CF000D14903980A9A4942401803A903906846CB
:100D000000F06BFE07E003990A9A081803A9039004
:100D1000684600F038FE6B4607C30004000C03D0A1
:100D20000020C043410800E01046189A002A03D072
:100D30000022009215461EE0751E05D4FFF737FF0E
:100D4000303262556D1EF9D501220843079602D054
:100D500000227F1C04E02078302801D100227F1E71
:100D6000002A069789D01EE0112D07DAFFF71FFF32
:100D7000303262556D1C02460A43F5D1084303D058
:100D80000098002819D00EE00021681E05E0235CC1
:100D9000625C63542254401E491C8142F7DBA81B4D
:100DA000401E07950690079A18990020A0540F98A6
:100DB000079B069A81600CC07EE7112600201890E0
:100DC0005BE7D21DF0B50D460446D10893B0C900CB
:100DD00003C90C900D9104F047FA02460D98C00F1C
:100DE00001D02D2007E02068810701D52B2002E0EB
:100DF0004007C00F4001032A0F9001D0072A05DBEE
:100E000003462946204600F01BFB0EE120788006B1
:100E100001D5E76900E006272846652D04D066283D
:100E200014D0672D69D12DE00020112F009001DB37
:100E3000112300E07B1C0CAA03A910A8FFF7F5FE04
:100E40001199002610987D1C0E9142E001203B462E
:100E50000CAAC0070B900120009003A910A8FFF76F
:100E6000E4FE119D12981099002600280E9501D1DC
:100E7000781C0D18781B02D446427D1C761EE81B98
:100E800000903AE0012F00DA01270020112F009096
:100E900001DD112300E03B460CAA03A910A8FFF7CF
:100EA000C4FE11993D46109800260E91217809073D
:100EB0000BD40E99A94200DA0D4603A9012D04DDD9
:100EC0004A19203AD27F302A06D0B84201DA011DF1
:100ED00004DA012100910FE06D1EEFE7002802DC2B
:100EE00086192D1A03E0411CA94200DD0D46801B26
:100EF000401C00900120C0070B902078000705D40B
:100F00000098A84202DB0020C04300906946002000
:100F1000C8720B98012102AF0337C907884225D058
:100F2000022010902B2011900B9800280BDA4042E1
:100F30000B902D20119006E00B98FFF723FE303127
:100F40007F1E0B9039701099481E00291090F3DC19
:100F50000B980028F0D111987F1E3870208800056A
:100F600001D5452000E065207F1E387001A8C01B18
:100F7000C01D0B900F98002800D001204119009847
:100F8000C01709180B980818A169081A401EA0611B
:100F90002078C00602D42046FFF7E8FB0F9800280F
:100FA00005D06268A1689047206A401C20622078C2
:100FB000C00625D52046FFF7D9FB21E0002E07DB30
:100FC0000E98B04204DD03A86268805DA16802E06B
:100FD0006268A16830209047206A761C401C20621D
:100FE0000098401E002800900AD100F025FAC06841
:100FF00062680168405CA1689047206A401C2062DA
:1010000028466D1E0028D9DC07E062683878A168A0
:101010007F1C9047206A401C20620B99481E0029C3
:101020000B90F2DC2046FFF7B7FB032044E60000FC
:1010300001FCFFFF104D0000E1DFFFFFD21DF0B506
:1010400004460D46D0088DB0C0004668076831469A
:10105000384604F009F90246F00F01D02D2307E0CD
:101060002068810701D52B2302E04007C00F430110
:101070006846002B037001D0012000E00020032A05
:101080000A9001D0072A04DB2946204600F0D8F94F
:101090002BE12078800601D40D2500E0E569700081
:1010A000400D0D2D01904BDA300D00210B900846BC
:1010B0000020C046032189050840002E05DA820081
:1010C0008018C20F1018401008408015012801DD5B
:1010D0000020C043A9000023182906D39C460A46D5
:1010E0000123183A1B07D34003E001221205CA402E
:1010F00094460C31202902D33A46203900E032468A
:101100008A40002802DD002A06D119E0002817D104
:101110000121C9078A4213D3194663467F185E41ED
:10112000002806D10120C007824202D10846874329
:101130009E430B98310D814202D00198401C0190D2
:101140002088000502D57049794402E06E4979444F
:1011500019396B460A9830221A540A980A7C401CA6
:101160001A54401C0A900198002801DC302000E04D
:1011700031201872019A0120002A02D0634BD21844
:1011800004E072003A4302D0604A521C0192002DE2
:1011900002DC2278120703D56A462E205072022004
:1011A0000022864694460CE032033601120F6D1E73
:1011B0008B5C02AA13546246521C401C9446052ABA
:1011C00001DA002DF0DC002202AE08E03B0F3F0107
:1011D000CB5C521C6D1E3354401C082A01DA002DD2
:1011E000F4DC2278920601D50FE0401E704504DD44
:1011F0003218203AD27F302AF7D0002805DD321885
:10120000203AD27F2E2A00D1401E002D03DD3E223F
:101210003254401C6D1E497C31540199401C0029F8
:1012200006DA2D21471C315401984042019003E019
:101230002B21471C315401987D21C900884206DBCF
:10124000FFF7A4F93030F0557F1C019101E06428CC
:1012500008DB01986421FFF799F93030F0557F1CC5
:10126000019101E00A2806DB01980A21FFF78EF9B7
:101270003030F0557F1C01980A21FFF787F9303193
:10128000F1550A98A1697F1C7A191018081AA061F3
:101290002078C00602D42046FFF768FA216A6E461D
:1012A0000A980818206204E062683078A168761C09
:1012B00090470A98401E0A90401CF5D12078C0063D
:1012C00002D52046FFF752FA02AE09E03078761CCC
:1012D0003E280DD06268A1689047206A401C2062B9
:1012E0007F1EF3D22046FFF757FA0DB00320F0BD62
:1012F000206A4019206203E06268A16830209047AC
:101300006D1EEDD3F8E700008351000001FCFFFFE4
:1013100010B54369002B02D0C046C04601E0FFF77C
:101320005EFA012010BD1278014624310A700022B5
:101330004A700122ECE711680022D243E8E710B5B9
:101340004369002B02D0C046C04601E0FFF7FAFA1D
:10135000012010BD12880146243182840022C284FB
:101360000122ECE711680022D243E8E770B5164687
:101370000C46054600F058F80368FF200230C05CB8
:10138000012807D0FF2C0ED8185D00280BD00120B3
:101390002C7070BDFF333246214608331868C318DD
:1013A0002846984770BD0020C04370BD10B5002886
:1013B00001D0FFF7D5F910BD10B5002102A000F053
:1013C00041FB012010BD0000534947414252543AAD
:1013D0002041626E6F726D616C207465726D696E12
:1013E0006174696F6E000000754600F04BFBAE46FD
:1013F000050069465346C008C000854618B020B5B0
:10140000FEF738FF60BC00274908B6460026C0C575
:10141000C0C5C0C5C0C5C0C5C0C5C0C5C0C5403DAC
:1014200049008D467047000010B500F005F8001D1A
:1014300010BD00BF7D4D000000487047A00900208E
:10144000F8B51F46044601230068DB020326014667
:101450001840072A05DB002801D017A506E017A5CC
:1014600004E0002801D016A500E016A51020814355
:101470002160A069C01E002FA06101D0401EA061A4
:101480002046FFF773F9002F09D038466268A1683B
:101490009047206A401C2062C01C206206E0206A3F
:1014A000FAE762682878A1686D1C9047761EF8D22A
:1014B0002046FFF771F9F8BD4E414E006E616E0097
:1014C000494E4600696E6600F7B516468AB02F4849
:1014D00078446C4603467C33C06F5A689B680DC4E1
:1014E0002A487844763003AC0DC80DC43720C001BB
:1014F000081837211B30FFF749F805460C46803D98
:101500001B3C02D56442012000E000200027099026
:101510000FE0E0070BD00C201C4978437944324699
:101520004C394118684600F02EFA6B4607C3641028
:101530007F1C002CEDD1154F7F442C3F15E0E807B0
:1015400011D02001C0190EC80691089307920068B7
:10155000F04201D198190890324606A903A800F07C
:1015600012FA03AB07C36D10641C002DE7D132469D
:1015700069460998002803A802D000F02EFA01E07D
:1015800000F001FA0A9B07C30DB0F0BD104E000039
:10159000034640000A4610B5400D0BD00121C90793
:1015A0000F24A40200191C0364082143540D214395
:1015B000D20207E000210120F2E7D40F49002143C5
:1015C0005200401E0029F8DADB0FDB07184310BD7C
:1015D000FFB50D46144685B04868516803F02CFEEF
:1015E00000910190A868A16803F026FE0291039083
:1015F000A868616803F020FE029A121882420292E3
:1016000001D2012000E00020019A0B18D218002816
:10161000019202D08A4202D903E08A4201D201201B
:1016200000E000200099081800906868A16803F0A5
:1016300003FE029A12188242029201D2012000E0B7
:101640000020019A0B18D2180028019202D08A4279
:1016500002D903E08A4201D2012000E00020009973
:10166000081800902868216840004900400849088F
:101670004018EE49471814E001994000C90F08438B
:101680000090019802994000C90F08430190029808
:1016900003994000C90F08430290039840007F1E41
:1016A000039000980028E7DA0898002801D0E04E5F
:1016B00000E00026B74228DAF71BF806C00E15D066
:1016C000029B2021091A039A8B401A430392029A23
:1016D000019BC2408B401A430292019A009BC24078
:1016E0008B4000991A430192C14000917A110BD0AE
:1016F0006B460320811A01D5002101E08900595869
:101700008700401ED951F5D5374603980299002825
:1017100000D00120014308980291002808460CD00F
:10172000002800D001200199019A490508430121B0
:10173000D20AC902D202019200E001210E9B0122CD
:10174000D207012B02D0002B03D013E0002807D1D1
:1017500016E0904204D890420CD1019B0B4209D074
:10176000019B5918019105D10099491C009101D1A3
:101770007F1C0092002803D0102108460020C0469C
:1017800028682168019B009A4840C10F0598C90745
:1017900039430EC009B0F0BDFFB587B0099A08986B
:1017A00008995368926840688968964600220393B6
:1017B00017469446089A12685300099A5B08126803
:1017C000520052089A1A9B4BD4180A9A002A01D048
:1017D000352200E0402206920022012315460492A1
:1017E000DB07059324E0002D05D175460346039ED3
:1017F0004D1BB34109D375466646039B491B049DA7
:101800009841059B7519AC465F4163463B4308D040
:10181000059B049EDD0776082E435B08049605931E
:1018200001E0521E641EC50FED0749184041521CCD
:10183000069B9A42D7DB002D04D17546039A6B1A9A
:10184000824101D203200CE0039A0B466B404240D8
:10185000134303D0014303D0012002E0022000E043
:101860000020614601910021009702910A99002908
:1018700005D06146400201436D4B019102E08007B3
:10188000002302909C423ADA1A1BD006C00E15D0F3
:10189000029D2021019C091AC5408C402543029CD1
:1018A0008C4000D001242543019C02953D46C44054
:1018B0008D4039462C43C1400194009154111DD0F4
:1018C0006D460221002202290CD10320001B07E0F3
:1018D000002804DB8600AE59002E00D00122401CF7
:1018E0000328F5DB081B02D588002A5004E080009D
:1018F000285810438A00A850491EE3D51C460A9870
:10190000002802980CD0002800D001200199019AEB
:10191000490508430121D20AC902D202019200E01E
:101920000121109B0122D207012B02D0002B03D0F2
:1019300013E0002807D116E0904204D890420CD161
:10194000019B0B4209D0019B5918019105D10099C7
:10195000491C009101D1641C0092002803D0102181
:1019600008460020C04608980999019A006809684D
:1019700048400099C30F0798DB0723430360826048
:1019800041600BB0F0BD1FB5002300920A4601462E
:1019900001A8FFF71DFE01AB07CB04B010BD1FB5BA
:1019A000012300920A46014601A8FFF711FE01AB90
:1019B0000F2407CBA402C30F4000DB074008001B25
:1019C000002900DB0020490000054908CC0A20431B
:1019D00049051843D20A1143DFE71FB500230092DF
:1019E0000A46014601A8FFF7D7FE01AB07CBD4E7B3
:1019F0001FB5012300920A46014601A8FFF7CCFE5D
:101A000001AB0F2407CBA402C30F4000DB07400843
:101A1000001B002900DB0020490000054908CC0A12
:101A2000204349051843D20A1143B6E702C0FFFF1D
:101A3000013C0000FF3F00000446C046C04620466F
:101A4000FEF708FC70B505460C460A2000E06D1C48
:101A500000F012F8002D06D028780028F7D102E017
:101A6000641C00F009F8002C02D020780028F7D17F
:101A70000A2000F001F870BD08B56946087003201F
:101A8000ABBE08BD004870478009002082078B0765
:101A90009A4237D170B5920F0AD0032402780B789E
:101AA000401C491C002A2BD09A4229D12042F5D152
:101AB0001D4EF40104C808C9951B9543254010D15B
:101AC0009A4207D104C808C9951B9543254008D1FF
:101AD0009A42EFD012BA1BBA01209A4200D2404279
:101AE00070BD12BA1BBA2DBA18241000E0401900BC
:101AF000E140401A05D12E00E64002D1083CF4D165
:101B0000D01A70BD02780B78401C491C002A09D0FD
:101B10009A4207D102780B78401C491C002A01D058
:101B20009A42EFD0D01A70470101010110B5024866
:101B300000F00CFB10BD00000809002072B6FEE7A3
:101B4000F8B5044600F06CFD154F054601263869CE
:101B50003604304209D0601C04D000F061FD401B07
:101B6000A04216D238693042F5D138690D49084093
:101B70000D49396103D00D4948600120F8BD38692D
:101B800040030BD5601C06D000F04AFD401BA0426C
:101B900001D30320F8BD38694003F3D40020F8BD19
:101BA00000200240FA830000FB830000640900204B
:101BB000F8B500250446009540340127227DFF0733
:101BC0000369012A0FD00122227502689668760700
:101BD000F60F0AD0816D2022114381650125002076
:101BE00020752846F8BD0220F8BD4E68022E7DD033
:101BF000BB4202D0784FBB4205D10B68966A5B03AB
:101C00005B0B1E436FE0F606F60E0F23076EB34024
:101C10009F430B68B4465E0302D0DE074BD102E05F
:101C20005B00DB0E48E09E0701D5012344E05E0720
:101C300001D5022340E01E0701D503233CE0DE0668
:101C400001D5042338E09E0601D5052334E05E0665
:101C500001D5062330E01E0601D507232CE0DE0562
:101C600001D5082328E09E0501D5092324E05E055F
:101C700001D50A2320E01E0501D50B231CE0DE045C
:101C800001D50C2318E09E0401D50D2314E05E0459
:101C900001D50E2310E01E0401D50F230CE0DE0356
:101CA00001D5102308E09E0301D5112304E05B0356
:101CB00001D5122300E000236646B3401F430766A8
:101CC0004B68C7699E08761CBE420DD80F68966A9D
:101CD000BC46DB06DB0E0F279F40BE436746BF00B6
:101CE0003F0F9F403E439662006800E043E08B68F0
:101CF0000A684669120296431A4052015209164375
:101D000046610968002900DB69E7344A1068072347
:101D10009B05334E1840B14215D1060213D4C902B7
:101D2000084311689943014311602F482D49006809
:101D3000FEF71EFC0C21401C48430090E4D0401EDE
:101D40000090FCD14BE7294EB14208D1C60106D420
:101D50008902084311689943014311603FE7244E0B
:101D6000B142D1D14102CFD47102084311689943E5
:101D70000143116033E7BB4202D01748834205D1CB
:101D80000868936A4003400B834393620968002903
:101D9000BADA124A106807239B05114E1840B14267
:101DA00006D1C9028843116899430143116016E7BF
:101DB0000E4EB14206D1890288431168994301430E
:101DC00011600CE70A4EB1429ED149028843116866
:101DD00099430143116002E7040000800827014095
:101DE000001000B0400D030070000020004000B85B
:101DF000002000B4F0B5002683B004460296019698
:101E00000096002805D02546A06D2035002803D077
:101E100009E0012003B0F0BD204600F001F90020E8
:101E2000E0655421085520688168C900C90F12D1A6
:101E30008168754A1140012212071143816074487C
:101E400072490068FEF794FB4000801C009002D0AD
:101E5000401E0090FCD1216888681022C000C00F8D
:101E6000002807D1A06D1043A065E06D0123184341
:101E7000E0651E468868A36D4007C00F102213401E
:101E80000343A06D03D010210843A065B7E0FF22F3
:101E90000132904302221043A0658868C007C00F3A
:101EA0006CD1227EA06892031043627EA37ED2038F
:101EB0005F033A431043226B002A01D00122120330
:101EC0001043E26810432269002A02DA52005208E5
:101ED00001E00122520510432A7B52001043029A6E
:101EE00010432A78012A09D1002B21D0A26D20238A
:101EF0001A43A265E26D01231A43E265626A002A71
:101F000006D0FF27C1373A40A36A02431846104360
:101F1000CA68404B1A400243CA606168019A890F3F
:101F20008907E06C0A4310432A7F012A04D00CE0A1
:101F3000012212041043E1E7636C226C491C1A432E
:101F4000A36C0B4311461943084321680A69324BBD
:101F50001A4002430A6103216068890788420DD054
:101F6000590788420AD04900884207D02B4B99680C
:101F70000F22920491431040014399602068626BE4
:101F800043690021DB08DB00134343612068A26B37
:101F900043697025AB431201134343610F2220694B
:101FA000D24300281CD001235B0598420AD1206847
:101FB000836A237F9B001B1FDB06DB0E9A40236E88
:101FC0001A43826220684069626B4007400F90426A
:101FD0000BD1E165A06D80088000401CA0650FE07A
:101FE0002068836A13438362ECE7A06D0221884373
:101FF00010210843A065E06D01210843E06501263A
:10200000304603B0F0BD0000E8FFFF7F400D030045
:10201000700000200102DEFF02FCFF1F00270140CC
:102020000068074981B0884208D10648026801214A
:1020300009050A43026000680840009001B070473B
:102040000024014040100240F0B400280BD00146AB
:1020500020314A79022A09D00422C2630020087183
:10206000F0BC01207047F0BC012070470268136883
:102070000E24A3431360426C1468FF2301339C4376
:102080001460026814686408640014600D4E72687D
:10209000056C1C24254001242746AF403A4372605A
:1020A000826CC56C5560026D002A05D015689D4391
:1020B0001560826D406D42604C7100200871F0BC6B
:1020C0007047000000000240F8B5002401462031AE
:1020D0004A79022A03D00421C16301242DE0026859
:1020E00013680E25AB431360026813685B085B003E
:1020F0001360426C1368FF250135AB431360104E2B
:102100007268056C1C231D4001231F46AF403A43F3
:102110007260826CC56C5560026D002A06D016682C
:102120001D02AE431660426D856D55604B710022F5
:102130000A71816B002900D088472046F8BD000055
:10214000000002402030407970470000F0B42E4D6E
:102150002B6801680A68046C1C273C400426A640D2
:102160001E4214D0560712D50A68920603D40B6893
:10217000042293430B606B68026C04213A40914047
:102180000B436B60016B00293CD1F0BC7047022708
:10219000A74006461F402036002F19D0970717D5B5
:1021A0000A68920605D40A680A239A430A60012144
:1021B00071716A68036C1C210B40022199400A432B
:1021C0006A6000213171C16A00291BD1F0BC7047DF
:1021D0000827A7401F42F9D01207F7D50A680E2337
:1021E0009A430A606A68036C1C210B400124214653
:1021F00099400A436A60C463747100213171416B74
:102200000029E3D0F0BC084700000240002801D1BB
:102210000120704770B5044606682F481421301815
:10222000FEF7A6F98000206402202546203568715B
:1022300030682A4908403060A168E068626901435B
:10224000206910430143A0690143E0690143206A0A
:1022500001432068026811430160206C2049800816
:10226000800046186664207814210838FEF780F94B
:102270001C49A164C1060123C90E18468840E064C8
:10228000A06899030022884200D16260207980060C
:10229000800E3060A06CE16C41606068411E0329D3
:1022A00012D88006800E104E810089190F4E666587
:1022B000401E8607B60F18462165B040A0650A602B
:1022C000606DA16D416002E022656265A265E26316
:1022D0006B712A71002070BDF8FFFDBF0F80FFFFFA
:1022E0000008024080080240FC0802404009024009
:1022F000072101604168114A012915D0116BC906F7
:10230000C90E8160116BC902C90EC160116AC9B2E0
:10231000AA2902D0CC2900D0BB210161116A084A48
:102320004261114081617047D16AC906C90E81605E
:10233000D16AC902C90EC160E8E70000002002406E
:1023400000604F07F8B52D4D2978012921D00121D2
:10235000297000276F600178294CC90707D04368AE
:102360008268C168012B16D00904114321630168FA
:10237000FF234A07920F032A11D08A0719D5216A31
:10238000204A11400269206A0B43984308431043D6
:102390001FE00220F8BD09041143E162E7E7066986
:1023A00082694169206A194388431043304320629F
:1023B00010E049070ED5216AC9B2AA2902D0CC295A
:1023C00000D0BB2186694269206A1A43904330439A
:1023D000084320627D20C000FFF7B2FB00280BD12C
:1023E000606901267604304360617D20C000FFF7FC
:1023F000A7FB6169B14361612F70F8BD64090020DA
:102400000020024000604F0710B57D200124C0006D
:10241000FFF796FB05484169820411434161406919
:10242000002800DA0024204610BD000000200240F1
:10243000034841690122D2061143416101207047DE
:102440000020024010B57D200124C000FFF778FB7A
:10245000054841694204114341614069400000D58B
:102460000024204610BD0000002002400649012043
:102470004A69520007D5054ACA60054ACA604969D7
:10248000490000D400207047002002403B2A190870
:102490007F6E5D4C064900204A69002A07DA054A2A
:1024A0008A60054A8A604969002900DA012070477C
:1024B0000020024023016745AB89EFCD0B68002265
:1024C000002B7DD0F0B401270B6897403B4078D0BB
:1024D0000C79A407A40F012C01D0022C10D185681F
:1024E00054000326A640B543CE68A6402E4386601E
:1024F00044680D79BC43ED06ED0F954025434560DA
:102500000C79E443A40708D0C56854000326A6400C
:10251000B5438E68A6402E43C6600C79A407A40F6D
:10252000022C0CD1D408A40027183D6A5407E40EED
:102530000F26A640B5430E69A6402E433E620568AD
:1025400054000326A640B5430E79B607B60FA64041
:102550002E4306604C68A403A40F43D09508254C75
:10256000AD002F193D6E9407E40E0F26A640B5432B
:1025700005263607B04201D100260FE01E4EB042BC
:1025800001D101260AE01D4EB04201D1022605E02C
:102590001B4EB04201D1032600E00526A6402E4383
:1025A000144D3E662C684E689C43F60200D51C43D1
:1025B0002C606C684E689C43B60200D51C4301E059
:1025C00017E00FE06C600F4D6C684E689C43B603DB
:1025D00000D51C436C602C684E689C43F60300D504
:1025E0001C432C600B68521CD34000D06BE7F0BC3E
:1025F0007047704700180240000400500008005067
:10260000000C0050801802400069084000D00120F2
:102610007047002A01D081617047816270470000D5
:1026200001488068704700006400002070B40246D2
:1026300040325378202B1DD11378012B1AD001245E
:1026400014702423537003681D68A5431D6003683C
:102650001D682603B5431D6003681D680D431D609A
:102660000068016821430160202050700020107034
:1026700070BC704770BC0220704770B40246403294
:102680005378202B1CD11378012B19D001251570FC
:102690002423537003681C68AC431C6003681C68E7
:1026A0000F263602B443090221431960006801680D
:1026B00029430160202050700020107070BC7047CA
:1026C00070BC02207047704710B50C4B02689A42EC
:1026D0000AD101230A4A1B06002906D0516A127941
:1026E0008918012200F0B0F910BD51780029FBD003
:1026F0000122044900F038F910BD000000580040E4
:102700003C0000204000002070B503689A691968F9
:10271000D243D40508D4CC43240605D4446C012507
:102720002C4344642C02DC61530509D4CB431B06C3
:1027300006D4436C082423434364E3010468E36143
:10274000920509D4C943090606D4416C02221143FB
:10275000416411020268D161416C0B22114201D027
:1027600001F064FA70BD026891691268436B002B36
:1027700000D018477047000010B50246403251782B
:10278000202901D0022010BD282151700349416346
:102790000121C90301F0B8F9002010BD85440008EB
:1027A00070470000002801D10120704770B5054630
:1027B0000446403568780026002803D12E70204654
:1027C00000F066F824206870206801684908490014
:1027D00001600F216068090688432168086120684C
:1027E00082680121C9038A438260E0680128A068E9
:1027F0002FD0212292021043226890600122E068CB
:10280000D20202282068436827D09343436020689F
:102810004268134B1A4342602068C2688A43C26010
:10282000616920690843A169090208432168C860F9
:10283000216AE06908432168086020680168012274
:10284000114301606664202068702663AE7000202A
:1028500070BD226808439060D0E71343D6E70000BC
:1028600000800002064A0168914208D110B505496E
:1028700001224A7000220A71FFF77EFF10BD7047E7
:10288000005800403C000020704770477047704778
:1028900010B586B00021009101910291039104913D
:1028A00000681449884223D1134C606B012108430E
:1028B0006063606B084005900320C0020090122006
:1028C000019006200490052069460007FFF7F6FDF9
:1028D000E16B012080050143E163E16B00220140CF
:1028E00005911146182000F085F9182000F076F9BE
:1028F00006B010BD00580040001002400C4A0168AC
:10290000914213D10B494A78002A02D000224A7022
:1029100002E00A79521C0A7110B54A6A097901234A
:1029200051181B06012200F01FF810BD704700006F
:10293000005800403C000020094A016891420DD136
:1029400010B5084A012311791B06491CC9B211713F
:10295000526A5118332200F077F810BD704700001A
:10296000005800403C000020FFB505460F464035AA
:10297000697881B0164604462820884302D0012099
:1029800005B0F0BD002F0ED0002E0CD02B492046F4
:1029900001F08CF8287801280BD001202870687885
:1029A000292809D022E0012040026064012005B0FE
:1029B000F0BD022005B0F0BD0121204601F076F8FF
:1029C00020680168490411D50168012292039143EE
:1029D0000160A06B002809D019498163A06BFFF743
:1029E00073FB002802D0A06B816B88472A20687097
:1029F0002020A87000216164206842680123DB0365
:102A00009A43426067626685608D20850498E06223
:102A10000C4860632068826983691207D20FDB0368
:102A200003D4002A01D00822C2612970034920463C
:102A300001F06AF8002005B0F0BD0000028000003F
:102A4000913A000885440008FFB505460F46403519
:102A5000697881B0164604462820884302D00120B8
:102A600005B0F0BD002F0ED0002E0CD02C49204612
:102A700001F01CF8287801280BD001202870687814
:102A80002A2809D022E0012040026064012005B01C
:102A9000F0BD022005B0F0BD0221204601F006F88D
:102AA00020680168090411D502680121C9038A431D
:102AB0000260E06B002809D01A498163E06BFFF7E0
:102AC00003FB002802D0E06B816B884729206870E7
:102AD0002020A87000216164206842680123DB0384
:102AE0009A43426067626685608D20850498E06243
:102AF0000D4860632068826983691207D20F1B0C3E
:102B0000DB07DB0F03D0002A01D00822C261297045
:102B10000349204600F0F8FF002005B0F0BD00009A
:102B200001800000913A000885440008024881684D
:102B300002788918816070476400002010B5084849
:102B400000240168821511430160032000F00AF897
:102B5000002801D0012401E000F028F8204610BD33
:102B60000020024070B50F4E002431780546002940
:102B700015D07D20C000FDF7FBFC01460A48006827
:102B8000FDF7F6FC00F0DCFB002808D1042D06D28E
:102B900000222946401E00F02DF8756000E0012457
:102BA000204670BD6400002070000020094881B0FC
:102BB000016801221143016000681040009006483E
:102BC000C26B01040A43C263C06B0840009001B0AD
:102BD000704700004010024000100240002805DB52
:102BE000C106C90E012088400149086070470000F5
:102BF00000E100E08207D30EFF229A408907090E08
:102C00009940002808DB830809489B0018180368CE
:102C100093430B43036070470007000F0838830895
:102C200004489B001818C36993430B43C361704762
:102C300000E400E000ED00E010B5104C2168032234
:102C40005202914301432160C11FFF39FA3910D16B
:102C50000B480621006848430A49FDF789FC616971
:102C6000401C490505D5002805D06169401E49056D
:102C7000F9D4002010BD032010BD000000700040FA
:102C80007000002040420F00002801D10120704751
:102C9000F8B5044656480D4600684007400FA84264
:102CA00018D2534F3868C008C00028433860FFF777
:102CB000B7FC064638684007400FA8420AD0FFF725
:102CC000AFFC811B4B4881426ED838684007400FEB
:102CD000A842F4D12068484E81070DD5400704D59D
:102CE000B068072109030843B060B0680F210902EA
:102CF0008843A1680843B0602078C00739D0606875
:102D000001280BD002280DD000280FD03B49032802
:102D100010D0C969890710D40120F8BD3168890332
:102D2000FAD50AE031688901F6D506E0316849052F
:102D3000F2D502E0096A8907EED5B168C908C90071
:102D40000143B160FFF76CFC0746B0686268382148
:102D50000840D20090420CD0FFF762FCC11B25480E
:102D6000814221D8B068382108406168C900884292
:102D7000F2D11F4801684907490FA9421CD90068D0
:102D8000C108C9001A4829430160FFF749FC0746FA
:102D9000174800684007400FA8420DD0FFF740FCDD
:102DA000C11B1448814201D90320F8BD10480068B6
:102DB0004007400FA842F1D12078400706D5B068FF
:102DC000072109038843E1680843B06000F032F846
:102DD000B1683C2289091140094A515CC906C90EF3
:102DE000C8400849086008480068FFF7BBFEF8BD06
:102DF00000200240881300000010024040100240F2
:102E0000186200087000002068000020064807498A
:102E100000688968064A4904490F8900515CC9065F
:102E2000C90EC8407047000070000020001002402A
:102E30005862000810B5204CA068204B8006400F57
:102E400016D0A0688006410F581001290FD0A16844
:102E50008906490F022912D0A0688006400F042875
:102E600023D0A0688006400F032821D0002010BD89
:102E7000206801218004400F8140184612E0E1687B
:102E80008A07E168920F4906490F491C032A00D0BE
:102E90001846FDF76DFBE1684904490E4843E168B7
:102EA000490F491CFDF764FB10BD0120C00310BD94
:102EB0007D20000210BD0000001002400024F4003C
:102EC000F7B50E4686B0022101910321039100213E
:102ED00002910121090704460C400103090F052353
:102EE0008A021B070D4DD7186A6B01238B401A43CA
:102EF0006A6381B20001000E009104906946384671
:102F0000FFF7DCFA002C07D1A9687720000681437F
:102F1000089806433143A96009B0F0BD0010024093
:102F2000002801D101207047F8B504460078382602
:102F3000C007F94F00284CD0B868F96830408907BD
:102F4000890F102802D008280BD001E0032908D0EF
:102F500001216068090488420AD138680843386052
:102F600017E03868800334D5606800287ED030E0F0
:102F7000052301221B0492049842386804D11043AF
:102F800038603868084303E0884338603868904305
:102F90003860606800280ED0FFF742FB05463868AD
:102FA000800316D4FFF73CFB401B64287ED83868AA
:102FB0008003F7D50DE0FFF733FB05463868800343
:102FC00007D5FFF72DFB401B64286FD838688003B6
:102FD000F7D4207880076ED5B868F9683040890743
:102FE0000722890FD202102802D0002826D001E043
:102FF000022923D0E068002848D03868216990432E
:10300000084338603868FF21013108433860FFF712
:1030100007FB05463868400507D4FFF701FB401B56
:10302000022843D838684005F7D578687F2109021F
:10303000884361690902084378603CE039684905C2
:1030400002D5E168002911D079687F231B029943DA
:1030500063691B0219437960002810D1386821691F
:103060009043084338603868800400E08CE0400FEB
:1030700001218140A948FDF77BFAA9490860A948C8
:103080000068FFF76FFD00287ED114E03968FF204B
:10309000013081433960FFF7C3FA054638684005BF
:1030A00009D5FFF7BDFA401B022800E06DE06CD89F
:1030B00038684005F5D420789B4D000732D5B868B4
:1030C0008006400F032815D0A0690028286A18D070
:1030D000012108432862FFF7A3FA0646286A800701
:1030E00020D4FFF79DFA801B02284ED8286A80075B
:1030F000F7D517E0286A800714D5A069002843D0C7
:1031000010E0400840002862FFF78AFA0646286A65
:10311000800707D5FFF784FA801B022835D8286A74
:103120008007F7D42078400779D5B8680026800654
:10313000400F04284AD0F86BC00008D4F86B012176
:1031400009070843F863F86B0840012600907748A8
:103150000168C90516D40068FF210131084373498D
:103160000860FFF75DFA009070480068C00509D458
:10317000FFF756FA0099401A02286AD86B4800688F
:10318000C005F5D5A06801E09BE062E0012824D0ED
:1031900004210528E86925D040084000E861E86975
:1031A0008843E861A068002822D0FFF739FA009030
:1031B000E86980072CD4FFF733FA0099411A5C487C
:1031C000814246D8E8698007F5D521E0E8698007A3
:1031D00025D5A068002874D021E0E86901210843C2
:1031E000E861DFE70843E861E86901210843D8E7BF
:1031F000FFF716FA0090E869800709D5FFF710FA83
:103200000099411A4A48814223D8E8698007F5D4D9
:10321000002E04D0F96B012000078143F963E069B7
:1032200000284DD0B9688906490F022952D00126DD
:103230003606022838680ED0B0433860FFF7F0F940
:1032400004463868800140D5FFF7EAF9001B0228E0
:1032500038D90320F8BDB0433860FFF7E1F90546DF
:103260003868800107D5FFF7DBF9401B0228F0D84A
:1032700038688001F7D4616A206AA26A0843E16A6B
:10328000120211430843216B0843F968294A11408F
:103290000843F860386830433860F868012109074E
:1032A0000843F860FFF7BCF904463868800145D44C
:1032B000FFF7B6F9001B0228CBD838688001F7D594
:1032C0003CE026E038688001BED4F8681A4908401E
:1032D000F86033E00128BDD0F868226A8107890FC1
:1032E000914216D17021626A0140914211D17F2131
:1032F000A26A09020140120291420AD11F21490427
:10330000E26A0140914204D1400F216B400788429C
:1033100014D00120F8BD0000001002400024F40089
:103320007000002068000020401002400070004043
:10333000881300008C80C11FFCFFFEEF0020E9E72E
:103340000B4910B4401E884202D910BC01207047BE
:103350000849486108480722C3691B021B0A4C043C
:103360002343C361002088610A6110BC70470000DC
:10337000FFFFFF0000E000E004ED00E07047704751
:103380007047002801D10120704770B505460446FA
:103390002035687F002803D12877204600F016F8F2
:1033A00002206877211D206801F0B6F90120403421
:1033B0002072A877E87720706070A070E0702071AC
:1033C0006071A071E0716877002070BD08B5006879
:1033D000094988420FD109480268C9130A430260AB
:1033E000006800220840009011461320FFF702FCFD
:1033F0001320FFF7F3FB08BD0020004040100240FF
:10340000014620314A7F012A01D001207047022263
:103410004A770168CB6801221343CB6000680949F1
:10342000884202D00849884207D18168074B194079
:10343000062905D0DB1F994202D0016811430160C3
:1034400000207047002C01400004004007000100EC
:1034500070470000F8B504460068C6680569002793
:10346000A907002913DAB10711D5F91E016101205E
:103470002077206880698007204602D0FFF7E8FFA8
:1034800004E000F08BF8204600F089F82777680701
:1034900016D5700714D504202168C04308610220A6
:1034A0002077206880698005800F204602D0FFF7D2
:1034B000CFFF04E000F072F8204600F070F82777A4
:1034C000280715D5300713D508202168C0430861A7
:1034D000042020772068C0698007204602D0FFF7CB
:1034E000B7FF04E000F05AF8204600F058F82777BC
:1034F000E80616D5F00614D510202168C0430861EF
:10350000082020772068C0698005800F204602D0FF
:10351000FFF79EFF04E000F041F8204600F03FF87E
:103520002777E80708D0F00706D001202168C043BC
:103530000861204600F034F8280601D4A80407D515
:10354000300605D52168134808612046FFF717FFAC
:10355000E80507D5300605D521680F4808612046E3
:10356000FFF70CFF680608D5700606D540202168D5
:10357000C0430861204600F021F8A80608D5B0062F
:1035800006D520202168C04308612046FFF7F8FED9
:10359000F8BD00007FDFFFFFFFFEFFFF70477047B1
:1035A000044900680968884203D103488169491CBD
:1035B00081617047C40600203C00002070477047BE
:1035C0007047704770477047F8B503680446D8697C
:1035D00019689A68B64D06462E4025468035002E5D
:1035E00076D0B44EB44F16400F4037436FD0C70764
:1035F00006D0CF0504D501271F622B693B432B6101
:10360000830708D5D30706D0276802233B622B69BE
:1036100004273B432B61430708D5D30706D027680F
:1036200004233B622B6902273B432B61030709D527
:1036300020230B40334305D02668082333622E69CC
:103640001E432E61030509D54B0107D501232668CA
:10365000DB0233622B69202633432B612B69002B5D
:1036600033D080060AD520200140C0050240114316
:1036700004D0616F002901D020468847286921685D
:103680008968490602D42821084232D0204601F038
:1036900059F920688168490627D5EFF31081012286
:1036A00082F31088836840229343836081F31088FB
:1036B0002868002819D0814981632868FEF704FD35
:1036C000002802D02868816B8847F8BD00E016E02A
:1036D000860614D5012720263F070E4017403E439B
:1036E0000DD0616F00297DD1F8BD2046FFF76BFF3B
:1036F000F8BD2046FFF767FF00202861F8BDE66EA1
:10370000012E70D1C6066ED5CE066CD510221A6277
:103710002068816826464906403600294CDA2B6825
:10372000196849680904090CE8D0B78B8F42E5D9BC
:10373000F18319680968890634D4EFF310810123F5
:1037400083F3108803681701BB43036081F310887B
:10375000EFF31081012080F31088206883685B08F4
:103760005B00836081F31088EFF31081012080F308
:103770001088206883684027BB43836081F31088EA
:103780002020E8600020E066EFF31081012080F344
:103790001088206803689343036081F310882868C9
:1037A000FEF752FC02202067B08BF18B401A81B2E9
:1037B0002046FFF704FFF8BDB18BF38BC91AF38BDA
:1037C00089B2002BF7D00029F5D0EFF31083012642
:1037D00086F310880668FF272137BE43066083F30F
:1037E000108801E039E021E0EFF31083012080F33D
:1037F000108820688668324F3E40866083F31088C8
:103800002020E8600020E066EFF31083606701206D
:1038100080F31088206805689543056083F310885D
:10382000022020672046FFF7CAFEF8BDC60208D571
:10383000560206D50120000518622046FFF7C2FE99
:10384000F8BD06060CD501278026FF050E403A403C
:10385000164305D0A16F0029F2D020468847F8BD55
:10386000420614D54A0612D52046EFF310810122F4
:1038700082F310881A684024A2431A6081F31088EA
:103880002021A9600021816700F0F0F8F8BD020254
:1038900005D54A0003D52046FFF793FEF8BDC001C9
:1038A000FCD50029FADA2046FFF78AFEF8BD0000B1
:1038B0000F08000001000010200100043149000839
:1038C000FEFFFFEF002801D10120704770B50546CB
:1038D00004468035A868002803D12871204600F0EE
:1038E00027F82420A8602068016849084900016081
:1038F000A06A002802D0204600F052FF204601F0C6
:10390000C7FA012812D0206841680922D2029143E7
:103910004160206881682A229143816020680168A3
:10392000012211430160204600F0A0FF70BD00009D
:1039300070B586B000240646009401940294039466
:10394000049400681E49884238D11E48C16B012288
:1039500052041143C163C16B11400591426B0121B7
:103960000A434263406B0491084005900C2000908C
:1039700002200190052069460007FEF79FFD134DC8
:1039800011482860352068601020EC60A8606C61E8
:10399000AC61EC6180202C6228612846FEF736FC81
:1039A000002801D0FEF7CAF8F567002211461C2056
:1039B000AE62FFF71FF91C20FFF710F906B070BDCB
:1039C00000440040001002400800024008090020A6
:1039D00070B58C231B58202B01D0022070BD00290C
:1039E0000BD0002A09D0012483682403A34206D106
:1039F0000369002B03D1CB0701D0012070BD002348
:103A0000C36603685C6824020BD5EFF310840125BC
:103A100085F310881D680126B60635431D6084F3C2
:103A2000108801F0EDFA70BD10B500680A498842AF
:103A300011D1012209490A48FFF7CAFF00280AD11B
:103A40000849094B8868CA781A54401C88602028A5
:103A500001D30020886010BD004400403F000020DA
:103A6000100700203C000020E80800207047FEE717
:103A700010B50648006880694005400F034802D031
:103A8000FEF742FE10BDFEF76EFE10BD7006002070
:103A900010B5806A0022816B002900D08A63C16B57
:103AA000002900D08A6300F095FD10BDF0B40346F4
:103AB0000022CE0740332824B025002E05D05E78A2
:103AC00042222746B74300D0F2228E0705D544266E
:103AD0005B7832439C4300D02A43CB0B01D0B82300
:103AE0001A43102904D0202903D0402903D004E030
:103AF00090210A4301E040210A4300680168914394
:103B00000160F0BC70470000F0B41B4C436B002216
:103B1000F225F4269027A34214D0184CA34211D0CA
:103B2000174CA3420ED0CB0B00D0B822CB0700D04D
:103B30002A438B0700D53243102913D0202915D1F1
:103B40000A4313E0CB0B00D0B822CB0700D02A43A6
:103B50008B0700D53243102904D0202904D04029F6
:103B600003D003E03A4301E060210A4300680168A2
:103B700011430160F0BC704709410008814300080F
:103B80001D42000801688A69D243920701D40022CD
:103B90008A6200688169C943C90703D0816901222B
:103BA000114381617047F8B5054604464035687891
:103BB0002821814300262068002903D00821C16103
:103BC0002E70F8BD8169C903C90F00918169FE2378
:103BD0000F0C81681F408A05C168920D19408C4600
:103BE000E168022915D10621D3090F400B409F42FD
:103BF0000ED1A16C491CA164A16C0229E1D1A6647B
:103C00000821C1612E7020460099FEF75DFDF8BDC8
:103C100067460121C9032046FFF748FF2E703A4648
:103C200020460099FEF750FDF8BD0000F8B50546A6
:103C30000446403568780026AE703E4AE2626685EA
:103C4000626C0A436264282832D0292830D02A289E
:103C50002ED039492046FFF729FF2046FFF792FF73
:103C60006878602812D02021697020688269D24368
:103C700092060BD48269D243D20605D41022C261C7
:103C8000606C0422104360642068C1616663206B2D
:103C9000A16B2A4F002903D0112812D0212810D05F
:103CA000E16B002927D0122829D0222827D022E032
:103CB00003212046FFF7FAFE282068702048606341
:103CC000E5E720680168490404D5016801229203F0
:103CD00091430160A06BFEF735FA01280BD0A06B71
:103CE00087632E70A06BFEF7EFF9002802D0A06B5F
:103CF000816B8847F8BD204600F06CFCF8BD206859
:103D00000168090404D501680122D20391430160CE
:103D1000E06BFEF717FA0128EDD0E06B87632E7099
:103D2000E06BFEF7D1F90028E8D0E06B816B8847A3
:103D3000F8BD00000000FFFF03800000913A00087A
:103D40008544000870B504461548E06200262663E5
:103D50002020254640356870AE70C8436663400732
:103D600012D42068406A616A0870606A401C606210
:103D7000208D002808D0401E2085608D401E608563
:103D8000606C04210843606406492046FFF78EFEFC
:103D900021681020C8612E702046FEF763FD70BDBB
:103DA0000000FFFF03800000F8B50E4605462968B5
:103DB0002020C8612C4640346078212803D06078E8
:103DC000222806D00BE001212846FFF76FFE1120C4
:103DD00004E002212846FFF769FE122028632868C4
:103DE0004168264A11404160002725486F63E86218
:103DF000F043C10606D42A681021D161696C0422FF
:103E0000114369646178602905D1400703D42868AB
:103E1000406AC0B200902846FFF7B4FE686C617833
:103E2000602901D0002804D0696C2846FFF7FEFE07
:103E3000F8BD607821280ED060782228F8D12020A3
:103E400060702F63A078A77040282770284611D093
:103E5000FEF71AFDF8BD202060702F63A078A770D0
:103E600040282770284602D0FEF70FFDF8BDFEF768
:103E70000EFDF8BDFEF70AFDF8BD000000E800FEEB
:103E80000000FFFF70B50026044640340546A670CA
:103E900061782020212960700BD012202863022134
:103EA00028466E63FFF702FE26702846FEF7ECFCFC
:103EB00070BD11202863012128466E63FFF7F6FDCF
:103EC00026702846FEF7E1FC70BD0000F8B50268D8
:103ED000044610680E460090E76A2546403568782B
:103EE0002021D161212808D0292806D022280BD0F2
:103EF0002A2809D028280DD012E062492046FFF771
:103F0000D5FD212020630BE05F492046FFF7CEFD61
:103F1000222004E05D492046FFF7C8FD0020206311
:103F2000206841680122D203114341602068416842
:103F3000574A114041602046FFF724FE0098C043D5
:103F4000410409D421680A6801239B039A430A604B
:103F5000A16B00290BD10DE001040BD421680A6884
:103F60000123DB039A430A60E16B002902D0096850
:103F700049686185F1434907042200290FDB216864
:103F80009643496A636A1970616A491C6162218DAE
:103F9000002904D0491E2185618D491E6185618DEE
:103FA000002902D0616C11436164F143C90614D445
:103FB000C00612D4618D1020002920D02168C8616C
:103FC000606C10436064002F03D00120000687421C
:103FD00003D1616C2046FFF729FE0027AF706763AD
:103FE000606C00282AD0616C2046FFF71FFE6878BD
:103FF000282803D131462046FFF7A4FEF8BD697892
:10400000282908D1012149068F4204D13146204692
:10401000FFF798FEE1E7697829290CD1012109040D
:10402000CF4208D02168C8612046FFF7ABFD20468B
:1040300000F032F8D1E72168C861CEE7E06A154E9A
:10404000B0420BD0204600F027F8E66220206870CE
:1040500027632F702046FEF705FCF8BD68782228FC
:1040600007D02020687027632F702046FEF764FC7D
:10407000F8BD2020687027632F702046FEF73EFCB5
:10408000F8BD0000018000000280000003800000F5
:1040900000E800FE0000FFFF70B5016805460868F3
:1040A00000262C464034A670C043420405D408685C
:1040B000012292039043086006E0000404D40868DB
:1040C0000122D203904308606178282029290ED06C
:1040D00061782A290AD160702220286302212846AB
:1040E000FFF7E4FC26702846FEF708FC70BD607000
:1040F0002120286301212846FFF7D8FC2670284696
:10410000FEF71AFC70BD0000F8B5054604464035C0
:1041100028788C46012818D001202870CB43D90676
:104120000026D043002912DBC10610D421681020DC
:10413000C861606C04210843606420212046FFF7B9
:10414000E3FC2046FFF71EFD60E00220F8BD314988
:10415000314F1A0637D4420635D42068026840230E
:104160009A430260608D00282068406828D080054E
:10417000628D800DFF2A03D9FF2121859B0408E071
:10418000628D2285E26A8A4201D0E36A01E001235E
:104190005B060096218DCAB20146204600F004FA63
:1041A000608D218D401A608568782228206801681A
:1041B00002D03943016029E00122D2031143F9E71B
:1041C000800117D506E05A0618D4420616D4608D31
:1041D000002804D040212046FFF728FD16E0206883
:1041E0004268920112D4E26A8A4203D1416839439B
:1041F00041600BE02046FFF745FE07E0990605D435
:10420000800603D461462046FFF7CEFD2E700020C5
:10421000F8BD00000000FFFF00400000F8B50546B3
:10422000044640352878544E012818D001202870C3
:10423000C843C3060027D243002B12DBD30610D499
:1042400021681020C861606C04210843606420214B
:104250002046FFF759FC2046FFF794FC88E0022037
:10426000F8BD830708D4930706D4206D21688862BF
:104270000020C04320657BE0030633D4530631D4CD
:1042800001212046FFF712FC10212046FFF73CFCDD
:10429000608D002821D0608DFF280AD9FF22228559
:1042A0000097E06C012381B21B06204600F07CF9E8
:1042B0000BE0608D20850097208DC2B2E06C012359
:1042C00081B25B06204600F06FF9608D218D401AA7
:1042D0006085687822283DD035E040212046FFF7F0
:1042E000A5FC45E043063CD453063AD401212046C0
:1042F000FFF7DCFB10212046FFF706FC6878222838
:1043000000D11E4E608DFF280AD9FF22228500961B
:10431000E06C012381B21B06204600F045F90BE05A
:10432000608D20850096208DC2B2E06C012381B2A1
:104330005B06204600F038F9608D218D401A6085BB
:104340006878222806D02068016801229203114370
:1043500001600DE0206801680122D2031143016071
:1043600006E0800604D4900602D42046FFF71CFD28
:104370002F700020F8BD0000002000800024008085
:10438000F8B50446C06A8C46254640352978002693
:1043900001290ED0012129706146CB439F06D243EB
:1043A000002F08DB910606D461462046FFF78EFDFC
:1043B00065E00220F8BDD90659D4D10657D451047E
:1043C0001023002901DA110430D4E76B002F06D046
:1043D000110404D439684968002900D10126A16B71
:1043E000002905D0520403D409684968002901D086
:1043F000002E1ED06978282908D10121490688425B
:1044000004D161462046FFF79DFC38E069782929F0
:104410000CD101210904C84208D02068C36120469C
:10442000FFF7B0FB2046FFF737FE28E02068C361A6
:1044300025E02168CB61616C0422114361646978D5
:10444000002802D09205904219D1212906D02929AD
:1044500004D0222904D02A2902D003E0212000E040
:1044600022202063616C2046FFF7E0FB07E018077D
:1044700005D4100703D461462046FFF794FB0020C3
:104480002870F8BDF8B50446C06A254640352B783B
:10449000012B0CD001232B70CB439E06D243002E60
:1044A00007DB960605D42046FFF710FD77E00220D3
:1044B000F8BD3C4EDF0632D4D70630D4638D1022CF
:1044C000002B0ED02168CA61616C04221143616423
:1044D000002801D0B04262D1616C2046FFF7A6FBF4
:1044E0005DE06B78282B07D101235B06984203D14E
:1044F0002046FFF727FC52E0697829290CD10121D9
:104500000904C84208D02068C2612046FFF73AFB80
:104510002046FFF7C1FD42E02068C2613FE05F072F
:1045200019D4570717D4618D00290CD02168496A26
:10453000626A1170616A491C6162218D491E218580
:10454000618D491E6185618D002928D101210904F1
:10455000C84221D123E01F0705D4170703D4204602
:10456000FFF721FB1BE0990719D4910717D4618D40
:1045700000290DD0606A216800788862606A401C5A
:104580006062608D401E6085208D401E208506E0A3
:10459000B04201D0002802D12046FFF77DFD002067
:1045A0002870F8BD0000000110B48905890D1204BF
:1045B0001143019C1943006821434900426849089E
:1045C000630D034C23439A430A43426010BC704777
:1045D000FF63FF0310B5014640314B780022602B8A
:1045E00004D002630A70FEF7DBF810BD20234B7085
:1045F00002630A70FEF767F810BDFEE7704700001F
:1046000070B51C4C2168792914DD01204002002579
:10461000814210DB184A0D239B0125602068410070
:104620008D18ED18ED8B401C555220605028F5DB9D
:104630005020206070BD104800F0A6FE21680E4892
:104640002D3901F0E3F80D4E50283062F2DD0146BD
:10465000094800F04FFF0028ECDD094A317850543A
:10466000491C31700121890203482560FBF77CFF5A
:1046700070BD000038000020F40000203C00002045
:1046800068080020704710B5FEF750FA10BD70B5ED
:1046900092B034216846FBF769FF002401200E9494
:1046A0000F94109440021194FEF7C6FA02254020A0
:1046B0000095059008200A9080030B90EE01079565
:1046C0000003049403960C90089509946846FEF73D
:1046D00027FC002801D072B6FEE707200E90109448
:1046E00002210F9511940EA8FEF7CEFA002801D0F2
:1046F00072B6FEE705220121120709063046FEF7D1
:10470000DFFB12B070BD704710B50248FEF7A2FE85
:1047100010BD0000C406002070B402681B4B1C4E84
:10472000984201D0B04203D17024A2434C68224386
:10473000184C194D984208D0B04206D0174EB042DE
:1047400003D0A04201D0A84204D103263602B243CE
:10475000CE6832438026B2434E69324302608A6893
:10476000C2620A688262984203D0A04201D0A84285
:1047700001D109690163012141610169C90703D0C0
:10478000016949084900016170BC7047002C014073
:104790000004004000440140004801400020004067
:1047A00010B4018D090707D501684A680123DB03AE
:1047B0009A43836B1A434A60018DC90707D0016889
:1047C0004A6801235B049A43C36A1A434A60018D15
:1047D000890707D501684A6801231B049A43036BC4
:1047E0001A434A60018D490707D501684A680123C9
:1047F0009B049A43436B1A434A60018DC90607D54F
:1048000001688A6801231B039A43C36B1A438A60B9
:10481000018D890607D501688A6801235B039A43E5
:10482000036C1A438A60018D490612D501684B68F2
:1048300001221205446C934323434B60416C914227
:1048400007D101684A6803235B059A43836C1A43C6
:104850004A60018D090607D501684A680123DB0417
:10486000C06C9A4302434A6010BC7047F0B50546DD
:1048700083B00026803504462E61FDF7D1FE0190FD
:10488000206800682027000700281ADA27480090CF
:10489000002239042046019B00F04EFC002810D075
:1048A000EFF31081012080F31088206802688023D4
:1048B0009A43026081F31088AF602E71032003B029
:1048C000F0BD20680068400728D5184800900121F5
:1048D000002289052046019B00F02EFC00281DD0F7
:1048E000EFF31081012080F3108820680268FF2315
:1048F00021339A43026081F31088EFF31081012085
:1049000080F310882068826852085200826081F328
:104910001088EF602E71032003B0F0BDAF60EF6030
:10492000E66626672E71002003B0F0BDFFFFFF0191
:1049300010B5806A002201464031CA83CA82FEF760
:1049400042FE10BD10B4EFF31082012181F31088F4
:1049500001680B68FF242134A3430B6082F31088A5
:10496000EFF31082012181F3108801688B680D4CF0
:1049700023408B6082F31088C16E01290AD1EFF3C6
:10498000108281F3108801680B681024A3430B6028
:1049900082F3108820228C210A500021C1664167D1
:1049A00010BC7047FEFFFFEF70B501464031024674
:1049B00080320B8CD56814460268222D04D0906991
:1049C00008210843906170BD526A856D1A402A80A3
:1049D000826D921C8265CA8B521ECA83CA8B002AC2
:1049E000F1D1EFF31083012282F310880268156879
:1049F000FF262136B543156083F31088EFF310834B
:104A0000012282F31088026895686D086D00956038
:104A100083F310882022E260002444670467026860
:104A200053681B020BD5EFF31083012585F3108823
:104A300015680126B606B543156083F31088C26E6B
:104A4000012A02D0FEF7F0FF70BDC466EFF31083B9
:104A5000012282F31088026815681024A5431560AE
:104A600083F310880268D369DB43DB0600D4146249
:104A7000898BFEF7A4FD70BDF0B5074604464037AC
:104A800085B0388C03902068C669016801918168FF
:104A9000254680350091E968222905D081690822E0
:104AA0001143816105B0F0BD388D029070E020683F
:104AB000406A039AA16D10400880A06D801CA0651B
:104AC000F88B401EF8832068C669710729D0F1076A
:104AD00007D00199C90504D501210162286908435D
:104AE0002861B00709D50098C00706D021680220C8
:104AF00008622869042108432861700709D50098D5
:104B0000C00706D0216804200862286902210843F2
:104B100028612869002804D02046FEF754FD0020B3
:104B20002861F88B002833D1EFF31081012080F346
:104B3000108820680268FF2301339A43026081F3E2
:104B40001088EFF31081012080F3108820688268BC
:104B5000304B1A40826081F310882020E8600020EA
:104B6000606720672068416809020BD5EFF3108168
:104B7000012282F31088026801239B069A43026097
:104B800081F31088E06E01282BD02046FEF74CFF01
:104B90000298002801D0B00689D4F88B002881D073
:104BA000398D814200D87DE7EFF31081012080F339
:104BB00010882068826801231B079A43826081F372
:104BC00010881548EFF310816067012080F310888A
:104BD0002068026820231A43026081F3108805B020
:104BE000F0BD0020E066EFF31080012181F3108812
:104BF00021680B68102293430B6080F310882068B3
:104C0000C169C943C90600D40262B98B2046FEF7C8
:104C1000D6FCBDE7FEFFFFEFA949000870B50146CD
:104C20004031024680320B8CD56814460268222D32
:104C300004D0906908210843906170BD526A1A40FF
:104C4000836D1A70826D521C8265CA8B521ECA8394
:104C5000CA8B002AF1D1EFF31083012282F310886E
:104C600002681568FF262136B543156083F3108866
:104C7000EFF31083012282F31088026895686D08B3
:104C80006D00956083F310882022E2600024446761
:104C90000467026853681B020BD5EFF310830125EC
:104CA00085F3108815680126B606B543156083F3B1
:104CB0001088C26E012A02D0FEF7B6FE70BDC4662F
:104CC000EFF31083012282F3108802681568102424
:104CD000A543156083F310880268D369DB43DB06C4
:104CE00000D41462898BFEF76AFC70BDF0B50746EC
:104CF0000446403785B0388C03902068C669016847
:104D000001918168254680350091E968222905D006
:104D1000816908221143816105B0F0BD388D029090
:104D200070E02068406A03990840A16D0870A06D8A
:104D3000401CA065F88B401EF8832068C669710787
:104D400029D0F10707D00199C90504D501210162D5
:104D5000286908432861B00709D50098C00706D024
:104D6000216802200862286904210843286170072D
:104D700009D50098C00706D0216804200862286978
:104D80000221084328612869002804D02046FEF744
:104D90001AFC00202861F88B002833D1EFF3108132
:104DA000012080F3108820680268FF2301339A43B2
:104DB000026081F31088EFF31081012080F31088E6
:104DC00020688268304B1A40826081F3108820206E
:104DD000E8600020606720672068416809020BD501
:104DE000EFF31081012282F31088026801239B06F1
:104DF0009A43026081F31088E06E01282BD0204690
:104E0000FEF712FE0298002801D0B00689D4F88B74
:104E1000002881D0398D814200D87DE7EFF31081E1
:104E2000012080F310882068826801231B079A43C1
:104E3000826081F310881548EFF3108160670120CC
:104E400080F310882068026820231A43026081F3EF
:104E5000108805B0F0BD0020E066EFF3108001215E
:104E600081F3108821680B68102293430B6080F354
:104E700010882068C169C943C90600D40262B98B91
:104E80002046FEF79CFBBDE7FEFFFFEF1D4C000830
:104E9000F8B5044681680069E2690143606900254C
:104EA00010430143206802684C4B1A400A430260D9
:104EB00020684168032212039143E2681143416074
:104EC000216AA069014320688268454B1A400A4361
:104ED00082602068C16A626A090909011143C162DE
:104EE0004049206888420FD13F4840698007800FC1
:104EF00010D0012804D002280CD0032809D101E0E9
:104F0000042007E0082005E03849884201D100204C
:104F100000E010200122E169D203354B354E364FB7
:104F200091422AD1002806D0022807D0042807D0B1
:104F3000082842D11FE0FDF769FF03E0184603E0AF
:104F4000FDF778FF00283FD0616A4900715AFBF7EE
:104F50000FFB616840004A088018FBF709FB014617
:104F60001039B94229D8254901400007420F20686D
:104F70000A43C26028E01046E6E7002806D002286F
:104F800007D0042807D0082817D118E0FDF73EFF06
:104F900003E0184603E0FDF74DFF002814D0616AD6
:104FA0004900715AFBF7E4FA61684A088018FBF778
:104FB000DFFA01461039B94203D9012504E0104651
:104FC000EDE7216880B2C86020460121403041856C
:104FD000018500206067A0672846F8BDF369FFCF10
:104FE000FFF4FF110038014040100240004400402F
:104FF0000024F40000620008EFFF0000F0FF000052
:10500000F0B48165014640318A83CA830025456733
:10501000012483682403FF26A34204D10369002BE3
:1050200013D1404B0AE07F27002B09D00126360719
:10503000B3420CD10369002B05D03F230B8407E05A
:105040000369002B01D00F8402E00E8400E00D8480
:10505000034680331D612225DD60EFF310850123B7
:1050600083F3108803689E6801273E439E6085F3A2
:105070001088436E7D07AB4229D1098D914226D815
:105080008168A14202D1016900291DD026494167EA
:10509000016900290CD0EFF31082012181F31088FF
:1050A00001680B68FF24013423430B6082F31088EE
:1050B000EFF31081012282F31088006882680123D7
:1050C0001B071A43826018E018494167F0E78168BE
:1050D000A14202D10169002912D015494167016935
:1050E00000290FD0EFF31081012282F310880068AD
:1050F0000268FF2321331A43026081F310880DE018
:105100000C494167EFF31081012282F31088006897
:10511000026820231A43026081F31088F0BC00204B
:1051200070470000FF010000ED4C0008794A0008BC
:105130001D4C0008A9490008FFB50446006881B06D
:105140000D460A9EC1692846884326D0002003994F
:10515000884242D127468037701C35D0FDF760FA6F
:105160000499401AB0421AD8002E18D0206801685D
:10517000490729D5802D27D0402D25D0C169C943A5
:1051800009070FD4082505622046FFF7DBFB3D61C8
:1051900000203871012005B0F0BD0120D7E70320C1
:1051A00005B0F0BDC069C04300050DD401202168E1
:1051B000C00208622046FFF7C5FB202038610020AE
:1051C0003871032005B0F0BD2068C16928468843C6
:1051D00006D0002003998842BED0002005B0F0BD63
:1051E0000120F7E710B50248FEF7EEF910BD000008
:1051F000100700200FB410B503AA0D480299FBF761
:105200004BF80B48FBF772F90A4AD1694906FCD5FD
:105210000021002808D9064C635C9362D3695B06C1
:10522000FCD5491C8142F7D310BC08BC04B0184718
:10523000A807002000440040F8B5040C8BB22646B5
:1052400082B25E43104658430D0C370C36040021E1
:105250008019164679416E43370C3604801926466C
:1052600079416E438919F8BD4900CA020243100012
:1052700000D004204A0D01D001221043044A490DF8
:10528000914201D102210843012800D10520704735
:10529000FF07000030380A2801D2012070470020A3
:1052A0007047000070B505461348114C114900685D
:1052B000FBF75EF900212246424304D0444300BF7D
:1052C000491C8C42FBD8012280210C48FDF7A1F932
:1052D000284600F0E7FE284600F020FE002000F0FF
:1052E00051FE51210901022000F018FF70BD00009D
:1052F00050C30000404B4C007000002000040050E0
:10530000F0B50F4B0F4D9B88DC049B059B0FE40F02
:10531000ED5C64186C43E3B29E46002300290DDD6A
:10532000541CA4465E00845B270A1C466C43175538
:10533000865D67465B1CE6558B42F3DB7046F0BD2D
:1053400074000020FC610008F8B5060009D00023B5
:105350001046002915DDF75C8022174203D0012595
:1053600002E0FBF7BBF80025C40B4004000CA5428B
:1053700001D0044C60405210002AEEDC5B1C8B42D2
:10538000E9DBF8BD21100000F8B54E1E214F0022C8
:105390000D460446153D7E63786B4100615A401E00
:1053A0008A187863A842F7DC14211046FBF7EEF860
:1053B00002467E63796B4800205A801A00D540422D
:1053C000052825DA491E7963A942F3DC7868111AA9
:1053D00000D5494203291BDB801E7E63002E09DDB8
:1053E0007B6B5900615A814200DA08465B1E7B6381
:1053F000002BF5DC101AC10F081840107A603860D5
:105400000A2801DD0A2002E0022801DA02203860C1
:10541000F8BD0000000000200022322963DBF8B54F
:105420000546481E0E460C46293E002801DB014673
:1054300002E0C11DFF31FA314900695A401E8A1845
:10544000B042F2DC28211046FBF7A0F807462648B8
:105450000069002805D1600040194038C18F2248FA
:1054600001612248641E807C0090410040180321A5
:10547000FBF77EF80246002C01DB204602E0E01D2F
:10548000FF30FA304000285AC11B00D549428A42F9
:1054900028DD641EB442EEDC134D154E68698100B0
:1054A000401C77506861022801DB00206861002100
:1054B00008468200B258401C51180228F9DBC80F78
:1054C00040184710002403210098FBF751F8A10071
:1054D0007158C91B00D54942884203DB641C022C69
:1054E000F5DB2F61F8BD70473C0000204808002024
:1054F000F8050020F0B50646480085B002908019F6
:105500004038C58FB84F0C460020FF21B8600131EC
:10551000B648FBF729F8601E0190786328D4384616
:1055200041680068081A0090AF4B586B41008C46E8
:10553000725A00998A4210DC19468968AB4B4F00B9
:10554000DA53A94A491C91606146715AA94200D2B6
:105550000D46A549401E4863E6D5A34EB068052810
:1055600006DBA34A029989184039C98FA94204D899
:105570009D490020886005B0F0BD0021201A401E22
:1055800031617063A0420FDA994D4200AB5A521953
:1055900052889A1A4B1E9A4202DD1146421C326111
:1055A000401C7063A042F0DB8F480021C160056998
:1055B0004563002D23DB8C48466B8D48710008182D
:1055C00040380091C78F818F428F038F7918D2188E
:1055D0008918C28E808E891808180621FAF7C8FF2C
:1055E000834A0099515AB94205D3814203DB7E4870
:1055F000416BC16003E07C48761E4663DBD52146E3
:1056000028317948223441610199416302947648F6
:10561000446B77486700381846888188C2880389B8
:105620007118D218891842898089891808180A21A6
:1056300048430621FAF79CFF00906D48C05BB042DA
:1056400008D30A2148430099884203DB6648416B2E
:10565000416105E06448641C446302988442D6DBDF
:10566000614E0023B56101987063A84214DD604C5F
:105670004100625A09194039CC8F5F1E111BB94293
:1056800001DD0B46B061A24202D8B169A94203DC38
:10569000401E7063A842EADC0020F0613062B06214
:1056A0007062F0680190706301980524031B706BB1
:1056B0004F4F4100795AF269401E8918F1617063B9
:1056C0008342F4DB484E0A21F06948432146FAF749
:1056D0005DFFF061029075632E19AE420ADD42480B
:1056E000416B036A4A00BA5A491CD21802624163EC
:1056F0008E42F5DC3C4E0A21306A48432146FAF7D7
:1057000045FF3062B06903907063061B86420ADA77
:105710003548416B836A4A00BA5A491ED2188262E0
:1057200041638E42F5DB30480A21806A48432146B6
:10573000FAF72CFF2C4988620846466946633319FC
:10574000B3420ADD416B2A4F4A00BA5A476A491CE4
:10575000D219426241638B42F4DC234F0A21786AFA
:1057600048432146FAF712FF78620399204A741AD7
:105770003C630199691AF96203917100535A8918BF
:1057800049880A2259185143009A49088E1A0299E9
:10579000451A002E01DB304600E070420A21FAF77C
:1057A000F5FE0719281E00DA68420A21FAF7EEFE14
:1057B000391803980C4F0A187A630094124C034668
:1057C0000196029520680BA11030FAF777FD20684A
:1057D0001030FFF70FFD786BE12800DACBE6FF20F1
:1057E000786305B0F0BD000000000020F404002044
:1057F000F4000020523A25642C25642C25642C25C5
:10580000642C25640A0000006000002070B4184C6D
:105810002268022A28DB4B001B18403B6668DD8F9C
:10582000B21A954220DB9B8F93421DDB14291BDBB0
:10583000C91E61630A2917DD636B5900455A9542F9
:105840000EDC09184039CD8F954209DC8D8F9542C9
:1058500006DC498F914203DCA08E70BCC0B2704759
:105860005B1E63630A2BE7DC70BC002070470000FE
:105870000000002088B0FDF761F9FEF708FF002462
:10588000BE4D00940194029403940494686B022723
:1058900038436863686B38400590686B0126304375
:1058A0006863686B0022304005908821B448FCF79B
:1058B000B0FE05200022B3490007FCF7AAFE8820AD
:1058C00000900294694601960394AD48FCF7F6FDFA
:1058D000AC480090052002946946019603940007A5
:1058E000FCF7ECFD20200090112000040190052021
:1058F000694602940007FCF7E1FD40200090052076
:105900000194694602940007FCF7D8FDA8150090A1
:105910000520029403946946019704940007FCF75C
:10592000CDFDA86B3043A863A86B002230400090E7
:1059300011460920FDF75EF90920FDF74FF993485C
:105940009149016092494160046144618461C4618C
:10595000C660082104628160FCF724FF002801D0A2
:1059600072B6FEE700218948FCF760FE002801D0EE
:1059700072B6FEE700218548FCF77FFE002801D0C3
:1059800072B6FEE78448834901608460C46083493D
:10599000046141608461C461046244620C218462D8
:1059A0004161FDF78FFF002801D072B6FEE77D4808
:1059B000009401947A49029401608460C4600905EE
:1059C000046141600421416104764476847676491D
:1059D000C6610C70446284620C7304634463846324
:1059E0000C77C464FCF706FA002801D072B6FEE713
:1059F0006E4800900194694602946A48FCF7D8F812
:105A0000002801D072B6FEE76A48694946608460A2
:105A100001607D21046149028461C160FDF7B1FC30
:105A2000002801D072B6FEE76846FCF761FC0698D4
:105A3000C10110D50121090688430690FCF72AFD13
:105A4000FCF714FD6846FCF77DFCFCF7F1FCFCF765
:105A5000F9FCFCF7D9FC584F5648BC60FC603C711F
:105A6000FDF7CEFC012255494B48FDF7B1FF33212C
:105A70005348FAF77BFD534D0A20A874504852A1B1
:105A80007862FAF71BFC022028740820FFF70AFC52
:105A9000514800F0AFF96C743C613C48FC61FCF784
:105AA0006BFE002801D072B6FEE74C4F0520202186
:105AB0000007FCF7A9FD0028F8D1474800F09AF943
:105AC00045487D214068C900FAF760FD0646687CBC
:105AD000012803D1314642A0FFF78CFB3046424EED
