:020000040800F2
:10000000E00F002061020008D9460008CB39000843
:1000100000000000000000000000000000000000E0
:100020000000000000000000000000006147000820
:100030000000000000000000DB46000863470008E5
:100040007302000800000000730200087302000839
:1000500073020008730200087302000873020008AC
:10006000000000007D1B00087302000873020008F6
:100070007302000873020008730200080000000009
:10008000730200080000000000000000E5470008BF
:1000900000000000730200087302000873020008E9
:1000A000CD390008730200087302000873020008CB
:1000B000895200080000000000000000000000005D
:1000C00000F002F800F0BDF80CA030C80838241881
:1000D0002D18A246671EAB4654465D46AC4201D180
:1000E00000F0AFF87E460F3E0FCCB64601263342F5
:1000F00000D0FB1AA246AB463343184764610000A8
:1001000084610000103A02D378C878C1FAD8520747
:1001100001D330C830C101D504680C6070470000BD
:100120000023002400250026103A01D378C1FBD813
:10013000520700D330C100D50B60704710B56E294F
:1001400002D100F087FB10BD702902D100F0C1FC84
:1001500010BD662902D105F0B5FF10BD652902D199
:1001600005F0B0FF10BD672902D105F0ABFF10BD4F
:10017000612902D105F0AEFF10BD03681B0A01D34F
:1001800080231943692902D100F0AEF810BD64291B
:1001900002D100F0A9F810BD752902D100F0A4F831
:1001A00010BD6F2902D100F03FFC10BD782902D1AB
:1001B00000F07CFC10BDE92902D100F0DBFB10BD92
:1001C000E42902D100F0D6FB10BDF52902D100F0E0
:1001D000D1FB10BDEF2902D100F032FC10BDF8298F
:1001E00002D100F071FC10BD0368DB0901D380234C
:1001F0001943632902D101F054F810BD732902D1CB
:1002000001F057F810BDE32902D101F061F810BDEB
:10021000F32902D101F064F810BD002010BD1FB514
:1002200001F0C8F804000020002105F035FF401C53
:1002300060600020002105F019FFE0601FBD10B5CF
:1002400010BD01F08FF81146FFF7E9FF05F0CAFB7A
:1002500001F024FC03B4FFF7F2FF03BC00F03AFA0C
:100260000748804707480047FEE7FEE7FEE7FEE74E
:10027000FEE7FEE704480549054A064B70470000C3
:10028000E3470008C1000008E0090020E00F00205B
:10029000E00B0020E00B00201CB50C46064B7B4415
:1002A00069460090204600F0EEFA044600206946B8
:1002B00000F0FCFA20461CBD0B0600000FB41CB574
:1002C000084B06AA7B4469460090059800F0DBFACB
:1002D00004460020694600F0E9FA20461CBC08BC30
:1002E00004B01847E5050000F7B50025752910682A
:1002F000009914A611D000F01AFA002802DA404240
:1003000011A608E0009909688A0701D50FA602E046
:10031000490704D50EA6012501E000F011FA009F5F
:100320000024243704E000F0E7FB30313955641C29
:100330000028F8D12B4632462146009800F032FAC8
:10034000FEBD0000000000002D0000002B0000009A
:1003500020000000F3B50446002081B02062204652
:10036000E1688847002872D0252802D06268A16819
:10037000ABE0594F00267F442046E168884720289B
:10038000054608DB312D06D2781920380078002880
:1003900001D00643F0E7B00701D5042086430020D2
:1003A000E0610746A0612A2D0AD0284604F0E6FF46
:1003B000002827D0B8000019303D0090856119E071
:1003C0000298BA00121902C8916102902046E168B1
:1003D0008847012F054617D1E06900281FDA202041
:1003E00086431CE000980A2180694843009940191F
:1003F000303888612046E1688847054604F0BEFF32
:100400000028EFD1012F0AD02E2D08D12046E16817
:1004100088470546202006437F1C022FC3DBA069C6
:10042000002803DA4042A06101200643F00701D012
:10043000102086436C2D0BD0682D09D04C2D3CD05C
:100440006A2D38D0742D38D07A2D36D016E040E0A1
:10045000E1682F4620468847B842054609D16C2FEF
:1004600029D001208002E1680643204688470546DE
:1004700004E06C2F1DD0FF2001300643002D28D052
:1004800028464138192803D80120C00206432035E8
:10049000204626602946029A1646FFF74FFE00289E
:1004A00010D001280BD0F61DF008C00008300290D3
:1004B00055E74020E1E78020D5E70020D3E7361D4F
:1004C00002964CE762682846A1689047206A401C63
:1004D00044E7206AFEBD0000E65D000010B5002084
:1004E00000F004FBFFF7ABFE012000F0F3F810BDB5
:1004F00030B5441C03E00178401C00290DD0810771
:10050000F9D10B4BDD0104C8D11A91432940FAD02F
:10051000001B0A0603D0C01E30BD001B30BD0A04FC
:1005200001D0801E30BD0902FCD0401E30BD00004D
:100530000101010101E004C0091F0429FBD28B075E
:1005400001D50280801CC90700D0027070470029C5
:100550000BD0C30702D00270401C491E022904D3ED
:10056000830702D50280801C891EE3E70022EEE7A4
:100570000022DFE7002203098B422CD3030A8B42BF
:1005800011D300239C464EE003460B433CD400228B
:1005900043088B4231D303098B421CD3030A8B429D
:1005A00001D394463FE0C3098B4201D3CB01C01A6B
:1005B000524183098B4201D38B01C01A5241430936
:1005C0008B4201D34B01C01A524103098B4201D324
:1005D0000B01C01A5241C3088B4201D3CB00C01A91
:1005E000524183088B4201D38B00C01A5241430809
:1005F0008B4201D34B00C01A5241411A00D201462E
:100600005241104670475DE0CA0F00D049420310C6
:1006100000D34042534000229C4603098B422DD315
:10062000030A8B4212D3FC22890112BA030A8B42BD
:100630000CD3890192118B4208D3890192118B420C
:1006400004D389013AD0921100E08909C3098B4291
:1006500001D3CB01C01A524183098B4201D38B01D4
:10066000C01A524143098B4201D34B01C01A524177
:1006700003098B4201D30B01C01A5241C3088B42BC
:1006800001D3CB00C01A524183088B4201D38B00A7
:10069000C01A5241D9D243088B4201D34B00C01A31
:1006A0005241411A00D20146634652415B10104646
:1006B00001D34042002B00D54942704763465B108E
:1006C00000D3404201B50020C046C04602BD70477D
:1006D0007047704701491820ABBEFEE726000200B4
:1006E00070B5044685690068C10601D5302600E072
:1006F0002026C00707D070BD62683046A1689047C9
:10070000206A401C20626D1EF6D570BD70B504468F
:1007100085690078C00707D170BD6268A168202094
:100720009047206A401C20626D1EF6D570BD096896
:100730004A0501D540B27047C905FCD500B27047E3
:1007400009684A0501D5C0B27047C905FCD580B219
:10075000704770B50C460546012A05D028788006FA
:1007600000D5EA69002302E0012305E05B1C934207
:1007700002D2E05C0028F9D1A869E618C01AA86185
:10078000286AC01828622846FFF7AAFF04E06A68B2
:100790002078A968641C9047B442F8D32846FFF734
:1007A000B5FF70BDFFB504460D4681B02430009002
:1007B0002168880604D51022E0699143216000E099
:1007C0000120A84201DD471B00E000270498A16931
:1007D0007A191018081AA0612078C00602D42046A1
:1007E000FFF77EFF002608E003986268A168805D3D
:1007F0009047206A401C761C206204988642F3DBF6
:100800002078C0060AD52046FFF76AFF06E0626836
:10081000A16830209047206A401C206238467F1E25
:100820000028F4DC07E000986268A168405D90470A
:10083000206A401C206228466D1E0028F3DC2046FA
:10084000FFF764FF2078000602D5022005B0F0BD56
:100850000120FBE711680268006A530501D50870A2
:1008600009E0D30501D5088005E0130602D5C217BB
:1008700005C100E0086001207047000001694A1CC2
:1008800002610878704700B58FB002910021059190
:100890000549019379440391114604906846FFF796
:1008A00059FD0FB000BD0000E5FFFFFF0A681070A2
:1008B000521C0A6070470000F7B50446154686B022
:1008C0002B487844002703C83E460090019111E070
:1008D00007986A467100415A02A800F005FD411CC4
:1008E00007D02178890603D5E269391891420ED8DC
:1008F0003F18761C2078800602D5E069B84206DDF4
:10090000AE42E5DB07987100405A0028E0D1A069AB
:10091000C01BA0612046FFF7E3FE154878445A3813
:1009200003C800900020019116E041006A46079834
:10093000415A02A800F0D8FC0590401C0AD00025BE
:1009400005E0626802A8A168405D90476D1C0598AB
:100950008542F6D30498401CB0420490E5DB206A3F
:10096000C01920622046FFF7D1FE09B0F0BD00009B
:10097000AE580000F7B5D21D0025D20815A6D2004A
:10098000F52905CA11D0002A05DA0021404291411B
:1009900011A60A4608E0009909688B0701D50FA641
:1009A00002E0490701D50EA601251146009F00244B
:1009B000243704E000F0B5F830323A55641C0246A2
:1009C0000A43F7D12B46324621460098FFF7EAFE4C
:1009D000FEBD0000000000002D0000002B00000004
:1009E0002000000070B504460021243408E05507BB
:1009F000D2086D0F303565545D072A43DB08491C6A
:100A000015461D43F3D10468002310A2250708D51D
:100A1000A40601D4002904D0C46901230CA2641ED9
:100A2000C461FFF7BFFE70BD10B5044621461068D3
:100A3000FFF786FE002302462046FFF7D3FF10BDD6
:100A4000D21DD108C9000CC9CCE70000000000008D
:100A500030000000F8B50F460188090502D5224C88
:100A60007C4402E0204C7C440E34054600212435B1
:100A700008E016071209360FA65D6E541E073243B2
:100A80001B09491C16461E43F3D122460478002355
:100A9000240705D5702F06D0002901D0022311327A
:100AA000FFF780FEF8BD01231032F9E770B5044668
:100AB0000D4621461068FFF743FE002302462946F3
:100AC0002046FFF7C7FF70BDD21DD308DB000CCB5B
:100AD000C0E730B40368202412682343036008236E
:100AE000C36130BC0023B5E71857000010B500F013
:100AF00021FC00F019FC10BD01468008081A02090B
:100B00001018020A1018020C1018C00882001218DF
:100B10005200891A01E0401C0A390A29FBD27047A9
:100B200070470B4670B5024689078008084319468E
:100B30009D08141AA94125090807054308092C191D
:100B40004841250A01060D43010A2C194141200C98
:100B50000D0428430D0C00194D41002140194D4151
:100B6000C00869070843E908840F8D002543840005
:100B700024184D4124196D41121BAB4107E0092592
:100B8000ED432C11521963410024401C61411C4665
:100B90000A250026551BB441F1D270BD7047FFB540
:100BA0000C461E468FB003CA089009914F007D0D78
:100BB00000D16D1E002108460020C0460321099A7D
:100BC00089050840002A03DA82008018400808409E
:100BD000800D01280A9002DD0020C0430A90089889
:100BE00007430DD0F048F1492818484307141898D6
:100BF00000281DD07542291E1DDD0A9842421BE0C7
:100C00001898012802D00020302104E00020F2438F
:100C100005E02154401CB042FBDB30460022189B0B
:100C2000002121540F998B600A60486013B0F0BD19
:100C3000BD1B6D1CDFE70A9A002900DA69420BA888
:100C400000F000FC0BAB07CB03AB07C30899099876
:100C500000F064FC6B4607C30146D5480918002D17
:100C600000910BDDD24903980A9A494240180023AB
:100C700003A90390684600F0C1FE08E003990A9AB0
:100C80000023081803A90390684600F061FE6B4634
:100C900007C30004000C03D00020C043410800E05B
:100CA0001046189A002A03D00022009215461EE032
:100CB000751E05D4FFF735FF303262556D1EF9D52C
:100CC00001220843079602D000227F1C04E020780E
:100CD000302801D100227F1E002A069787D01EE00F
:100CE000112D07DAFFF71DFF303262556D1C0246E9
:100CF0000A43F5D1084303D00098002819D00EE02C
:100D00000021681E05E0235C625C63542254401E8F
:100D1000491C8142F7DBA81B401E07950690079AE5
:100D200018990020A0540F98079B069A81600CC068
:100D30007CE711260020189059E7D21DF0B50D462A
:100D40000446D10893B0C90003C90C900D9104F07A
:100D5000DDFA02460D98C00F01D02D2007E0206873
:100D6000810701D52B2002E04007C00F4001032A74
:100D70000F9001D0072A05DB03462946204600F0E4
:100D80001DFB0EE12078800601D5E76900E006270B
:100D90002846652D04D0662814D0672D69D12DE032
:100DA0000020112F009001DB112300E07B1C0CAA16
:100DB00003A910A8FFF7F3FE1199002610987D1CD7
:100DC0000E9142E001203B460CAAC0070B90012087
:100DD000009003A910A8FFF7E2FE119D1298109948
:100DE000002600280E9501D1781C0D18781B02D41E
:100DF00046427D1C761EE81B00903AE0012F00DA87
:100E000001270020112F009001DD112300E03B4657
:100E10000CAA03A910A8FFF7C2FE11993D4610982D
:100E200000260E91217809070BD40E99A94200DA09
:100E30000D4603A9012D04DD4A19203AD27F302A3C
:100E400006D0B84201DA011D04DA012100910FE059
:100E50006D1EEFE7002802DC86192D1A03E0411C05
:100E6000A94200DD0D46801B401C00900120C007F8
:100E70000B902078000705D40098A84202DB0020E0
:100E8000C043009069460020C8720B98012102AF50
:100E90000337C907884225D0022010902B201190DB
:100EA0000B9800280BDA40420B902D20119006E0A1
:100EB0000B98FFF721FE30317F1E0B90397010998F
:100EC000481E00291090F3DC0B980028F0D11198EF
:100ED0007F1E38702088000501D5452000E0652080
:100EE0007F1E387001A8C01BC01D0B900F980028F2
:100EF00000D0012041190098C01709180B98081854
:100F0000A169081A401EA0612078C00602D42046BC
:100F1000FFF7E6FB0F98002805D06268A1689047AC
:100F2000206A401C20622078C00625D52046FFF7A5
:100F3000D7FB21E0002E07DB0E98B04204DD03A8AA
:100F40006268805DA16802E06268A1683020904715
:100F5000206A761C401C20620098401E00280090E9
:100F60000AD100F027FAC06862680168405CA16895
:100F70009047206A401C206228466D1E0028D9DC5C
:100F800007E062683878A1687F1C9047206A401C9F
:100F900020620B99481E00290B90F2DC2046FFF7D7
:100FA000B5FB032042E6000001FCFFFF104D0000EE
:100FB000E1DFFFFFD21DF0B504460D46D0088DB02D
:100FC000C000466807683146384604F09FF902467B
:100FD000F00F01D02D2307E02068810701D52B23D6
:100FE00002E04007C00F43016846002B037001D0A8
:100FF000012000E00020032A0A9001D0072A04DB28
:101000002946204600F0DAF92DE12078800601D447
:101010000D2500E0E5697000400D0D2D01904BDAC3
:10102000300D00210B9008460020C04603218905A1
:101030000840002E05DA82008018C20F10184010F8
:1010400008408015012801DD0020C043A9000023CD
:10105000182906D39C460A460123183A1B07D34099
:1010600003E001221205CA4094460C31202902D324
:101070003A46203900E032468A40002802DD002A44
:1010800006D119E0002817D10121C9078A4213D3DC
:10109000194663467F185E41002806D10120C0072B
:1010A000824202D1084687439E430B98310D81420C
:1010B00002D00198401C01902088000502D571499A
:1010C000794402E06F49794419396B460A98302215
:1010D0001A540A980A7C401C1A54401C0A90019821
:1010E000002801DC302000E031201872019A012034
:1010F000002A02D0644BD21804E072003A4302D0B6
:10110000614A521C0192002D02DC2278120703D59D
:101110006A462E20507202200022864694460CE039
:1011200032033601120F6D1E8B5C02AA1354624605
:10113000521C401C9446052A01DA002DF0DC0022E6
:1011400002AE08E03B0F3F01CB5C521C6D1E3354D6
:10115000401C082A01DA002DF4DC23689A0601D528
:1011600011E0401E704504DD3218203AD27F302A4B
:10117000F7D0002807DD3218203AD27F2E2A02D17C
:101180001A0700D4401E002D03DD3E223254401CBD
:101190006D1E497C31540199401C002906DA2D212D
:1011A000471C315401984042019003E02B21471C19
:1011B000315401987D21C900884206DBFFF7E4F92C
:1011C0003030F0557F1C019101E0642808DB019864
:1011D0006421FFF7D9F93030F0557F1C019101E00F
:1011E0000A2806DB01980A21FFF7CEF93030F055C6
:1011F0007F1C01980A21FFF7C7F93031F1550A9891
:10120000A1697F1C7A191018081AA0612078C006FD
:1012100002D42046FFF764FA216A6E460A9808183D
:10122000206204E062683078A168761C90470A98D2
:10123000401E0A90401CF5D12078C00602D52046F9
:10124000FFF74EFA02AE09E03078761C3E280DD04A
:101250006268A1689047206A401C20627F1EF3D21A
:101260002046FFF753FA0DB00320F0BD206A401965
:10127000206203E06268A168302090476D1EEDD3C4
:10128000F8E70000F350000001FCFFFF10B54369D0
:10129000002B02D0C046C04601E0FFF75AFA0120F9
:1012A00010BD1278014624310A7000224A700122D2
:1012B000ECE711680022D243E8E710B54369002B40
:1012C00002D0C046C04601E0FFF7F6FA012010BD8B
:1012D00012880146243182840022C2840122ECE774
:1012E00011680022D243E8E770B516460C46054661
:1012F00000F058F80368FF200230C05C012807D0D6
:10130000FF2C0ED8185D00280BD001202C7070BD6A
:10131000FF333246214608331868C31828469847D9
:1013200070BD0020C04370BD10B5002801D0FFF78C
:10133000D1F910BD10B5002102A000F0B7FB0120CB
:1013400010BD0000534947414252543A2041626E59
:101350006F726D616C207465726D696E6174696F16
:101360006E000000754600F0C1FBAE460500694600
:101370005346C008C000854618B020B5FEF77AFF76
:1013800060BC00274908B6460026C0C5C0C5C0C518
:10139000C0C5C0C5C0C5C0C5C0C5403D49008D461B
:1013A0007047000010B500F005F8001D10BD00BF2B
:1013B000E94C000000487047A0090020F8B51F461E
:1013C000044601230068DB02032601461840072A71
:1013D00005DB002801D017A506E017A504E00028CA
:1013E00001D016A500E016A5102081432160A06958
:1013F000C01E002FA06101D0401EA0612046FFF753
:101400006FF9002F09D038466268A1689047206ABA
:10141000401C2062C01C206206E0206AFAE7626875
:101420002878A1686D1C9047761EF8D22046FFF7F9
:101430006DF9F8BD4E414E006E616E00494E46009A
:10144000696E6600F7B516468AB0334878446C4634
:1014500003467C33C06F5A689B680DC42E4878449D
:10146000763003AC0DC80DC43720C00108183721F1
:101470001B30FFF789F805460C46803D1B3C02D522
:101480006442012000E000200027099010E0E007FE
:101490000CD00C2020497843794432464C3941180D
:1014A0006846012300F054FA6B4607C364107F1CA2
:1014B000002CECD1184F7F442E3F16E0E80712D0E5
:1014C0002001C0190EC80691089307920068F042E7
:1014D00001D1981908903246012306A903A800F00B
:1014E00037FA03AB07C36D10641C002DE6D10998D1
:1014F000002806D032466946012303A800F07EFA90
:1015000005E001233246694603A800F021FA0A9B50
:1015100007C30DB0F0BD00007C4D00000346400045
:101520000A4610B5400D0BD00121C9070F24A402B3
:1015300000191C0364082143540D2143D20207E023
:1015400000210120F2E7D40F490021435200401E40
:101550000029F8DADB0FDB07184310BDFFB50D4695
:10156000144685B04868516803F0B8FE00910190B8
:10157000A868A16803F0B2FE02910390A8686168B0
:1015800003F0ACFE029A12188242029201D20120AC
:1015900000E00020019A0B18D2180028019202D016
:1015A0008A4202D903E08A4201D2012000E00020F1
:1015B0000099081800906868A16803F08FFE029AED
:1015C00012188242029201D2012000E00020019A0A
:1015D0000B18D2180028019202D08A4202D903E0E7
:1015E0008A4201D2012000E00020009908180090F2
:1015F0002868216840004900400849084018FA4915
:10160000471814E001994000C90F08430090019861
:1016100002994000C90F08430190029803994000C5
:10162000C90F08430290039840007F1E0390009862
:101630000028E7DA0898002801D0EC4E00E00026E8
:10164000B74201DA012000E00020002804902AD0EF
:10165000F71BF806C00E15D0029B2021091A039A29
:101660008B401A430392029A019BC2408B401A435B
:101670000292019A009BC2408B4000991A4301924A
:10168000C14000917B110DD06F460320C11A03D5D4
:1016900000218200B95003E08A008100BA587A50D4
:1016A000401EF3D5374603980299002800D0012048
:1016B000014308980291002808460CD0002800D069
:1016C00001200199019A490508430121D20AC90262
:1016D000D202019200E001210E9B0122D207012BD0
:1016E00002D0002B03D013E0002807D120E0904265
:1016F00004D890420CD1019B0B4209D0019B591890
:10170000019105D10099491C009101D17F1C0092E3
:1017100000280DD0102108460020C046049800285B
:1017200006D00F98002803D0082108460020C046A4
:1017300028682168019B009A4840C10F0598C90795
:1017400039430EC009B0F0BDFFB587B0099A0898BB
:101750000899536892684068896896460022039306
:1017600017469446089A12685300099A5B08126853
:10177000520052089A1A9E4BD4180A9A002A01D095
:10178000352200E0402206920022012315460492F1
:10179000DB07059324E0002D05D175460346039E23
:1017A0004D1BB34109D375466646039B491B049DF7
:1017B0009841059B7519AC465F4163463B4308D091
:1017C000059B049EDD0776082E435B08049605936F
:1017D00001E0521E641EC50FED0749184041521C1E
:1017E000069B9A42D7DB002D04D17546039A6B1AEB
:1017F000824101D203200CE0039A0B466B40424029
:10180000134303D0014303D0012002E0022000E093
:101810000020614601910021009702910A99002958
:1018200005D0614640020143704B019102E0800700
:10183000002302909C4201DA012000E00020070012
:101840003AD01A1BD006C00E15D0029D2021019C53
:10185000091AC5408C402543029C8C4000D00124CD
:101860002543019C0295009DC4408D4000992C4366
:101870000194C140009154111DD06D4602210022F7
:1018800002290CD10320001B07E0002804DB86009E
:10189000AE59002E00D00122401C0328F5DB081BA6
:1018A00002D588002A5004E08000285810438A009E
:1018B000A850491EE3D51C460A98002802980CD06F
:1018C000002800D001200199019A4905084301210F
:1018D000D20AC902D202019200E00121109B01222A
:1018E000D207012B02D0002B03D013E0002807D130
:1018F0001FE0904204D890420CD1019B0B4209D0CA
:10190000019B5918019105D10099491C009101D101
:10191000641C009200280CD0102108460020C0460C
:10192000002F06D01198002803D008210846002077
:10193000C04608980999019A009B006809684840C8
:10194000C10F0798C907214382600AC00BB0F0BDE0
:1019500000B585B0019300920A460146002302A813
:10196000FFF7FCFD02A807C805B000BDFFB50A4699
:101970001F4685B00799019301230091014602A8F3
:10198000FFF7ECFD02990398049ECA0F4900D207A5
:1019900000920F22490892028C1A0021002800DBD5
:1019A0000C46450013486D08844214D3079A002A58
:1019B00004DA441E0026104DF64302E004460D46AC
:1019C0000E46102108460020C046002F03D00421F7
:1019D00008460020C0462005E90A0843009908434C
:1019E0006905F20A1143ADE602C0FFFF013C0000A9
:1019F000FF3F0000FF070000FFFFFF7F00B585B03D
:101A0000019300920A460146002302A8FFF79CFEBC
:101A100002A807C8A8E7FFB50A461F4685B0079980
:101A2000019301230091014602A8FFF78DFE029960
:101A30000398049ECA0F4900D20700920F2249085A
:101A400092028C1A0021002800DB0C464500114848
:101A50006D08844214D3079A002A04DA441E002633
:101A60000D4DF64302E004460D460E461021084691
:101A70000020C046002F03D0042108460020C046A5
:101A80002005E90A0843009908436905F20A114351
:101A900058E60000FF070000FFFFFF7F10B5044677
:101AA000C046C0462046FEF7D5FB10BD70B50546C2
:101AB0000C460A2000E06D1C00F012F8002D06D044
:101AC00028780028F7D102E0641C00F009F8002C07
:101AD00002D020780028F7D10A2000F001F870BD6C
:101AE00008B5694608700320ABBE08BD00487047C2
:101AF00080090020024670B50A4392072AD11E4D84
:101B0000EE0104C808C9541B9443344017D0D0B226
:101B1000D9B2401A2106014310D190B299B2401AAD
:101B2000210401430AD110021902000A090A401ACD
:101B30002102014302D1100E190E401A70BD9A42C3
:101B4000DFD010BA19BA884201D9012070BD002037
:101B5000C04370BD02780B78401C491C002A09D094
:101B60009A4207D102780B78401C491C002A01D008
:101B70009A42EFD0D01A70BD0101010110B50248A0
:101B800000F054FB10BD00000809002010B5044609
:101B9000006C094980088000401860642078142196
:101BA0000838FEF7E7FC04498031A164C106C90E7C
:101BB00001208840E06410BD000802400179084B14
:101BC0008906890E8A00D2180265054A4432491EE8
:101BD00042658A07920F012191408165704700009C
:101BE000FC08024072B6FEE70448006AC0B2AA28A8
:101BF00002D0CC2800D0BB2070470000002002405B
:101C00000248006A02490840704700000020024074
:101C100000604F0730B5044C236AFF2528438343F7
:101C20000B431343236230BD00200240F8B5044645
:101C300000F020FD012605463604124F06E0601C28
:101C400004D000F017FD401BA04213D23869304287
:101C5000F5D138690C4908400C4939610CD00C4960
:101C600048600120F8BD601C06D000F003FD401B59
:101C7000A04201D30320F8BD38694003F3D400200B
:101C8000F8BD000000200240FA830000FB83000042
:101C90006409002000B587B0684600F075FB06981F
:101CA000C10110D5012109068843069000F022FCED
:101CB00000F00CFC684600F08BFB00F0E9FB00F044
:101CC000F1FB00F0D1FB07B000BD0000FEB50446FB
:101CD000002026460190403600900127307DFF0706
:101CE0000D46012810D001203075206802F0FDFB60
:101CF00000280BD0A06D20210843A0650120019091
:101D0000002030750198FEBD0220FEBD68680228E3
:101D10007ED02169B94202D06D4A914207D1206834
:101D20002968826A4903490B0A4382626DE0C3064F
:101D30000F22DB0E1046216E98408143286847032E
:101D400002D0C7074BD102E04000C00E48E0870731
:101D500001D5012044E0470701D5022040E00707F4
:101D600001D503203CE0C70601D5042038E08706F2
:101D700001D5052034E0470601D5062030E00706EE
:101D800001D507202CE0C70501D5082028E08705EC
:101D900001D5092024E0470501D50A2020E00705E8
:101DA00001D50B201CE0C70401D50C2018E08704E6
:101DB00001D50D2014E0470401D50E2010E00704E2
:101DC00001D50F200CE0C70301D5102008E08703E0
:101DD00001D5112004E0400301D5122000E00020CD
:101DE0009840014321666968E3698808401C98426D
:101DF0000BD820682F68836AC906C90E8A409343AE
:101E0000BA00120F8A40134383622068AA6800E078
:101E100037E02968436909028B43114049014909A8
:101E20000B4343612A68002A00DB69E729480168FF
:101E300007239B051940284B9A4213D10B0211D45A
:101E4000D202114302F055FB254824490068FEF7F1
:101E500091FB0C21401C484300E0401E00900028EC
:101E6000FBD14DE71F4B9A4203D1CB0101D4920223
:101E700005E01D4B9A42D8D14A02D6D45A021143EA
:101E800023E02069B84202D01149884206D1206877
:101E90002968826A4903490B8A4382622A68002AB8
:101EA000C3DA0C48016807239B0519400A4B9A4284
:101EB00001D1D20208E00B4B9A4201D1920203E019
:101EC000094B9A42B1D15202914302F012FB17E73B
:101ED0000400008008270140001000B0400D0300FE
:101EE00070000020004000B8002000B4FEB50026BD
:101EF00004460296374601960096002805D02546EE
:101F0000A06D2035002802D007E00120FEBD20464C
:101F100000F0FCF8E7655420075520688168C90087
:101F2000C90F12D18168724A114001221207114370
:101F3000816071486F490068FEF71CFB4000801CFF
:101F400000E0401E00900028FBD120688168C90095
:101F5000C90F08D1A16D10221143A165E16D0122C5
:101F60001143E165164602F0C0FAA16DC90601D41D
:101F7000002804D0A06D10210843A065B4E0A06D36
:101F8000FF210131884302210843A065206802F047
:101F9000A8FA00286DD1217EA06889030843617EDC
:101FA000A27EC903530319430843216B002901D0C2
:101FB000012109030843E16808432169002902DA85
:101FC0004900490801E0012149050843297B4900EE
:101FD0000843029908432978012909D1002A22D00F
:101FE000A16D20221143A165E16D01221143E1653C
:101FF000616A002906D0FF23C1331940A26A014358
:10200000104608432168CA683C4B1A400243CA6024
:102010006168019A890F8907E06C0A4310432A7F9F
:10202000012A04D00CE0012109040843E0E7636CB5
:10203000226C491C1A43A36C0B43114619430843F5
:1020400021680A692E4B1A4002430A610321606825
:10205000890788420DD0590788420AD04900884232
:1020600007D0284A91680F239B04994318400143E5
:1020700091600021626B206802F042FA2249A26B53
:10208000206802F03DFA0F212069C94300281CD0C6
:102090000122520590420AD12068826A227F920072
:1020A000121FD206D20E9140226E11438162206827
:1020B0004069616B4007400F88420BD1E765A06D16
:1020C00080088000401CA0650FE02068826A0A43F7
:1020D0008262ECE7A06D0221884310210843A065CD
:1020E000E06D01210843E06501263046FEBD000099
:1020F000E8FFFF7F400D0300700000200102DEFFBB
:1021000002FCFF1F0027014004FFFF0708B500681D
:102110000649884208D106480268012109050A4398
:10212000026000680840009008BD000000240140E3
:1021300040100240F0B5002808D0014620314A790D
:10214000022A05D00422C263002008710120F0BDDC
:10215000026813680E24A3431360426C1468FF23C3
:1021600001339C43146002681468640864001460BE
:102170000C4E7268056C1C24254001242746AF4094
:102180003A437260826CC56C5560026D002A05D0BE
:1021900015689D431560826D406D42604C71002052
:1021A0000871F0BD00000240F8B50024014620315E
:1021B0004A79022A03D00421C16301242DE0026878
:1021C00013680E25AB431360026813685B085B005D
:1021D0001360426C1368FF250135AB431360104E4A
:1021E0007268056C1C231D4001231F46AF403A4313
:1021F0007260826CC56C5560026D002A06D016684C
:102200001D02AE431660426D856D55604B71002214
:102210000A71816B002900D088472046F8BD000074
:10222000000002402030407970470000F0B42C4D8F
:102230002B6801680A68046C1C273C400426A640F1
:102240001E4211D056070FD50A68920603D40B68B8
:10225000042293430B606A68036C04213B4099405D
:102260000A436A60016B1CE00227A74006461F4034
:102270002036002F19D0970717D50A68920605D483
:102280000A680A239A430A60012171716B68026C23
:102290001C210A40022191400B436B6000213171E7
:1022A000C16A00291AD0F0BC08470827A7401F427E
:1022B00014D0120712D50A680E239A430A606A687E
:1022C000036C1C210B4001210C469C4022436A6098
:1022D000C163717100213171416BE2E7F0BC70475D
:1022E0000000024070B504003FD025482568142145
:1022F0002818FEF73FF98000206402202646203689
:10230000707128681F4908402860A168E068626908
:102310000143206910430143A0690143E06901437F
:10232000206A014320680268114301602046FFF7DC
:102330002DFC0121A06889030025884200D1656039
:102340002079616C8006800E0860A06CE16C4160B1
:102350006068401E03280AD82046FFF72FFC206D36
:102360000560606DA16D416004E0012070BD2565D0
:102370006565A565E563012070713571002070BD4C
:10238000F8FFFDBF0F80FFFF10B504460720206057
:1023900060680D49012810D0086BC006C00EA0600F
:1023A000086BC002C00EE060FFF71EFC2061FFF763
:1023B00027FCA0610548606110BDC86AC006C00E58
:1023C000A060C86AEDE700000020024000604F07EF
:1023D000F8B5234E0446307801281BD00120307018
:1023E0000027776020781F4DC00707D06268A1687A
:1023F000E068012A10D000040843286320684107E0
:10240000890F03290CD081070CD5FFF7F9FB014692
:1024100022690EE00220F8BD00040843E862EDE7FF
:10242000226904E0400706D5FFF7DEFB0246A169FA
:102430006069FFF7EFFB7D20C000FFF7F7FB002886
:102440000BD1686901246404204368617D20C000C9
:10245000FFF7ECFB6969A14369613770F8BD0000C3
:10246000640900200020024010B57D200124C00036
:10247000FFF7DCFB054948698A0410434861486955
:10248000002800DA0024204610BD00000020024091
:10249000034841690122D20611434161012070477E
:1024A0000020024010B57D200124C000FFF7BEFBD4
:1024B000054948694A04104348614869400000D50D
:1024C0000024204610BD00000020024006490120E3
:1024D0004A69520007D5054ACA60054ACA60496977
:1024E000490000D400207047002002403B2A190810
:1024F0007F6E5D4C064900204A69002A07DA054ACA
:102500008A60054A8A604969002900DA012070471B
:102510000020024023016745AB89EFCDF0B50022D2
:102520008EE0012595402B407ED00C79A407A40FA6
:10253000012C01D0022C10D1866854000327A7403B
:10254000BE43CF68A740374387604468AC430D79EA
:10255000ED06ED0F9540254345600C79E443A40753
:1025600008D0C56854000326A640B5438E68A6402F
:102570002E43C6600C79A407A40F022C0CD1D408FA
:10258000A40027183D6A5407E40E0F26A640B54361
:102590000E69A6402E433E62056854000326A640FD
:1025A000B5430E79B607B60FA6402E4306604C68B9
:1025B000A403A40F43D09508244CAD002F193D6E01
:1025C0009407E40E0F26A640B54305263607B04211
:1025D00001D100260FE01E4EB04201D101260AE0D3
:1025E0001C4EB04201D1022605E01B4EB04201D183
:1025F000032600E00526A6402E43144D3E662C68B7
:102600004E689C43F60200D51C432C606C684E68F3
:102610009C43B60200D51C436C600C4D80356C6841
:102620004E689C43B60300E009E000D51C436C6093
:102630002C684E689C43F60300D51C432C60521C4A
:102640000B681C46D44000D06BE7F0BD0018024078
:102650000004005000080050000C005000690840C1
:1026600000D001207047002A01D08161704781624B
:102670007047000001488068704700006400002037
:1026800070B5024640325378202B1CD11378012BB1
:1026900019D0012414702423537003681D68A543C6
:1026A0001D6003681D682603B5431D6003681D682F
:1026B0000D431D60006801682143016020205070B7
:1026C0000020107070BD022070BD70B5024640320F
:1026D0005378202B1BD11378012B18D001251570AE
:1026E0002423537003681C68AC431C6003681C6897
:1026F0000F263602B44309022143196000680168BD
:1027000029430160202050700020107070BD02200D
:1027100070BD704710B50C4B02689A420AD1012374
:102720000A4A1B06002906D0516A1279891801222B
:1027300000F0A4F910BD51780029FBD00349012213
:10274000091D00F031F910BD005800403C00002088
:1027500070B503689A691968D243D40508D4CC438C
:10276000240605D4446C01252C4344642C02DC610E
:10277000530509D4CB431B0606D4436C08242343DA
:102780004364E3010468E361920509D4C94309067F
:1027900006D4416C02221143416411020268D161E6
:1027A000416C0B22114201D001F0E4F970BD0268C6
:1027B00091691268436B002B00D0184770470000E6
:1027C00010B5014640314A78202A01D0022010BDC0
:1027D00028224A70034941630121C90301F03EF9EF
:1027E000002010BD714300087047000070B5040060
:1027F00006D02546403568780026002802D005E03E
:10280000012070BD2E70204600F064F8242068700E
:10281000206801684908490001600F2160680906C5
:10282000884321680861206882680121C9038A43BE
:102830008260E0680128A0682FD021229202104314
:10284000226890600122E068D20202282068436872
:1028500025D09343436020684268124B1A4342607C
:102860002068C2688A43C260616920690843A1691F
:10287000090208432168C860216AE06908432168A9
:10288000086020680168012211430160666420200D
:1028900068702663AE70002070BD0843D0E7134314
:1028A000D8E700000080000210B5064A0168914296
:1028B00006D1054901224A7000220A71FFF780FF04
:1028C00010BD0000005800403C00002070477047D9
:1028D0007047704710B586B0044614216846FDF76E
:1028E00047FE16492068884226D1154C606B0121AD
:1028F00008436063606B084005900320C0020090AD
:1029000012200190002002900390062004900520E0
:1029100069460007FFF702FEE16B012080050143D5
:10292000E163E16B0022014005911146182000F09F
:1029300073F9182000F064F906B010BD005800408B
:102940000010024010B50B4A0168914211D10A49AA
:102950004A78002A02D000224A7002E00A79521C0A
:102960000A714A6A0979012351181B06012200F0F5
:102970001BF810BD005800403C00002010B5084A6C
:10298000016891420BD1074A012311791B06491CAA
:10299000C9B21171526A5118332200F06FF810BD9C
:1029A000005800403C000020FFB505460F4640356A
:1029B000697881B0164604462820884313D1002F39
:1029C0000ED0002E0CD02A49204601F01DF82878A0
:1029D00001280BD0012028706878292808D021E030
:1029E000012040026064012005B0F0BD0220FBE739
:1029F0000121204601F008F820680168490411D53A
:102A000001680122920391430160A06B002809D064
:102A100018498163A06BFFF7C7FB002802D0A06BA9
:102A2000816B88472A2068702020A870002161648B
:102A3000206842680123DB039A434260676266852F
:102A4000608D20850498E0620B486063206882698D
:102A500083691207D20FDB0303D4002A01D00822B6
:102A6000C26129700249204600F0F8FF0020BBE750
:102A700002800000ED39000871430008FFB50546EB
:102A80000F464035697881B01646044628208843B1
:102A900013D1002F0ED0002E0CD02B49204600F071
:102AA000B3FF287801280BD00120287068782A28E5
:102AB00008D021E0012040026064012005B0F0BD93
:102AC0000220FBE70221204600F09EFF20680168FB
:102AD000090411D502680121C9038A430260E06B31
:102AE000002809D019498163E06BFFF75DFB0028DE
:102AF00002D0E06B816B8847292068702020A87085
:102B000000216164206842680123DB039A4342602C
:102B100067626685608D20850498E0620C4860637A
:102B20002068826983691207D20F1B0CDB07DB0F59
:102B300003D0002A01D00822C26129700249204630
:102B400000F08CFF0020B9E701800000ED3900089B
:102B500071430008024881680278891881607047D3
:102B60006400002010B50848002401688215114354
:102B70000160032000F00AF8002801D0012401E0E0
:102B800000F028F8204610BD0020024070B50F4E1E
:102B9000002431780546002915D07D20C000FDF7BE
:102BA000E9FC01460A480068FDF7E4FC00F07EFB02
:102BB000002808D1042D06D200222946401E00F02C
:102BC0002BF8756000E00124204670BD64000020F1
:102BD0007000002008B50948016801221143016016
:102BE00000681040009005484038C26B01040A4359
:102BF000C263C06B0840009008BD00004010024056
:102C0000002805DBC106C90E012088400149086083
:102C10007047000000E100E010B502F08DFB10BD30
:102C200010B50F4C216803225202914301432160E9
:102C3000C11FFF39FA390ED10A48062100684843FE
:102C40000949FDF797FC401C02E0002805D0401E12
:102C500061694905F9D4002010BD032010BD0000B2
:102C6000007000407000002040420F00F8B50D4693
:102C7000040044D04D4800684007400FA84214D2D9
:102C80004A4F3868C008C00028433860FFF7F2FC9C
:102C9000064605E0FFF7EEFC811B4548814260D8FF
:102CA00038684007400FA842F4D12068414E8107A0
:102CB0000DD5400704D5B068072109030843B0606B
:102CC000B0680F2109028843A1680843B0602078EA
:102CD000C00731D0606801280AD002280BD0002834
:102CE0000FD03449403103280ED0C969890704E068
:102CF0003168890301E031688901002906DB012080
:102D0000F8BD31684905F8E7096AEFE7B168C90815
:102D1000C9000143B160FFF7ADFC074605E0FFF7CE
:102D2000A9FCC11B224881421BD8B0683821084049
:102D30006168C9008842F2D11C4801684907490FFF
:102D4000A94216D90168C908C90029430160FFF7E3
:102D500091FC074607E0FFF78DFCC11B1448814238
:102D600001D90320F8BD114800684007400FA84270
:102D7000F1D12078400706D5B168072000038143D0
:102D8000E0680143B16000F031F8B1683C22890984
:102D90001140094A515CC906C90EC840074908607C
:102DA00007480068FFF7F2FEF8BD0000002002406F
:102DB000881300000010024000610008700000202D
:102DC000680000200648074900688968064A4904E7
:102DD000490F8900515CC906C90EC8407047000000
:102DE00070000020001002404061000810B5204C27
:102DF000A068204A8006400F16D0A0688006410FC8
:102E0000501001290FD0A1688906490F022912D05C
:102E1000A0688006400F042823D0A0688006400FD9
:102E2000032821D0002010BD206801218004400F1C
:102E30008140104612E0E1688B07E1689B0F49066C
:102E4000490F491C032B00D01046FDF793FBE168A6
:102E50004904490E4843E168490F491CFDF78AFBC4
:102E600010BD0120C00310BD7D20000210BD000078
:102E7000001002400024F400F7B50F4686B002218E
:102E800001910321039100210291012109070446C8
:102E90000C400103090F05238A021B070E4DD218AF
:102EA0006B6B01268E4033436B6381B20001000ED1
:102EB0000091049069461046FFF730FB002C08D1C2
:102EC000A968772000068143089A384610430143D9
:102ED000A96009B0F0BD000000100240F8B5040080
:102EE0007ED020783827C007E74E002845D0B0684C
:102EF000F16838408907890F102802D008280AD0C5
:102F000001E0032907D0012160680904884209D142
:102F10003068084314E0306880032ED560680028CC
:102F2000DED02AE0052301221B0492049842306877
:102F300002D110433060EBE7884330603068904343
:102F40003060606800280CD0FFF794FB054604E071
:102F5000FFF790FB401B642873D830688003F7D5D7
:102F60000BE0FFF787FB054604E0FFF783FB401B00
:102F70006428F1D830688003F7D42078800769D5B9
:102F8000B068F16838408A070721920FC9021028FB
:102F900002D0002813D001E0022A10D0E0680028F7
:102FA00046D0306888432169084330603168FF208B
:102FB000013001433160FFF75DFB05462CE03268CC
:102FC000520502D5E268002A8AD072687F231B026C
:102FD0009A4363691B021A437260002810D100E013
:102FE0008DE03068884321690843306030680121F2
:102FF0008004400F8140A548FDF7BCFAA449086051
:10300000A4480068FFF7C2FD002878D122E0FFF74E
:1030100031FB401B02289FD830684005F7D5706807
:103020007F2109028843616909020843706011E049
:103030003168FF20013081433160FFF71BFB0546FB
:1030400005E096E0FFF716FB401B022884D83068A5
:103050004005F7D42078904D00072ED5B068800643
:10306000400F03280AD0A0690028286A16D0012141
:1030700008432862FFF7FEFA07460BE0286A80073C
:103080001BD5A06900289FD017E0FFF7F3FAC01BFB
:1030900002286ED8286A8007F7D50EE04008400065
:1030A0002862FFF7E7FA074604E0FFF7E3FAC01BE0
:1030B00002285ED8286A8007F7D4207840076AD5AE
:1030C00000200090B0688006400F042818D0F06BF4
:1030D000C00008D4F16B012000070143F163F16BDC
:1030E0000140012000906D480168C90518D40268AC
:1030F00081150A430260FFF7BDFA07460CE083E042
:10310000E869800747D5A06800287DD043E0FFF735
:10311000B1FAC01B02282CD860480068C005F6D55B
:10312000A068012810D004210528E86910D04008C3
:103130004000E861E8698843E861A068002814D08D
:10314000FFF798FA07460CE0E86901210843F3E726
:103150000843E861F8E7FFF78DFAC11B5048814248
:1031600065D8E8698007F6D50DE0FFF783FA0746D2
:1031700006E05CE0FFF77EFAC11B4948814256D861
:10318000E8698007F6D40098002804D0F16B01208C
:1031900000078143F163E069002873D0B1688906B4
:1031A000490F02294DD001273F060228306805D07B
:1031B000B8433060FFF75EFA04463AE0B843306047
:1031C000FFF758FA054604E0FFF754FA401B0228BF
:1031D0002DD830688001F7D4616A206AA26A08435A
:1031E000E16A120211430843216B0843F1682D4A3A
:1031F00011400843F060306838433060F0680121C6
:1032000009070843F06000E03AE0FFF733FA0446AC
:1032100004E0FFF72FFA001B022808D8306880016D
:10322000F7D52FE0FFF726FA001B022801D903206B
:10323000F8BD30688001F5D4F0681B490840F060A3
:1032400020E00128F4D0F068226A8107890F9142BA
:1032500016D17021626A0140914211D17F21A26A88
:1032600009020140120291420AD11F214904E26A77
:103270000140914204D1400F216B4007884201D0A8
:103280000120F8BD0020F8BD001002400024F40029
:1032900070000020680000204010024000700040D4
:1032A000881300008C80C11FFCFFFEEF094910B598
:1032B000401E884201D9012010BD074C60610321E6
:1032C000081F02F039F80020A061072020610020CB
:1032D00010BD0000FFFFFF0000E000E070477047F6
:1032E000704770B5040005D025462035687F00285A
:1032F00002D006E0012070BD00202877204600F0B3
:1033000017F802206877211D206801F073FA012266
:1033100040342272AA77EA7722706270A270E2705B
:1033200022716271A271E2716A77002070BD0000A3
:1033300008B50068094988420FD109480268C913D5
:103340000A430260006800220840009011461320E2
:10335000FFF762FC1320FFF753FC08BD002000407C
:1033600040100240014620314A7F012A01D001204D
:10337000704702224A770168CB6801221343CB6071
:1033800000680949884202D00849884207D181680B
:10339000074B1940062905D0DB1F994202D001686E
:1033A0001143016000207047002C014000040040E0
:1033B0000700010070470000F8B504460068C668C1
:1033C00005690027A907002913DAB10711D5F91EED
:1033D000016101202077206880698007204602D0A3
:1033E000FFF7E8FF04E000F08BF8204600F089F8D2
:1033F0002777680716D5700714D504202168C043C5
:10340000086102202077206880698005800F2046AF
:1034100002D0FFF7CFFF04E000F072F8204600F082
:1034200070F82777280715D5300713D508202168AD
:10343000C0430861042020772068C06980072046C7
:1034400002D0FFF7B7FF04E000F05AF8204600F082
:1034500058F82777E80616D5F00614D5102021680D
:10346000C0430861082020772068C0698005800F6C
:10347000204602D0FFF79EFF04E000F041F820460E
:1034800000F03FF82777E80708D0F00706D00120C2
:103490002168C0430861204600F034F8280601D4B2
:1034A000A80407D5300605D52168134808612046D1
:1034B000FFF715FFE80507D5300605D521680F4849
:1034C00008612046FFF70AFF680608D5700606D592
:1034D00040202168C0430861204600F021F8A8067A
:1034E00008D5B00606D520202168C04308612046D3
:1034F000FFF7F6FEF8BD00007FDFFFFFFFFEFFFFD6
:1035000070477047044900680968884203D103483E
:103510008169491C81617047C40600203C0000207D
:10352000704770477047704770477047F8B5036839
:103530000446D86919689A68B44D06462E40254657
:103540008035002E75D0B24EB24F16400F40374333
:103550006ED0C70706D0CF0504D501271F622B699F
:103560003B432B61830708D5D30706D02768022386
:103570003B622B6904273B432B61430708D5D307E4
:1035800006D0276804233B622B6902273B432B614B
:10359000030709D520230B40334305D026680823B1
:1035A00033622E691E432E61030509D54B0107D5F1
:1035B00001232668DB0233622B69202633432B610B
:1035C0002B69002B42D080060AD520200140C0057F
:1035D0000240114304D0616F002901D02046884782
:1035E000286921688968490602D42821084232D016
:1035F000204601F00FFA20688168490627D5EFF3CD
:103600001081012282F310888368402293438360F3
:1036100081F310882868002819D07F4981632868C1
:10362000FEF7C2FD002811D02868816B0DE000E094
:1036300017E0860615D5012720263F070E401740C4
:103640003E430ED0616FB5E020468847F8BD204666
:10365000FFF76BFFF8BD2046FFF767FF00202861EA
:10366000F8BDE66E012E7DD1C6067BD5CE0679D596
:1036700010221A62206881682646490640360029D1
:1036800049DA2B68196849680904090CE8D0B78B36
:103690008F42E5D9F18319680968890634D4EFF3BC
:1036A0001081012383F3108803681701BB43036073
:1036B00081F31088EFF31081012080F310882068D7
:1036C00083685B085B00836081F31088EFF31081EF
:1036D000012080F31088206883684027BB43836003
:1036E00081F310882020E8600020E066EFF310816D
:1036F000012080F31088206803689343036081F3FE
:1037000010882868FEF716FD02202067B08BF18B29
:10371000401A81B235E0B18BF38BC91AF38B89B2B1
:10372000002B9DD000299BD0EFF31083012686F358
:1037300010880668FF272137BE43066083F3108890
:10374000EFF31083012080F3108820688668304FE3
:10375000FF433E40866083F310882020E86000200D
:10376000E06600E011E0EFF310836067012080F372
:103770001088206805689543056083F3108802204F
:1037800020672046FFF7CDFEF8BDC60208D55602D9
:1037900006D50120000518622046FFF7C5FEF8BDDA
:1037A00006060BD501278026FF050E403A4016433A
:1037B00004D0A16F002900D046E7F8BD420614D519
:1037C0004A0612D52046EFF31081012282F31088B9
:1037D0001A684024A2431A6081F310882021A9604E
:1037E0000021816700F0F0F8F8BD020205D54A001B
:1037F00003D52046FFF797FEF8BDC001FCD5002990
:10380000FADA2046FFF78EFEF8BD00000F08000030
:103810000100001020010004014A000870B50400F6
:1038200005D025468035A868002802D006E0012092
:1038300070BD00202871204600F026F82420A860E2
:1038400020680168490849000160A06A002802D088
:10385000204601F013F8204601F082FB0128E7D052
:10386000206841680922D202914341602068816842
:103870002A2291438160206801680122114301607E
:10388000204601F061F870BD70B586B0064614217F
:103890006846FCF76DFE2149306888423BD12049DB
:1038A000CA6B012040040243CA63CA6B02400592FE
:1038B0004A6B012002434A63496B00250140059190
:1038C0000C2100910221049001910520029503959D
:1038D00069460007FEF722FE134C1248206035208F
:1038E00060601020E560A0606561A561E5618020F1
:1038F000256220612046FEF7F5FC002801D0FEF786
:1039000071F9F467002211461C20A662FFF784F9C2
:103910001C20FFF775F906B070BD000000440040A0
:1039200000100240080002400809002070B58C23F6
:103930001B58202B01D0022070BD00290BD0002A7B
:1039400009D0012483682403A34206D10369002B14
:1039500003D1CB0701D0012070BD0023C3660368EB
:103960005C6824020BD5EFF31084012585F31088E1
:103970001D680126B60635431D6084F3108801F0EA
:10398000A5FB70BD10B500680B49884212D1012219
:103990000A490B48FFF7CAFF00280BD10749094B1A
:1039A000C91E8868CA781A54401C8860202801D330
:1039B0000020886010BD0000004400403F0000204F
:1039C00010070020E80800207047FEE710B5064801
:1039D000006880694005400F034802D0FEF7B8FE3A
:1039E00010BDFEF7E4FE10BD7006002010B5806A21
:1039F0000022816B002900D08A63C16B002900D0AE
:103A00008A6300F05BFD10BDF0B503460022CE07CF
:103A100040332824B025002E05D05E784222274668
:103A2000B74300D0F2228E0705D544265B78324397
:103A30009C4300D02A43CB0B01D0B8231A43102952
:103A400008D0202907D0402905D00068016891439B
:103A50000160F0BD90210A43F7E70000F0B51A4C71
:103A6000436B0022F225F4269027A34213D0174C73
:103A7000A34210D0164CA3420DD0CB0B00D0B822DD
:103A8000CB0700D02A438B0700D53243102912D030
:103A9000202913D013E0CB0B00D0B822CB0700D0E5
:103AA0002A438B0700D53243102904D0202904D0A3
:103AB000402903D003E03A4301E060210A43006853
:103AC000016811430160F0BD394000086D420008F3
:103AD0004541000801688A69D243920701D4002257
:103AE0008A6200688169C943C90703D081690122DC
:103AF000114381617047F8B5054604464035687842
:103B000028218143206804D00821C1610020287049
:103B1000F8BD8169C903CF0F8169FE230E0C81684E
:103B20001E408A05C168920D19408C46E168022941
:103B300016D10621D3090E400B409E420FD1A16C35
:103B4000491CA164A16C0229E2D10021A1640823CF
:103B5000C361297039462046FEF7DCFDF8BD664694
:103B60000121C9032046FFF74FFF0020287032468D
:103B7000F0E70000F8B505460446403568780026B1
:103B8000AE703D4AE2626685626C0A436264282830
:103B900032D0292830D02A282ED038492046FFF7A5
:103BA00033FF2046FFF796FF6878602812D0202167
:103BB000697020688269D24392060BD48269D2432D
:103BC000D20605D41022C261606C042210436064E6
:103BD0002068C1616663206BA16B294F002903D067
:103BE000112812D0212810D0E16B002925D01228ED
:103BF00027D0222825D020E003212046FFF704FF0C
:103C0000282068701F486063E5E720680168490460
:103C100004D501680122920391430160A06BFEF775
:103C200001FB012809D0A06B87632E70A06BFEF703
:103C3000BBFA002804D0A06B1AE0204600F03EFC3E
:103C4000F8BD20680168090404D501680122D20387
:103C500091430160E06BFEF7E5FA0128EDD0E06BDF
:103C600087632E70E06BFEF79FFA0028E8D0E06BC8
:103C7000816B8847F8BD00000000FFFF0380000053
:103C8000ED3900087143000870B504461548E0623C
:103C9000002626632020254640356870AE70C84354
:103CA0006663400712D42068406A616A0870606ADF
:103CB000401C6062208D002808D0401E2085608D49
:103CC000401E6085606C04210843606406492046FC
:103CD000FFF79AFE21681020C8612E702046FEF77B
:103CE000E3FD70BD0000FFFF03800000F8B505464E
:103CF000009100682026C6612C4640346078212857
:103D000003D06078222806D00BE001212846FFF777
:103D10007BFE112004E002212846FFF775FE1220E9
:103D2000286328684168254A1140416000272448DB
:103D30006F63E8620098C043C10606D42A68102168
:103D4000D161696C0422114369646178602905D1ED
:103D5000400703D42868406AC0B200902846FFF7A5
:103D6000B9FE686C6178602901D0002804D0696CC4
:103D70002846FFF7FFFEF8BD607821280DD0607857
:103D80002228F8D166702F63A078A770402827708A
:103D9000284610D0FEF79AFDF8BD66702F63A07814
:103DA000A77040282770284602D0FEF790FDF8BD86
:103DB000FEF78FFDF8BDFEF78BFDF8BD00E800FEB5
:103DC0000000FFFF70B50026054640350446AE7082
:103DD00069782020212968700BD0122020630221ED
:103DE00020466663FFF710FE2E702046FEF76EFD3C
:103DF00070BD11202063012120466663FFF704FE99
:103E00002E702046FEF763FD70BD0000F8B5026815
:103E1000044610680E460090E76A254640356878EB
:103E20002021D161212808D0292806D022280AD0B3
:103E30002A2808D028280DD013E061492046FFF732
:103E4000E3FD21200CE05E492046491CFFF7DCFD24
:103E5000222005E05A492046891CFFF7D5FD0020A5
:103E60002063206841680122D20311434160206829
:103E70004168544A114041602046FFF72BFE0098EC
:103E8000C043410407D421680A6801239B039A4375
:103E90000A60A16B08E001040BD421680A680123C1
:103EA000DB039A430A60E16B002902D00968496884
:103EB0006185F1434907042200290FDB21689643FD
:103EC000496A636A1970616A491C6162218D00291F
:103ED00004D0491E2185618D491E6185618D0029AF
:103EE00002D0616C11436164F143C90614D4C00669
:103EF00012D4618D1020002920D02168C861606C27
:103F000010436064002F03D001200006874203D1D4
:103F1000616C2046FFF72EFE0027AF706763606C70
:103F200000282AD0616C2046FFF724FE68782828F4
:103F300003D131462046FFF7A7FEF8BD697828294E
:103F400008D1012149068F4204D131462046FFF7AE
:103F50009BFEE1E7697829290CD101210904CF42B0
:103F600008D02168C8612046FFF7B4FD204600F064
:103F70002DF8D1E72168C861CEE7E06A124EB04261
:103F80000BD0204600F022F8E662202068702763FC
:103F90002F702046FEF788FCF8BD6878222807D0ED
:103FA0002020687027632F702046FEF7E7FCF8BDDD
:103FB0002020687027632F702046FEF7C3FCF8BDF1
:103FC0000180000000E800FE0000FFFF70B505461C
:103FD0000068016800262C464034A670C9434A0494
:103FE00003D401680122920304E0090404D40168A7
:103FF0000122D203914301606178282029290ED043
:1040000061782A290AD1607022202863022128467B
:10401000FFF7FAFC26702846FEF794FC70BD60702E
:104020002120286301212846FFF7EEFC2670284650
:10403000FEF7A4FC70BD0000F8B505460446403507
:104040002878012817D001202870CB43DE06D04302
:10405000002E12DBC20610D421681020C861606CEB
:1040600004210843606420212046FFF7F7FC204626
:10407000FFF730FD5FE00220F8BD304A304E1F06EA
:1040800037D4470635D4206801684023994301603E
:10409000608D00282068406828D08105608D890DDA
:1040A000FF2803D9FF2020859B0408E0608D208530
:1040B000E06A904201D0E36A01E001235B06002040
:1040C0000090208DC2B2204600F0E2F9608D218D73
:1040D000401A6085687822282068016802D0314340
:1040E000016028E00122D2031143F9E7800117D5CE
:1040F00006E05F0618D4470616D4608D002804D069
:1041000040212046FFF736FD15E02068416889010F
:1041100011D4E16A914203D14168314341600AE020
:104120002046FFF74FFE06E09A0604D4800602D42C
:104130002046FFF7DBFD00202870F8BD0000FFFFE0
:1041400000400000F8B50546044640352878454E45
:10415000012818D001202870C843C3060027D24385
:10416000002B12DBD30610D421681020C861606CCC
:1041700004210843606420212046FFF76FFC20469D
:10418000FFF7A8FC6BE00220F8BD830708D4930773
:1041900006D4206D216888620020C04320655EE05F
:1041A000030630D453062ED401212046FFF72CFC01
:1041B00010212046FFF752FC608D00281ED0608D34
:1041C000FF2803D9FF222285009732E0608D2085E9
:1041D000009736E0204600F05BF9608D218D401A93
:1041E0006085687822282068016802D00122920345
:1041F00001E00122D2031143016030E0402120465A
:10420000FFF7B8FC2BE0430622D4530620D401214B
:104210002046FFF7F9FB10212046FFF71FFC6878C6
:10422000222800D1104E608DFF2807D9FF22228559
:104230000096E06C012381B21B06CBE7608D2085E0
:104240000096208DC2B2E06C012381B25B06C1E70B
:10425000800604D4900602D42046FFF747FD2F7055
:104260000020F8BD0020008000240080F8B5C36A5B
:1042700094460446054640352878002601280DD08E
:1042800001202870CF436046BA06C043002A07DBEE
:10429000820605D42046FFF7B9FD65E00220F8BD8F
:1042A000FA065AD4C20658D447041022002F01DA65
:1042B000070431D4E76BBC46002F07D0070405D4B0
:1042C00067463F687F68002F00D10126A76B002F4B
:1042D00005D0400403D438684068002801D0002E7F
:1042E0001DD06878282807D101204006834203D1D9
:1042F0002046FFF7C9FC37E0687829280CD1012057
:104300000004C34208D02068C2612046FFF7E2FBE8
:104310002046FFF75BFE27E02068C26124E02068AA
:10432000C261606C0421084360646878002B02D08D
:1043300089058B4218D1212806D0292804D02228AB
:1043400004D02A2802D003E0212000E022202063AC
:10435000616C2046FFF70EFC06E03A0704D4000724
:1043600002D42046FFF7C7FB00202870F8BD0000EC
:10437000F8B50446C06A254640352B78012B0CD091
:1043800001232B70CB439E06D243002E07DB9606FB
:1043900005D42046FFF73AFD74E00220F8BD3B4EFD
:1043A000DF062FD4D7062DD4638D1022002B0ED01C
:1043B0002168CA61616C042211436164002801D044
:1043C000B0425FD1616C2046FFF7D4FB5AE06B78B6
:1043D000282B07D101235B06984203D12046FFF723
:1043E00053FC4FE06978292909D101210904C84209
:1043F00005D02068C2612046FFF76CFB3FE02068D3
:10440000C2613FE05F0719D4570717D4618D0029B7
:104410000CD02168496A626A1170616A491C616244
:10442000218D491E2185618D491E6185618D00297F
:1044300028D101210904C84221D123E01F0705D456
:10444000170703D42046FFF756FB1BE0990719D442
:10445000910717D4618D00290DD0606A216800781A
:104460008862606A401C6062608D401E6085208D9D
:10447000401E208506E0B04201D0002802D120462F
:10448000FFF7A4FD00202870F8BD00000000000127
:1044900010B58905890D12041143029C1943006867
:1044A0002143490042684908630D034C23439A4362
:1044B0000A43426010BD0000FF63FF0310B50146D0
:1044C00040314B780022602B04D002630A70FEF763
:1044D0008BF910BD20234B7002630A70FEF719F9A7
:1044E00010BD8068C007C00F704780684007C00FCC
:1044F0007047026807239B059A430A43026070478E
:1045000010B543690424214007248C40A3438A400A
:104510001343436110BD00003EB5002418480094C9
:1045200001941649029401608460C4600905046125
:104530004160042141610476447684760121C161A1
:10454000014620310C70446284620C73046344633E
:1045500084630C77C464FDF7C9FC002801D072B6EF
:10456000FEE7084800900194694602940448FDF76C
:10457000ADFB002801D072B6FEE73EBD002401402D
:104580000C060020001000B0F0B587B0142168467A
:10459000FBF7EEFF2748416B022529434163416B3E
:1045A00029400591416B012631434163406B002254
:1045B0003040059088212048FEF755F81F4F052010
:1045C000002239460007FEF74EF8882000240090AC
:1045D00002946946019603941748FDF79FFF052052
:1045E000029469460007009701960394FDF796FF31
:1045F00020200090112000040190052069460294BB
:104600000007FDF78BFF40200090052001946946CC
:1046100002940007FDF782FFE80100900520029454
:1046200003946946019504940007FDF777FF07B0EE
:10463000F0BD0000001002400004005013200000F4
:1046400010B5144812490160134941600821816086
:104650000121C1600021016141618161C16101628B
:10466000FEF7C4F8002801D072B6FEE70021094821
:10467000FEF706F8002801D072B6FEE700210548D3
:10468000FEF723F8002801D072B6FEE710BD000047
:104690000058004070060020BC7D701010B50C481A
:1046A0000A4901600B49416000218160C1600161DC
:1046B0008161C16101620C22416242618162FFF746
:1046C000ADF8002801D072B6FEE710BD00440040EE
:1046D0001007002020A10700FEE7704770B51C4CB2
:1046E0002168792914DD012040020025814210DB78
:1046F000184A0D239B012560206841008D18ED1894
:10470000ED8B401C555220605028F5DB5020206076
:1047100070BD104800F0BAFE21680E482D3901F036
:1047200033F90D4E50283062F2DD0146094800F0A1
:104730009BFF0028ECDD094A31785054491C317048
:104740000121890203482560FBF710FF70BD0000BE
:1047500038000020F40000203C0000206808002001
:10476000704710B5FEF7F6F910BD70B592B0342160
:104770006846FBF7FDFE002401200D940E940F9473
:1047800040021094FEF74CFA022540200095059057
:1047900008200A9080030B90EE0107950003049413
:1047A00003960C90089509946846FEF797FB00283D
:1047B00001D072B6FEE707200D900F9402210E95EE
:1047C00010940DA8FEF752FA002801D072B6FEE749
:1047D00005220121120709063046FEF74DFB12B0F3
:1047E00070BD704710B50248FEF7E6FD10BD000031
:1047F000C406002070B502681B4B1C4E984201D0C5
:10480000B04203D17024A2434C682243184C194D86
:10481000984208D0B04206D0174EB04203D0A04212
:1048200001D0A84204D103263602B243CE683243F7
:104830008026B2434E69324302608A68C2620A68C7
:104840008262984203D0A04201D0A84201D10969F6
:104850000163012141610169C90703D00169490868
:104860004900016170BD0000002C014000040040BF
:1048700000440140004801400020004010B5018D77
:10488000090707D501684A680123DB039A43836B54
:104890001A434A60018DC90707D001684A6801239D
:1048A0005B049A43C36A1A434A60018D890707D59E
:1048B00001684A6801231B049A43036B1A434A6048
:1048C000018D490707D501684A6801239B049A4373
:1048D000436B1A434A60018DC90607D501688A688F
:1048E00001231B039A43C36B1A438A60018D890617
:1048F00007D501688A6801235B039A43036C1A4356
:104900008A60018D490612D501684B6801221205A3
:10491000446C934323434B60416C914207D101683F
:104920004A6803235B059A43836C1A434A60018DEE
:10493000090607D501684A680123DB04C06C9A4365
:1049400002434A6010BD0000FEB5054600268035D2
:1049500004462E61FDF78EFE019020680068202736
:104960000007002817DA2548009000223904204665
:10497000019B00F041FC00280DD0EFF310810120D5
:1049800080F310882068026880239A43026081F3D4
:104990001088AF6028E020680068400727D51748D6
:1049A00000900121002289052046019B00F024FC93
:1049B00000281CD0EFF31081012080F310882068BC
:1049C0000268FF2321339A43026081F31088EFF3DA
:1049D0001081012080F310882068826852085200FC
:1049E000826081F31088EF602E710320FEBDAF60FE
:1049F000EF60E66626672E710020FEBDFFFFFF0117
:104A000010B5806A002201464031CA83CA82FEF78F
:104A10008CFD10BD10B5EFF31082012181F31088D9
:104A200001680B68FF242134A3430B6082F31088D4
:104A3000EFF31082012181F3108801688B680D4C1F
:104A400023408B6082F31088C16E01290AD1EFF3F5
:104A5000108281F3108801680B681024A3430B6057
:104A600082F3108820228C210A500021C166416700
:104A700010BD0000FEFFFFEF70B501464031024659
:104A800080320B8CD56814460268222D04D09069C0
:104A900008210843906170BD526A856D1A402A80D2
:104AA000826D921C8265CA8B521ECA83CA8B002AF1
:104AB000F1D1EFF31083012282F3108802681568A8
:104AC000FF262136B543156083F31088EFF310837A
:104AD000012282F31088026895686D086D00956068
:104AE00083F310882022E260002444670467026890
:104AF00053681B020BD5EFF31083012585F3108853
:104B000015680126B606B543156083F31088C26E9A
:104B1000012A02D0FEF736FF70BDC466EFF31083A2
:104B2000012282F31088026815681024A5431560DD
:104B300083F310880268D369DB43DB0600D4146278
:104B4000898BFEF7EEFC70BDF0B507460446403792
:104B500085B0388C03902068C6690168019181682E
:104B6000254680350091E968222905D0816908220F
:104B70001143816105B0F0BD388D029070E020686E
:104B8000406A039AA16D10400880A06D801CA0654A
:104B9000F88B401EF8832068C669710729D0F10799
:104BA00007D00199C90504D501210162286908438C
:104BB0002861B00709D50098C00706D021680220F7
:104BC00008622869042108432861700709D5009804
:104BD000C00706D021680420086228690221084322
:104BE00028612869002804D02046FEF79EFC00209A
:104BF0002861F88B002833D1EFF31081012080F376
:104C0000108820680268FF2301339A43026081F311
:104C10001088EFF31081012080F3108820688268EB
:104C2000304B1A40826081F310882020E860002019
:104C3000606720672068416809020BD5EFF3108197
:104C4000012282F31088026801239B069A430260C6
:104C500081F31088E06E01282AD02046FEF792FEEC
:104C60000298002801D0B00689D4F88B002881D0A2
:104C7000398D814200D87DE7EFF31081012080F368
:104C800010882068826801231B079A43826081F3A1
:104C900010881548EFF310816067012080F31088B9
:104CA0002068026820231A43026081F3108861E7BC
:104CB0000020E066EFF31080012181F31088216865
:104CC0000B68102293430B6080F310882068C16941
:104CD000C943C90600D40262B98B2046FEF721FC05
:104CE000BEE70000FEFFFFEF794A000870B50146FD
:104CF0004031024680320B8CD56814460268222D62
:104D000004D0906908210843906170BD526A1A402E
:104D1000836D1A70826D521C8265CA8B521ECA83C3
:104D2000CA8B002AF1D1EFF31083012282F310889D
:104D300002681568FF262136B543156083F3108895
:104D4000EFF31083012282F31088026895686D08E2
:104D50006D00956083F310882022E2600024446790
:104D60000467026853681B020BD5EFF3108301251B
:104D700085F3108815680126B606B543156083F3E0
:104D80001088C26E012A02D0FEF7FCFD70BDC46619
:104D9000EFF31083012282F3108802681568102453
:104DA000A543156083F310880268D369DB43DB06F3
:104DB00000D41462898BFEF7B4FB70BDF0B50746D2
:104DC0000446403785B0388C03902068C669016876
:104DD00001918168254680350091E968222905D036
:104DE000816908221143816105B0F0BD388D0290C0
:104DF00070E02068406A03990840A16D0870A06DBA
:104E0000401CA065F88B401EF8832068C6697107B6
:104E100029D0F10707D00199C90504D50121016204
:104E2000286908432861B00709D50098C00706D053
:104E3000216802200862286904210843286170075C
:104E400009D50098C00706D02168042008622869A7
:104E50000221084328612869002804D02046FEF773
:104E600064FB00202861F88B002833D1EFF3108118
:104E7000012080F3108820680268FF2301339A43E1
:104E8000026081F31088EFF31081012080F3108815
:104E900020688268304B1A40826081F3108820209D
:104EA000E8600020606720672068416809020BD530
:104EB000EFF31081012282F31088026801239B0620
:104EC0009A43026081F31088E06E01282AD02046C0
:104ED000FEF758FD0298002801D0B00689D4F88B5F
:104EE000002881D0398D814200D87DE7EFF3108111
:104EF000012080F310882068826801231B079A43F1
:104F0000826081F310881548EFF3108160670120FB
:104F100080F310882068026820231A43026081F31E
:104F2000108861E70020E066EFF31080012181F333
:104F3000108821680B68102293430B6080F310885F
:104F40002068C169C943C90600D40262B98B2046F2
:104F5000FEF7E7FABEE70000FEFFFFEFED4C0008AA
:104F6000F8B5044681680069E2690143606900257B
:104F700010430143206802684C4B1A400A43026008
:104F800020684168032212039143E26811434160A3
:104F9000216AA069014320688268454B1A400A4390
:104FA00082602068C16A626A090909011143C1620D
:104FB0004049206888420FD13F4840698007800FF0
:104FC00010D0012804D002280CD0032809D101E018
:104FD000042007E0082005E03849884201D100207C
:104FE00000E010200122E369D2033549354E364FE7
:104FF00093422AD1002806D0022807D0042807D0DF
:10500000082843D108E0FDF7DDFE03E00A4603E08F
:10501000FDF7ECFE02003ED0606A4000315A1046B7
:10502000FBF7A8FA616840004A088018FBF7A2FA6B
:1050300001461039B94229D82349491C01400007CB
:10504000420F20680A43C26025E0002806D00228EB
:1050500007D0042807D0082818D108E0FDF7B2FED1
:1050600003E00A4603E0FDF7C1FE020013D0606AC8
:105070004000315A1046FBF77DFA61684A088018F3
:10508000FBF778FA01461039B94201D9012502E04F
:10509000216880B2C86020460121403041850185E9
:1050A00000206067A0672846F8BD0000F369FFCFC5
:1050B000FFF4FF110038014040100240004400405E
:1050C0000024F400E8600008EFFF0000F0B58165FF
:1050D000014640318A83CA830025456701248368DD
:1050E0002403FF26A34204D10369002B13D13D4BB7
:1050F0000AE07F27002B09D001263607B3420CD1E6
:105100000369002B05D03F230B8407E00369002BC4
:1051100001D00F8402E00E8400E00D84034680334A
:105120001D612225DD60EFF31085012383F31088D4
:1051300003689E6801273E439E6085F31088436E96
:105140007D07AB4229D1098D914226D88168A142C1
:1051500002D1016900291DD0234941670169002955
:105160000CD0EFF31082012181F3108801680B68E5
:10517000FF24013423430B6082F31088EFF3108186
:10518000012282F310880068826801231B071A43FA
:10519000826023E015494167F0E78168A14202D1AE
:1051A000016900290ED012494167016900290BD01D
:1051B000EFF31081012282F3108800680268FF2358
:1051C000213309E00B494167EFF31081012282F39B
:1051D00010880068026820231A43026081F3108857
:1051E0000020F0BDFF010000BD4D0008494B000844
:1051F000ED4C0008794A0008FFB581B007460D461E
:10520000044680370A9E32E0701C30D0FDF732FA37
:105210000499401AB04218D8002E16D020680168B0
:10522000490724D5802D22D0402D20D0C169C94303
:1052300009070CD4082505622046FFF7EBFB3D610A
:1052400000203871012005B0F0BD0320FBE7C069E4
:10525000C04300050BD401202168C002086220462B
:10526000FFF7D8FB2020386100203871EDE7206877
:10527000C1692846884305D0002003998842C3D0DD
:105280000020E0E70120F8E710B50248FEF74EF9EC
:1052900010BD0000100700200FB410B503AA0D4880
:1052A0000299FAF7F9FF0B48FBF722F90A4AD1698C
:1052B0004906FCD50021074C05E0635C9362D36985
:1052C0005B06FCD5491C8142F7D310BC08BC04B076
:1052D00018470000A807002000440040F8B5040C5F
:1052E0008BB2264682B25E43104658430D0C370CF3
:1052F000360400218019164679416E43370C360476
:105300008019264679416E438919F8BD4900CA02C1
:105310000243100000D004204A0D01D001221043A6
:10532000044A490D914201D102210843012800D1CC
:1053300005207047FF0700008307FF22DB0E9A401D
:105340008907090E9940002808DB830809489B005B
:105350001818036893430B43036070470007000F5E
:105360000838830804489B001818C36993430B430B
:10537000C361704700E400E000ED00E030380A2827
:1053800001D2012070470020704710B5044632203A
:1053900000F056F8012000F0C9FD204600F021FE83
:1053A000204600F047FD002000F078FD5121090162
:1053B000022000F02DFE10BDF7B504461546022070
:1053C00000F01EF9C004C10F01980E1800F024F976
:1053D0004643F1B28C4600216F1C08E04A00A35AF4
:1053E0001E0A0B464343EE54A25CDA55491C019A4F
:1053F0009142F3DB6046FEBDF7B51546040006D0CA
:10540000022000F0FDF828460C4F002212E0FBF7C6
:1054100065F8A65C80210E4201D0012500E0002540
:10542000C30B4004000C9D4200D078404910002975
:10543000F1DC521C01998A42EBDBFEBD2110000019
:105440007D2110B5C900484300F002F810BD0000EE
:1054500010B50446074806490068FBF78BF80021A1
:10546000444301E000BF491C8C42FBD810BD000042
:10547000404B4C0070000020132109028843FF308C
:10548000012101300843C90288437047F8B54E1E18
:105490000446214F0D460020153D31467E6304E051
:1054A0004A00A25A1018491E7963A942F8DC142157
:1054B000FBF76AF8024631467E6308E04800205A4E
:1054C000801A00D54042052824DA491E7963A94292
:1054D000F4DC7868111A00D5494203291ADB3146F9
:1054E000801E7E6306E04B00E35A834200DA1846D2
:1054F000491E79630029F6DC101AC10F0818401004
:105500007A6038600A2801DD0A2002E0022801DA08
:1055100002203860F8BD000000000020FEB5002227
:105520004D1E0E460C460746153E06E0284600F086
:1055300095F84000385A82186D1EB542F6DC1421E9
:105540001046FBF721F8019028480069002805D192
:105550006000C0194038C18F244801612448651E8D
:10556000009013E0284600F079F84000395A01987D
:105570000C1A0098807C810040180321FAF7FAFF8A
:10558000002C00DA6442A0422EDD6D1EB542E9DC3B
:10559000164D184E686901998200401CB15068612F
:1055A000022801DB00206861002108468200B25811
:1055B000401C51180228F9DBC80F4018471000980A
:1055C0000024807C0321FAF7D5FFA1007158C91B84
:1055D00000D54942884207DB641C022CF5DB3946C2
:1055E00005A02F61FFF758FEFEBD00003C00002023
:1055F00048080020F80500204E3A25640A00000003
:1056000010B5402801D3FAF769FF02494000085A53
:1056100010BD00007400002010B50220FFF7F0FF5D
:1056200080050249800F085C10BD0000E46000089E
:1056300010B50024084A0121505C3B2804D0491CC5
:105640002029F9D3204610BD50182038C47F2021CE
:105650000148FAF78DFFF5E7E8080020002802DA94
:10566000FF30FF3002307047F0B50646480085B085
:10567000029080194038C58FBA4F0C460020FF2198
:10568000B8600131B848FAF771FF601E0090786386
:1056900028D4384641680068081A0190B14B586B0D
:1056A00041008C46725A01998A4210DC1946896879
:1056B000AD4B4F00DA53AB4A491C91606146715AB9
:1056C000A94200D20D46A749401E4863E6D5A54E23
:1056D000B068052806DBA549029A5218403AD28FD5
:1056E000AA4204D89F490020886005B0F0BD00227E
:1056F000201A401E32610CE09C4D41006B5A491942
:105700004988591A531E994202DD0A46411C3161EB
:10571000401C7063A042EFDB92480021C160056924
:105720004563002D23DB8F48466B904871000818B5
:1057300040380191C78F818F428F038F7918D2181B
:105740008918C28E808E891808180621FAF712FF70
:10575000864A0199515AB94205D3814203DB8148F7
:10576000416BC16003E07F48761E4663DBD521466E
:1057700028317C480026416100992234416302941B
:1057800024E0600079490190401847888188C288E8
:1057900003897918D21889184289808989180818CC
:1057A0000A2148430621FAF7E5FE06466F490198AB
:1057B000085AB84207D30A214843B04203DB69487C
:1057C000416B416107E06748641C44636548029986
:1057D000446B8C42D5DB63480024856100994163AA
:1057E00014E062494300CA5A59184039CB8F671EEA
:1057F000D11AB94202DD5B4F0C46B86159499A4251
:1058000002D88A69AA4205DC401E48635549486BA4
:10581000A842E6DC534F0020F8613862B862786233
:10582000F8680190786301980524031B786B07E002
:105830004E494200895AFA698918401EF961786315
:105840008342F5DBF8690A2148432146FAF79CFEBA
:10585000F86102902B1928467D6307E04349420016
:10586000895A3A6A8918401C396278638342F5DCA8
:10587000386A0A2148432146FAF786FE3862B86939
:10588000009078630098031B786B07E0374942006B
:10589000895ABA6A8918401EB96278638342F5DB77
:1058A00030480A21806A48432146FAF76DFE0146D6
:1058B0002C4881624769476338192A498446486BF6
:1058C00007E02A4A4300D25A4B6AD218401C4A6267
:1058D00048638445F5DC23480A21406A4843214651
:1058E000FAF752FE1F491F4A486200997C1A1D4967
:1058F0000C630199691AD16203911C4A7900535AC9
:10590000891849880A225918514349088E1B02995F
:10591000451A002E01DB304600E070420A21FAF7FA
:1059200033FE0719281E00DA68420A21FAF72CFE16
:10593000391803980B4F0A187A630094114C0346E8
:105940000196029520680AA11030FAF7B7FC20688A
:105950001030FFF7A1FC786BE12800DAC5E6FF20E4
:105960007863C2E600000020F4040020F400002068
:10597000523A25642C25642C25642C25642C25643E
:105980000A0000006000002070B5154C2268022A51
:1059900024DB4B001B18403B6668DD8FB21A954232
:1059A0001CDB9B8F934219DB142917DBC91E12E005
:1059B0004B00C55A95420DDC1B18403BDD8F9542CC
:1059C00008DC9D8F954205DC5B8F934202DCA08E44
:1059D000C0B270BD491E61630A29E9DC002070BDB8
:1059E0000000002008B5FDF7BDF8FEF7BEFEFEF78B
:1059F000CBFD4248816B012421438163806B0022EF
:105A00002040009011460920FDF706F90920FDF716
:105A1000F7F8FEF715FEFEF741FEFEF77DFD38496B
:105A20003848002532C07D2145604902C5600160CB
:105A30000C38FDF756FC002801D072B6FEE7FCF7E3
:105A400029F9314E2F48B560F5603571FDF78AFCB4
:105A50002C480122F11C4C30FDF768FF33212B4804
:105A6000FAF786FD294C0A202034A074274828A183
:105A70007062FAF723FC022020740820FFF785FCEF
:105A80002046143000F05EF965741E4835615438C4
:105A9000F561FCF795FE002801D072B6FEE70526F9
:105AA000360720213046FCF7D9FD0028F9D11748E8
:105AB000343000F047F915487D2134304068C90082
:105AC000FAF762FD0546607C012803D1294614A03F
:105AD000FFF7E2FB1448154B026851005D52521C5F
